{"abi":[{"type":"constructor","inputs":[{"name":"_poolManager","type":"address","internalType":"contract IPoolManager"},{"name":"_tickOffset","type":"int24","internalType":"int24"}],"stateMutability":"nonpayable"},{"type":"function","name":"_rebalance","inputs":[{"name":"key","type":"tuple","internalType":"struct PoolKey","components":[{"name":"currency0","type":"address","internalType":"Currency"},{"name":"currency1","type":"address","internalType":"Currency"},{"name":"fee","type":"uint24","internalType":"uint24"},{"name":"tickSpacing","type":"int24","internalType":"int24"},{"name":"hooks","type":"address","internalType":"contract IHooks"}]}],"outputs":[],"stateMutability":"nonpayable"},{"type":"function","name":"addLiquidity","inputs":[{"name":"key","type":"tuple","internalType":"struct PoolKey","components":[{"name":"currency0","type":"address","internalType":"Currency"},{"name":"currency1","type":"address","internalType":"Currency"},{"name":"fee","type":"uint24","internalType":"uint24"},{"name":"tickSpacing","type":"int24","internalType":"int24"},{"name":"hooks","type":"address","internalType":"contract IHooks"}]},{"name":"params","type":"tuple","internalType":"struct RebalanceHook.AddLiquidityParams","components":[{"name":"currency0","type":"address","internalType":"Currency"},{"name":"currency1","type":"address","internalType":"Currency"},{"name":"fee","type":"uint24","internalType":"uint24"},{"name":"amount","type":"uint256","internalType":"uint256"},{"name":"to","type":"address","internalType":"address"}]}],"outputs":[{"name":"liquidity","type":"uint128","internalType":"uint128"}],"stateMutability":"nonpayable"},{"type":"function","name":"afterAddLiquidity","inputs":[{"name":"","type":"address","internalType":"address"},{"name":"","type":"tuple","internalType":"struct PoolKey","components":[{"name":"currency0","type":"address","internalType":"Currency"},{"name":"currency1","type":"address","internalType":"Currency"},{"name":"fee","type":"uint24","internalType":"uint24"},{"name":"tickSpacing","type":"int24","internalType":"int24"},{"name":"hooks","type":"address","internalType":"contract IHooks"}]},{"name":"","type":"tuple","internalType":"struct IPoolManager.ModifyLiquidityParams","components":[{"name":"tickLower","type":"int24","internalType":"int24"},{"name":"tickUpper","type":"int24","internalType":"int24"},{"name":"liquidityDelta","type":"int256","internalType":"int256"},{"name":"salt","type":"bytes32","internalType":"bytes32"}]},{"name":"","type":"int256","internalType":"BalanceDelta"},{"name":"","type":"bytes","internalType":"bytes"}],"outputs":[{"name":"","type":"bytes4","internalType":"bytes4"},{"name":"","type":"int256","internalType":"BalanceDelta"}],"stateMutability":"nonpayable"},{"type":"function","name":"afterDonate","inputs":[{"name":"","type":"address","internalType":"address"},{"name":"","type":"tuple","internalType":"struct PoolKey","components":[{"name":"currency0","type":"address","internalType":"Currency"},{"name":"currency1","type":"address","internalType":"Currency"},{"name":"fee","type":"uint24","internalType":"uint24"},{"name":"tickSpacing","type":"int24","internalType":"int24"},{"name":"hooks","type":"address","internalType":"contract IHooks"}]},{"name":"","type":"uint256","internalType":"uint256"},{"name":"","type":"uint256","internalType":"uint256"},{"name":"","type":"bytes","internalType":"bytes"}],"outputs":[{"name":"","type":"bytes4","internalType":"bytes4"}],"stateMutability":"nonpayable"},{"type":"function","name":"afterInitialize","inputs":[{"name":"","type":"address","internalType":"address"},{"name":"key","type":"tuple","internalType":"struct PoolKey","components":[{"name":"currency0","type":"address","internalType":"Currency"},{"name":"currency1","type":"address","internalType":"Currency"},{"name":"fee","type":"uint24","internalType":"uint24"},{"name":"tickSpacing","type":"int24","internalType":"int24"},{"name":"hooks","type":"address","internalType":"contract IHooks"}]},{"name":"","type":"uint160","internalType":"uint160"},{"name":"tick","type":"int24","internalType":"int24"},{"name":"","type":"bytes","internalType":"bytes"}],"outputs":[{"name":"","type":"bytes4","internalType":"bytes4"}],"stateMutability":"nonpayable"},{"type":"function","name":"afterRemoveLiquidity","inputs":[{"name":"","type":"address","internalType":"address"},{"name":"","type":"tuple","internalType":"struct PoolKey","components":[{"name":"currency0","type":"address","internalType":"Currency"},{"name":"currency1","type":"address","internalType":"Currency"},{"name":"fee","type":"uint24","internalType":"uint24"},{"name":"tickSpacing","type":"int24","internalType":"int24"},{"name":"hooks","type":"address","internalType":"contract IHooks"}]},{"name":"","type":"tuple","internalType":"struct IPoolManager.ModifyLiquidityParams","components":[{"name":"tickLower","type":"int24","internalType":"int24"},{"name":"tickUpper","type":"int24","internalType":"int24"},{"name":"liquidityDelta","type":"int256","internalType":"int256"},{"name":"salt","type":"bytes32","internalType":"bytes32"}]},{"name":"","type":"int256","internalType":"BalanceDelta"},{"name":"","type":"bytes","internalType":"bytes"}],"outputs":[{"name":"","type":"bytes4","internalType":"bytes4"},{"name":"","type":"int256","internalType":"BalanceDelta"}],"stateMutability":"nonpayable"},{"type":"function","name":"afterSwap","inputs":[{"name":"","type":"address","internalType":"address"},{"name":"","type":"tuple","internalType":"struct PoolKey","components":[{"name":"currency0","type":"address","internalType":"Currency"},{"name":"currency1","type":"address","internalType":"Currency"},{"name":"fee","type":"uint24","internalType":"uint24"},{"name":"tickSpacing","type":"int24","internalType":"int24"},{"name":"hooks","type":"address","internalType":"contract IHooks"}]},{"name":"","type":"tuple","internalType":"struct IPoolManager.SwapParams","components":[{"name":"zeroForOne","type":"bool","internalType":"bool"},{"name":"amountSpecified","type":"int256","internalType":"int256"},{"name":"sqrtPriceLimitX96","type":"uint160","internalType":"uint160"}]},{"name":"","type":"int256","internalType":"BalanceDelta"},{"name":"","type":"bytes","internalType":"bytes"}],"outputs":[{"name":"","type":"bytes4","internalType":"bytes4"},{"name":"","type":"int128","internalType":"int128"}],"stateMutability":"nonpayable"},{"type":"function","name":"beforeAddLiquidity","inputs":[{"name":"sender","type":"address","internalType":"address"},{"name":"","type":"tuple","internalType":"struct PoolKey","components":[{"name":"currency0","type":"address","internalType":"Currency"},{"name":"currency1","type":"address","internalType":"Currency"},{"name":"fee","type":"uint24","internalType":"uint24"},{"name":"tickSpacing","type":"int24","internalType":"int24"},{"name":"hooks","type":"address","internalType":"contract IHooks"}]},{"name":"","type":"tuple","internalType":"struct IPoolManager.ModifyLiquidityParams","components":[{"name":"tickLower","type":"int24","internalType":"int24"},{"name":"tickUpper","type":"int24","internalType":"int24"},{"name":"liquidityDelta","type":"int256","internalType":"int256"},{"name":"salt","type":"bytes32","internalType":"bytes32"}]},{"name":"","type":"bytes","internalType":"bytes"}],"outputs":[{"name":"","type":"bytes4","internalType":"bytes4"}],"stateMutability":"view"},{"type":"function","name":"beforeDonate","inputs":[{"name":"","type":"address","internalType":"address"},{"name":"","type":"tuple","internalType":"struct PoolKey","components":[{"name":"currency0","type":"address","internalType":"Currency"},{"name":"currency1","type":"address","internalType":"Currency"},{"name":"fee","type":"uint24","internalType":"uint24"},{"name":"tickSpacing","type":"int24","internalType":"int24"},{"name":"hooks","type":"address","internalType":"contract IHooks"}]},{"name":"","type":"uint256","internalType":"uint256"},{"name":"","type":"uint256","internalType":"uint256"},{"name":"","type":"bytes","internalType":"bytes"}],"outputs":[{"name":"","type":"bytes4","internalType":"bytes4"}],"stateMutability":"nonpayable"},{"type":"function","name":"beforeInitialize","inputs":[{"name":"","type":"address","internalType":"address"},{"name":"key","type":"tuple","internalType":"struct PoolKey","components":[{"name":"currency0","type":"address","internalType":"Currency"},{"name":"currency1","type":"address","internalType":"Currency"},{"name":"fee","type":"uint24","internalType":"uint24"},{"name":"tickSpacing","type":"int24","internalType":"int24"},{"name":"hooks","type":"address","internalType":"contract IHooks"}]},{"name":"","type":"uint160","internalType":"uint160"},{"name":"","type":"bytes","internalType":"bytes"}],"outputs":[{"name":"","type":"bytes4","internalType":"bytes4"}],"stateMutability":"nonpayable"},{"type":"function","name":"beforeRemoveLiquidity","inputs":[{"name":"","type":"address","internalType":"address"},{"name":"","type":"tuple","internalType":"struct PoolKey","components":[{"name":"currency0","type":"address","internalType":"Currency"},{"name":"currency1","type":"address","internalType":"Currency"},{"name":"fee","type":"uint24","internalType":"uint24"},{"name":"tickSpacing","type":"int24","internalType":"int24"},{"name":"hooks","type":"address","internalType":"contract IHooks"}]},{"name":"","type":"tuple","internalType":"struct IPoolManager.ModifyLiquidityParams","components":[{"name":"tickLower","type":"int24","internalType":"int24"},{"name":"tickUpper","type":"int24","internalType":"int24"},{"name":"liquidityDelta","type":"int256","internalType":"int256"},{"name":"salt","type":"bytes32","internalType":"bytes32"}]},{"name":"","type":"bytes","internalType":"bytes"}],"outputs":[{"name":"","type":"bytes4","internalType":"bytes4"}],"stateMutability":"nonpayable"},{"type":"function","name":"beforeSwap","inputs":[{"name":"","type":"address","internalType":"address"},{"name":"key","type":"tuple","internalType":"struct PoolKey","components":[{"name":"currency0","type":"address","internalType":"Currency"},{"name":"currency1","type":"address","internalType":"Currency"},{"name":"fee","type":"uint24","internalType":"uint24"},{"name":"tickSpacing","type":"int24","internalType":"int24"},{"name":"hooks","type":"address","internalType":"contract IHooks"}]},{"name":"","type":"tuple","internalType":"struct IPoolManager.SwapParams","components":[{"name":"zeroForOne","type":"bool","internalType":"bool"},{"name":"amountSpecified","type":"int256","internalType":"int256"},{"name":"sqrtPriceLimitX96","type":"uint160","internalType":"uint160"}]},{"name":"","type":"bytes","internalType":"bytes"}],"outputs":[{"name":"","type":"bytes4","internalType":"bytes4"},{"name":"","type":"int256","internalType":"BeforeSwapDelta"},{"name":"","type":"uint24","internalType":"uint24"}],"stateMutability":"nonpayable"},{"type":"function","name":"getHookPermissions","inputs":[],"outputs":[{"name":"","type":"tuple","internalType":"struct Hooks.Permissions","components":[{"name":"beforeInitialize","type":"bool","internalType":"bool"},{"name":"afterInitialize","type":"bool","internalType":"bool"},{"name":"beforeAddLiquidity","type":"bool","internalType":"bool"},{"name":"afterAddLiquidity","type":"bool","internalType":"bool"},{"name":"beforeRemoveLiquidity","type":"bool","internalType":"bool"},{"name":"afterRemoveLiquidity","type":"bool","internalType":"bool"},{"name":"beforeSwap","type":"bool","internalType":"bool"},{"name":"afterSwap","type":"bool","internalType":"bool"},{"name":"beforeDonate","type":"bool","internalType":"bool"},{"name":"afterDonate","type":"bool","internalType":"bool"},{"name":"beforeSwapReturnDelta","type":"bool","internalType":"bool"},{"name":"afterSwapReturnDelta","type":"bool","internalType":"bool"},{"name":"afterAddLiquidityReturnDelta","type":"bool","internalType":"bool"},{"name":"afterRemoveLiquidityReturnDelta","type":"bool","internalType":"bool"}]}],"stateMutability":"pure"},{"type":"function","name":"liquidityState","inputs":[{"name":"","type":"bytes32","internalType":"PoolId"}],"outputs":[{"name":"minTickWithLiqidity","type":"int24","internalType":"int24"},{"name":"maxTickWithLiqidity","type":"int24","internalType":"int24"},{"name":"lastTickPrice","type":"int24","internalType":"int24"},{"name":"liquidity","type":"uint256","internalType":"uint256"}],"stateMutability":"view"},{"type":"function","name":"poolInfo","inputs":[{"name":"","type":"bytes32","internalType":"PoolId"}],"outputs":[{"name":"hasAccruedFees","type":"bool","internalType":"bool"},{"name":"liquidityToken","type":"address","internalType":"address"}],"stateMutability":"view"},{"type":"function","name":"poolManager","inputs":[],"outputs":[{"name":"","type":"address","internalType":"contract IPoolManager"}],"stateMutability":"view"},{"type":"function","name":"unlockCallback","inputs":[{"name":"rawData","type":"bytes","internalType":"bytes"}],"outputs":[{"name":"","type":"bytes","internalType":"bytes"}],"stateMutability":"nonpayable"},{"type":"error","name":"ExpiredPastDeadline","inputs":[]},{"type":"error","name":"HookNotImplemented","inputs":[]},{"type":"error","name":"InvalidPool","inputs":[]},{"type":"error","name":"LiquidityDoesntMeetMinimum","inputs":[]},{"type":"error","name":"LockFailure","inputs":[]},{"type":"error","name":"NotPoolManager","inputs":[]},{"type":"error","name":"NotSelf","inputs":[]},{"type":"error","name":"PoolNotInitialized","inputs":[]},{"type":"error","name":"SenderMustBeHook","inputs":[]},{"type":"error","name":"TickSpacingNotDefault","inputs":[]},{"type":"error","name":"TooMuchSlippage","inputs":[]}],"bytecode":{"object":"0x60a06040525f805462ffffff1916603c1790553480156200001e575f80fd5b50604051620052f7380380620052f78339810160408190526200004191620002de565b6001600160a01b038216608052816200005a3062000079565b505f805462ffffff191662ffffff92909216919091179055506200032a565b6200016f8162000169604080516101c0810182525f80825260208201819052918101829052606081018290526080810182905260a0810182905260c0810182905260e08101829052610100810182905261012081018290526101408101829052610160810182905261018081018290526101a081019190915250604080516101c0810182526001808252602082018190529181018290525f606082018190526080820181905260a0820181905260c082019290925260e08101829052610100810182905261012081018290526101408101829052610160810182905261018081018290526101a081019190915290565b62000172565b50565b8051151561200083161515141580620001975750602081015115156110008316151514155b80620001af5750604081015115156108008316151514155b80620001c75750606081015115156104008316151514155b80620001df5750608081015115156102008316151514155b80620001f7575060a081015115156101008316151514155b806200020e575060c0810151151560808316151514155b8062000225575060e0810151151560408316151514155b806200023d5750610100810151151560208316151514155b80620002555750610120810151151560108316151514155b806200026d5750610140810151151560088316151514155b80620002855750610160810151151560048316151514155b806200029d5750610180810151151560028316151514155b80620002b557506101a0810151151560018316151514155b15620002ce57620002ce630732d7b560e51b83620002d2565b5050565b815f528060045260245ffd5b5f8060408385031215620002f0575f80fd5b82516001600160a01b038116811462000307575f80fd5b8092505060208301518060020b81146200031f575f80fd5b809150509250929050565b608051614f3d620003ba5f395f8181610525015281816109fc01528181610aa901528181610bb401528181610d3801528181610dfa01528181610f8401528181610fb2015281816111bd015281816113a8015281816114690152818161177a015281816118b40152818161196301528181611a4a01528181611b3b01528181611b9c01526123790152614f3d5ff3fe608060405234801562000010575f80fd5b50600436106200012c575f3560e01c8063a910f80f11620000bb578063c0e026781162000087578063c4e833ce116200006b578063c4e833ce1462000425578063dc4c90d3146200051f578063e1b4af69146200034f575f80fd5b8063c0e0267814620003d3578063c48ccddd14620003ec575f80fd5b8063a910f80f14620002eb578063b47b2fb11462000302578063b6a8b0fa146200034f578063b7a606a71462000360575f80fd5b80635a2a810011620000fb5780635a2a810014620002065780638cebd94214620002565780638db2b652146200020657806391dd734614620002c5575f80fd5b806321d0ee701462000130578063259982e5146200017d5780633440d8201462000194578063575e24b414620001ab575b5f80fd5b620001476200014136600462002bdb565b6200056d565b6040517fffffffff0000000000000000000000000000000000000000000000000000000090911681526020015b60405180910390f35b620001476200018e36600462002bdb565b620005a0565b62000147620001a536600462002c5c565b6200061d565b620001c2620001bc36600462002ccf565b62000910565b604080517fffffffff000000000000000000000000000000000000000000000000000000009094168452602084019290925262ffffff169082015260600162000174565b6200021d6200021736600462002d31565b620009ae565b604080517fffffffff00000000000000000000000000000000000000000000000000000000909316835260208301919091520162000174565b620002986200026736600462002dbc565b60016020525f908152604090205460ff811690610100900473ffffffffffffffffffffffffffffffffffffffff1682565b60408051921515835273ffffffffffffffffffffffffffffffffffffffff90911660208301520162000174565b620002dc620002d636600462002dd4565b620009e2565b60405162000174919062002e86565b62000147620002fc36600462002eac565b62000b9b565b620003136200021736600462002f20565b604080517fffffffff000000000000000000000000000000000000000000000000000000009093168352600f9190910b60208301520162000174565b620001476200014136600462002f8b565b620003a76200037136600462002dbc565b600260208190525f9182526040909120805460019091015481830b9263010000008304810b9266010000000000009004900b9084565b60408051600295860b815293850b60208501529190930b90820152606081019190915260800162000174565b620003ea620003e436600462003121565b62000d31565b005b62000403620003fd3660046200313e565b62001433565b6040516fffffffffffffffffffffffffffffffff909116815260200162000174565b62000510604080516101c0810182525f80825260208201819052918101829052606081018290526080810182905260a0810182905260c0810182905260e08101829052610100810182905261012081018290526101408101829052610160810182905261018081018290526101a081019190915250604080516101c0810182526001808252602082018190529181018290525f606082018190526080820181905260a0820181905260c082019290925260e08101829052610100810182905261012081018290526101408101829052610160810182905261018081018290526101a081019190915290565b60405162000174919062003177565b620005477f000000000000000000000000000000000000000000000000000000000000000081565b60405173ffffffffffffffffffffffffffffffffffffffff909116815260200162000174565b5f6040517f0a85dc2900000000000000000000000000000000000000000000000000000000815260040160405180910390fd5b5f73ffffffffffffffffffffffffffffffffffffffff86163014620005f1576040517f97d95e4000000000000000000000000000000000000000000000000000000000815260040160405180910390fd5b507f259982e5000000000000000000000000000000000000000000000000000000005b95945050505050565b5f6200063060808601606087016200326a565b60020b603c146200066d576040517ff59f227600000000000000000000000000000000000000000000000000000000815260040160405180910390fd5b5f6200068a620006833688900388018862003121565b60a0902090565b90505f6200069c602088018862003286565b73ffffffffffffffffffffffffffffffffffffffff166395d89b416040518163ffffffff1660e01b81526004015f60405180830381865afa158015620006e4573d5f803e3d5ffd5b505050506040513d5f823e601f3d9081017fffffffffffffffffffffffffffffffffffffffffffffffffffffffffffffffe01682016040526200072b91908101906200333d565b6200073d6040890160208a0162003286565b73ffffffffffffffffffffffffffffffffffffffff166395d89b416040518163ffffffff1660e01b81526004015f60405180830381865afa15801562000785573d5f803e3d5ffd5b505050506040513d5f823e601f3d9081017fffffffffffffffffffffffffffffffffffffffffffffffffffffffffffffffe0168201604052620007cc91908101906200333d565b620007ed620007e260608b0160408c0162003387565b62ffffff1662001652565b6040516020016200080193929190620033a3565b60405160208183030381529060405290505f8182604051620008239062002b38565b620008309291906200344f565b604051809103905ff0801580156200084a573d5f803e3d5ffd5b506040805180820182525f80825273ffffffffffffffffffffffffffffffffffffffff93841660208084019182529782526001909752919091209051815495517fffffffffffffffffffffff0000000000000000000000000000000000000000009096169015157fffffffffffffffffffffff0000000000000000000000000000000000000000ff1617610100959092169490940217909255507f3440d82000000000000000000000000000000000000000000000000000000000979650505050505050565b5f8080806200092962000683368a90038a018a62003121565b5f8181526001602052604090205490915060ff166200097c575f81815260016020819052604090912080547fffffffffffffffffffffffffffffffffffffffffffffffffffffffffffffff001690911790555b507f575e24b400000000000000000000000000000000000000000000000000000000985f985088975095505050505050565b5f806040517f0a85dc2900000000000000000000000000000000000000000000000000000000815260040160405180910390fd5b60603373ffffffffffffffffffffffffffffffffffffffff7f0000000000000000000000000000000000000000000000000000000000000000161462000a54576040517fae18210a00000000000000000000000000000000000000000000000000000000815260040160405180910390fd5b5f62000a638385018562003477565b90505f80826040015160400151121562000aa75762000a8b8260200151836040015162001715565b905062000aa1825f015183602001518362001961565b62000b75565b7f000000000000000000000000000000000000000000000000000000000000000073ffffffffffffffffffffffffffffffffffffffff16635a6bcfda8360200151846040015160405180602001604052805f8152506040518463ffffffff1660e01b815260040162000b1c939291906200353b565b60408051808303815f875af115801562000b38573d5f803e3d5ffd5b505050506040513d601f19601f8201168201806040525081019062000b5e9190620035db565b508251602084015191925062000b75918362001b35565b604080516020810183905201604051602081830303815290604052925050505b92915050565b5f3373ffffffffffffffffffffffffffffffffffffffff7f0000000000000000000000000000000000000000000000000000000000000000161462000c0c576040517fae18210a00000000000000000000000000000000000000000000000000000000815260040160405180910390fd5b6040518060800160405280603c8662000c2691906200362b565b60020b815260200162000c3b86603c6200366f565b60020b81526020018560020b81526020015f81525060025f62000c6a8980360381019062000683919062003121565b815260208082019290925260409081015f2083518154938501519285015162ffffff9081166601000000000000027fffffffffffffffffffffffffffffffffffffffffffffff000000ffffffffffff9482166301000000027fffffffffffffffffffffffffffffffffffffffffffffffffffff00000000000090961691909216179390931791909116919091178155606090910151600190910155507fa910f80f000000000000000000000000000000000000000000000000000000009695505050505050565b60a081205f7f000000000000000000000000000000000000000000000000000000000000000073ffffffffffffffffffffffffffffffffffffffff16635a6bcfda8460405180608001604052807ffffffffffffffffffffffffffffffffffffffffffffffffffffffffffff2764c60020b81526020017ffffffffffffffffffffffffffffffffffffffffffffffffffffffffffff2764c62000dd390620036b3565b60020b815260200162000e3962000e2173ffffffffffffffffffffffffffffffffffffffff7f0000000000000000000000000000000000000000000000000000000000000000168962001bff565b6fffffffffffffffffffffffffffffffff1662001caf565b62000e4490620036f2565b81525f6020918201819052604080519283018152908252517fffffffff0000000000000000000000000000000000000000000000000000000060e086901b16815262000e96939291906004016200353b565b60408051808303815f875af115801562000eb2573d5f803e3d5ffd5b505050506040513d601f19601f8201168201806040525081019062000ed89190620035db565b5090505f62000f6662000ef86c0100000000000000000000000062001ccb565b62000f5462000f4e62000f0b86600f0b90565b6fffffffffffffffffffffffffffffffff166c0100000000000000000000000062000f368860801d90565b6fffffffffffffffffffffffffffffffff1662001d81565b62001ccb565b62000f6091906200372b565b62001e40565b90505f62000fab73ffffffffffffffffffffffffffffffffffffffff7f0000000000000000000000000000000000000000000000000000000000000000168562001e6c565b50505090507f000000000000000000000000000000000000000000000000000000000000000073ffffffffffffffffffffffffffffffffffffffff1663f3cd914c8660405180606001604052808573ffffffffffffffffffffffffffffffffffffffff168773ffffffffffffffffffffffffffffffffffffffff16101515815260200160017f7fffffffffffffffffffffffffffffffffffffffffffffffffffffffffffffff6200105c90620036f2565b62001068919062003745565b815273ffffffffffffffffffffffffffffffffffffffff87166020918201526040805191820181525f8252517fffffffff0000000000000000000000000000000000000000000000000000000060e086901b168152620010ce939291906004016200376e565b6020604051808303815f875af1158015620010eb573d5f803e3d5ffd5b505050506040513d601f19601f8201168201806040525081019062001111919062003814565b505f620011b883620011437ffffffffffffffffffffffffffffffffffffffffffffffffffffffffffff2764c62001f56565b62001178620011727ffffffffffffffffffffffffffffffffffffffffffffffffffffffffffff2764c620036b3565b62001f56565b620011838860801d90565b6fffffffffffffffffffffffffffffffff16620011a089600f0b90565b6fffffffffffffffffffffffffffffffff1662002248565b90505f7f000000000000000000000000000000000000000000000000000000000000000073ffffffffffffffffffffffffffffffffffffffff16635a6bcfda8860405180608001604052807ffffffffffffffffffffffffffffffffffffffffffffffffffffffffffff2764c60020b81526020017ffffffffffffffffffffffffffffffffffffffffffffffffffffffffffff2764c6200125890620036b3565b60020b81526020016200127d876fffffffffffffffffffffffffffffffff1662001caf565b81525f6020918201819052604080519283018152908252517fffffffff0000000000000000000000000000000000000000000000000000000060e086901b168152620012cf939291906004016200353b565b60408051808303815f875af1158015620012eb573d5f803e3d5ffd5b505050506040513d601f19601f82011682018060405250810190620013119190620035db565b5090505f620013208260801d90565b6200132b8760801d90565b6200133791906200382c565b90505f6200134583600f0b90565b6200135088600f0b90565b6200135c91906200382c565b604080516020810182525f815290517f234266d700000000000000000000000000000000000000000000000000000000815291925073ffffffffffffffffffffffffffffffffffffffff7f0000000000000000000000000000000000000000000000000000000000000000169163234266d791620013e4918d9187918791906004016200387d565b6020604051808303815f875af115801562001401573d5f803e3d5ffd5b505050506040513d601f19601f8201168201806040525081019062001427919062003814565b50505050505050505050565b5f806200144a620006833686900386018662003121565b90505f806200149073ffffffffffffffffffffffffffffffffffffffff7f0000000000000000000000000000000000000000000000000000000000000000168462001e6c565b5050915091508173ffffffffffffffffffffffffffffffffffffffff165f03620014e6576040517f486aa30700000000000000000000000000000000000000000000000000000000815260040160405180910390fd5b5f838152600160205260408120906200155d62001509368a90038a018a62003121565b604080516080810182525f898152600260208181528483205480830b8552928c90528181526301000000909204900b908201529081016200154e60608c013562001caf565b81525f60209091015262002376565b8254909150610100900473ffffffffffffffffffffffffffffffffffffffff166340c10f196200159460a08a0160808b0162003286565b6040517fffffffff0000000000000000000000000000000000000000000000000000000060e084901b16815273ffffffffffffffffffffffffffffffffffffffff909116600482015260608a013560248201526044015f604051808303815f87803b15801562001602575f80fd5b505af115801562001615573d5f803e3d5ffd5b5050505f868152600260205260408120600101805460608b01359350909190620016419084906200391b565b909155509598975050505050505050565b60605f62001660836200249b565b60010190505f8167ffffffffffffffff81111562001682576200168262002feb565b6040519080825280601f01601f191660200182016040528015620016ad576020820181803683370190505b5090508181016020015b7fffffffffffffffffffffffffffffffffffffffffffffffffffffffffffffffff017f3031323334353637383961626364656600000000000000000000000000000000600a86061a8153600a8504945084620016b757509392505050565b5f80620017238460a0902090565b5f81815260016020526040902080549192509060ff16156200174a576200174a8562000d31565b5f6200184c85604001516200175f90620036f2565b620017a173ffffffffffffffffffffffffffffffffffffffff7f0000000000000000000000000000000000000000000000000000000000000000168662001bff565b6fffffffffffffffffffffffffffffffff16845f0160019054906101000a900473ffffffffffffffffffffffffffffffffffffffff1673ffffffffffffffffffffffffffffffffffffffff166318160ddd6040518163ffffffff1660e01b8152600401602060405180830381865afa15801562001820573d5f803e3d5ffd5b505050506040513d601f19601f8201168201806040525081019062001846919062003814565b62001d81565b9050620018598162001caf565b6200186490620036f2565b60408087019190915280516020810182525f815290517f5a6bcfda00000000000000000000000000000000000000000000000000000000815273ffffffffffffffffffffffffffffffffffffffff7f00000000000000000000000000000000000000000000000000000000000000001691635a6bcfda91620018ee918a918a91906004016200353b565b60408051808303815f875af11580156200190a573d5f803e3d5ffd5b505050506040513d601f19601f82011682018060405250810190620019309190620035db565b5082547fffffffffffffffffffffffffffffffffffffffffffffffffffffffffffffff001690925550949350505050565b7f000000000000000000000000000000000000000000000000000000000000000073ffffffffffffffffffffffffffffffffffffffff16630b0d9c09835f015185620019ad8560801d90565b6040517fffffffff0000000000000000000000000000000000000000000000000000000060e086901b16815273ffffffffffffffffffffffffffffffffffffffff93841660048201529290911660248301526fffffffffffffffffffffffffffffffff1660448201526064015f604051808303815f87803b15801562001a31575f80fd5b505af115801562001a44573d5f803e3d5ffd5b505050507f000000000000000000000000000000000000000000000000000000000000000073ffffffffffffffffffffffffffffffffffffffff16630b0d9c0983602001518562001a9585600f0b90565b6040517fffffffff0000000000000000000000000000000000000000000000000000000060e086901b16815273ffffffffffffffffffffffffffffffffffffffff93841660048201529290911660248301526fffffffffffffffffffffffffffffffff1660448201526064015f604051808303815f87803b15801562001b19575f80fd5b505af115801562001b2c573d5f803e3d5ffd5b50505050505050565b62001b967f00000000000000000000000000000000000000000000000000000000000000008462001b668460801d90565b62001b719062003931565b855173ffffffffffffffffffffffffffffffffffffffff16929190600f0b5f62002583565b62001bfa7f00000000000000000000000000000000000000000000000000000000000000008462001bc784600f0b90565b62001bd29062003931565b602086015173ffffffffffffffffffffffffffffffffffffffff16929190600f0b5f62002583565b505050565b5f8062001c0c83620029af565b90505f62001c1c6003836200391b565b6040517f1e2eaeaf0000000000000000000000000000000000000000000000000000000081526004810182905290915073ffffffffffffffffffffffffffffffffffffffff861690631e2eaeaf90602401602060405180830381865afa15801562001c89573d5f803e3d5ffd5b505050506040513d601f19601f8201168201806040525081019062000614919062003814565b5f80821262001cbc575090565b62001cc6620029ec565b919050565b60b58171010000000000000000000000000000000000811062001cf35760409190911b9060801c5b6901000000000000000000811062001d105760209190911b9060401c5b65010000000000811062001d295760109190911b9060201c5b6301000000811062001d405760089190911b9060101c5b62010000010260121c80820401600190811c80830401811c80830401811c80830401811c80830401811c80830401811c80830401901c908190048111900390565b5f838302817fffffffffffffffffffffffffffffffffffffffffffffffffffffffffffffffff8587098281108382030391505080841162001dc0575f80fd5b805f0362001dd45750829004905062001e39565b5f848688095f868103871696879004966002600389028118808a02820302808a02820302808a02820302808a02820302808a02820302808a02909103029181900381900460010186841190950394909402919094039290920491909117919091029150505b9392505050565b5f74010000000000000000000000000000000000000000821062001e685762001e68620029ec565b5090565b5f805f805f62001e7c86620029af565b6040517f1e2eaeaf000000000000000000000000000000000000000000000000000000008152600481018290529091505f9073ffffffffffffffffffffffffffffffffffffffff891690631e2eaeaf90602401602060405180830381865afa15801562001eeb573d5f803e3d5ffd5b505050506040513d601f19601f8201168201806040525081019062001f11919062003814565b905073ffffffffffffffffffffffffffffffffffffffff811695508060a01c60020b945062ffffff8160b81c16935062ffffff8160d01c169250505092959194509250565b5f60ff82901d80830118620d89e881111562001f795763ce8ef7fc5f526004601cfd5b7001fffcb933bd6fad37aa2d162d1a594001600182160270010000000000000000000000000000000018600282161562001fc3576ffff97272373d413259a46990580e213a0260801c5b600482161562001fe3576ffff2e50f5f656932ef12357cf3c7fdcc0260801c5b600882161562002003576fffe5caca7e10e4e61c3624eaa0941cd00260801c5b601082161562002023576fffcb9843d60f6159c9db58835c9266440260801c5b602082161562002043576fff973b41fa98c081472e6896dfb254c00260801c5b604082161562002063576fff2ea16466c96a3843ec78b326b528610260801c5b608082161562002083576ffe5dee046a99a2a811c461f1969c30530260801c5b610100821615620020a4576ffcbe86c7900a88aedcffc83b479aa3a40260801c5b610200821615620020c5576ff987a7253ac413176f2b074cf7815e540260801c5b610400821615620020e6576ff3392b0822b70005940c7a398e4b70f30260801c5b61080082161562002107576fe7159475a2c29b7443b29c7fa6e889d90260801c5b61100082161562002128576fd097f3bdfd2022b8845ad8f792aa58250260801c5b61200082161562002149576fa9f746462d870fdf8a65dc1f90e061e50260801c5b6140008216156200216a576f70d869a156d2a1b890bb3df62baf32f70260801c5b6180008216156200218b576f31be135f97d08fd981231505542fcfa60260801c5b62010000821615620021ad576f09aa508b5b7a84e1c677de54f3e99bc90260801c5b62020000821615620021ce576e5d6af8dedb81196699c329225ee6040260801c5b62040000821615620021ee576d2216e584f5fa1ea926041bedfe980260801c5b620800008216156200220c576b048a170391f7dc42444e8fa20260801c5b5f84131562002238577fffffffffffffffffffffffffffffffffffffffffffffffffffffffffffffffff045b63ffffffff0160201c9392505050565b5f8373ffffffffffffffffffffffffffffffffffffffff168573ffffffffffffffffffffffffffffffffffffffff16111562002282579293925b8473ffffffffffffffffffffffffffffffffffffffff168673ffffffffffffffffffffffffffffffffffffffff1611620022cb57620022c3858585620029f9565b905062000614565b8373ffffffffffffffffffffffffffffffffffffffff168673ffffffffffffffffffffffffffffffffffffffff1610156200235f575f6200230e878686620029f9565b90505f6200231e87898662002ab4565b9050806fffffffffffffffffffffffffffffffff16826fffffffffffffffffffffffffffffffff161062002353578062002355565b815b9250505062000614565b6200236c85858462002ab4565b9695505050505050565b5f7f000000000000000000000000000000000000000000000000000000000000000073ffffffffffffffffffffffffffffffffffffffff166348c8949160405180606001604052803373ffffffffffffffffffffffffffffffffffffffff16815260200186815260200185815250604051602001620023f6919062003968565b6040516020818303038152906040526040518263ffffffff1660e01b815260040162002423919062002e86565b5f604051808303815f875af11580156200243f573d5f803e3d5ffd5b505050506040513d5f823e601f3d9081017fffffffffffffffffffffffffffffffffffffffffffffffffffffffffffffffe01682016040526200248691908101906200333d565b80602001905181019062001e39919062003814565b5f807a184f03e93ff9f4daa797ed6e38ed64bf6a1f0100000000000000008310620024e4577a184f03e93ff9f4daa797ed6e38ed64bf6a1f010000000000000000830492506040015b6d04ee2d6d415b85acef8100000000831062002511576d04ee2d6d415b85acef8100000000830492506020015b662386f26fc1000083106200253057662386f26fc10000830492506010015b6305f5e100831062002549576305f5e100830492506008015b61271083106200255e57612710830492506004015b6064831062002571576064830492506002015b600a831062000b955760010192915050565b801562002668578373ffffffffffffffffffffffffffffffffffffffff1663f5298aca84620025db8873ffffffffffffffffffffffffffffffffffffffff1673ffffffffffffffffffffffffffffffffffffffff1690565b6040517fffffffff0000000000000000000000000000000000000000000000000000000060e085901b16815273ffffffffffffffffffffffffffffffffffffffff90921660048301526024820152604481018590526064015f604051808303815f87803b1580156200264b575f80fd5b505af11580156200265e573d5f803e3d5ffd5b50505050620029a8565b73ffffffffffffffffffffffffffffffffffffffff851662002720576040517f6a256b2900000000000000000000000000000000000000000000000000000000815273ffffffffffffffffffffffffffffffffffffffff8681166004830152851690636a256b2990849060240160206040518083038185885af1158015620026f2573d5f803e3d5ffd5b50505050506040513d601f19601f8201168201806040525081019062002719919062003814565b50620029a8565b6040517fa584119400000000000000000000000000000000000000000000000000000000815273ffffffffffffffffffffffffffffffffffffffff868116600483015285169063a5841194906024016020604051808303815f875af11580156200278c573d5f803e3d5ffd5b505050506040513d601f19601f82011682018060405250810190620027b2919062003814565b5073ffffffffffffffffffffffffffffffffffffffff8316301462002879576040517f23b872dd00000000000000000000000000000000000000000000000000000000815273ffffffffffffffffffffffffffffffffffffffff84811660048301528581166024830152604482018490528616906323b872dd906064016020604051808303815f875af11580156200284c573d5f803e3d5ffd5b505050506040513d601f19601f8201168201806040525081019062002872919062003a24565b5062002914565b6040517fa9059cbb00000000000000000000000000000000000000000000000000000000815273ffffffffffffffffffffffffffffffffffffffff85811660048301526024820184905286169063a9059cbb906044016020604051808303815f875af1158015620028ec573d5f803e3d5ffd5b505050506040513d601f19601f8201168201806040525081019062002912919062003a24565b505b6040517f6a256b2900000000000000000000000000000000000000000000000000000000815273ffffffffffffffffffffffffffffffffffffffff8681166004830152851690636a256b29906024016020604051808303815f875af115801562002980573d5f803e3d5ffd5b505050506040513d601f19601f82011682018060405250810190620029a6919062003814565b505b5050505050565b6040515f90620029cf908390600690602001918252602082015260400190565b604051602081830303815290604052805190602001209050919050565b6393dafdf15f526004601cfd5b5f8273ffffffffffffffffffffffffffffffffffffffff168473ffffffffffffffffffffffffffffffffffffffff16111562002a33579192915b5f62002a7a8573ffffffffffffffffffffffffffffffffffffffff168573ffffffffffffffffffffffffffffffffffffffff166c0100000000000000000000000062001d81565b90506200061462002aae848362002a92898962003a45565b73ffffffffffffffffffffffffffffffffffffffff1662001d81565b62002b19565b5f8273ffffffffffffffffffffffffffffffffffffffff168473ffffffffffffffffffffffffffffffffffffffff16111562002aee579192915b62002b1162002aae836c0100000000000000000000000062002a92888862003a45565b949350505050565b806fffffffffffffffffffffffffffffffff8116811462001cc6575f80fd5b6114928062003a7683390190565b73ffffffffffffffffffffffffffffffffffffffff8116811462002b68575f80fd5b50565b5f60a0828403121562002b7c575f80fd5b50919050565b5f6080828403121562002b7c575f80fd5b5f8083601f84011262002ba4575f80fd5b50813567ffffffffffffffff81111562002bbc575f80fd5b60208301915083602082850101111562002bd4575f80fd5b9250929050565b5f805f805f610160868803121562002bf1575f80fd5b853562002bfe8162002b46565b945062002c0f876020880162002b6b565b935062002c208760c0880162002b82565b925061014086013567ffffffffffffffff81111562002c3d575f80fd5b62002c4b8882890162002b93565b969995985093965092949392505050565b5f805f805f610100868803121562002c72575f80fd5b853562002c7f8162002b46565b945062002c90876020880162002b6b565b935060c086013562002ca28162002b46565b925060e086013567ffffffffffffffff81111562002c3d575f80fd5b5f6060828403121562002b7c575f80fd5b5f805f805f610140868803121562002ce5575f80fd5b853562002cf28162002b46565b945062002d03876020880162002b6b565b935062002d148760c0880162002cbe565b925061012086013567ffffffffffffffff81111562002c3d575f80fd5b5f805f805f80610180878903121562002d48575f80fd5b863562002d558162002b46565b955062002d66886020890162002b6b565b945062002d778860c0890162002b82565b9350610140870135925061016087013567ffffffffffffffff81111562002d9c575f80fd5b62002daa89828a0162002b93565b979a9699509497509295939492505050565b5f6020828403121562002dcd575f80fd5b5035919050565b5f806020838503121562002de6575f80fd5b823567ffffffffffffffff81111562002dfd575f80fd5b62002e0b8582860162002b93565b90969095509350505050565b5f5b8381101562002e3357818101518382015260200162002e19565b50505f910152565b5f815180845262002e5481602086016020860162002e17565b601f017fffffffffffffffffffffffffffffffffffffffffffffffffffffffffffffffe0169290920160200192915050565b602081525f62001e39602083018462002e3b565b8035600281900b811462001cc6575f80fd5b5f805f805f80610120878903121562002ec3575f80fd5b863562002ed08162002b46565b955062002ee1886020890162002b6b565b945060c087013562002ef38162002b46565b935062002f0360e0880162002e9a565b925061010087013567ffffffffffffffff81111562002d9c575f80fd5b5f805f805f80610160878903121562002f37575f80fd5b863562002f448162002b46565b955062002f55886020890162002b6b565b945062002f668860c0890162002cbe565b9350610120870135925061014087013567ffffffffffffffff81111562002d9c575f80fd5b5f805f805f80610120878903121562002fa2575f80fd5b863562002faf8162002b46565b955062002fc0886020890162002b6b565b945060c0870135935060e0870135925061010087013567ffffffffffffffff81111562002d9c575f80fd5b7f4e487b71000000000000000000000000000000000000000000000000000000005f52604160045260245ffd5b6040516060810167ffffffffffffffff811182821017156200303e576200303e62002feb565b60405290565b6040516080810167ffffffffffffffff811182821017156200303e576200303e62002feb565b803562ffffff8116811462001cc6575f80fd5b5f60a082840312156200308e575f80fd5b60405160a0810181811067ffffffffffffffff82111715620030b457620030b462002feb565b6040529050808235620030c78162002b46565b81526020830135620030d98162002b46565b6020820152620030ec604084016200306a565b6040820152620030ff6060840162002e9a565b60608201526080830135620031148162002b46565b6080919091015292915050565b5f60a0828403121562003132575f80fd5b62001e3983836200307d565b5f80610140838503121562003151575f80fd5b6200315d848462002b6b565b91506200316e8460a0850162002b6b565b90509250929050565b8151151581526101c08101602083015162003196602084018215159052565b506040830151620031ab604084018215159052565b506060830151620031c0606084018215159052565b506080830151620031d5608084018215159052565b5060a0830151620031ea60a084018215159052565b5060c0830151620031ff60c084018215159052565b5060e08301516200321460e084018215159052565b5061010083810151151590830152610120808401511515908301526101408084015115159083015261016080840151151590830152610180808401511515908301526101a0928301511515929091019190915290565b5f602082840312156200327b575f80fd5b62001e398262002e9a565b5f6020828403121562003297575f80fd5b813562001e398162002b46565b5f67ffffffffffffffff80841115620032c157620032c162002feb565b604051601f85017fffffffffffffffffffffffffffffffffffffffffffffffffffffffffffffffe0908116603f011681019082821181831017156200330a576200330a62002feb565b8160405280935085815286868601111562003323575f80fd5b6200333386602083018762002e17565b5050509392505050565b5f602082840312156200334e575f80fd5b815167ffffffffffffffff81111562003365575f80fd5b8201601f8101841362003376575f80fd5b62002b1184825160208401620032a4565b5f6020828403121562003398575f80fd5b62001e39826200306a565b7f556e69563400000000000000000000000000000000000000000000000000000081525f7f2d00000000000000000000000000000000000000000000000000000000000000806005840152855162003403816006860160208a0162002e17565b8084019050816006820152855162003423816007840160208a0162002e17565b0160078101919091528351906200344282600883016020880162002e17565b0160080195945050505050565b604081525f62003463604083018562002e3b565b828103602084015262000614818562002e3b565b5f8183036101408112156200348a575f80fd5b6200349462003018565b8335620034a18162002b46565b8152620034b285602086016200307d565b602082015260807fffffffffffffffffffffffffffffffffffffffffffffffffffffffffffffff4083011215620034e7575f80fd5b620034f162003044565b91506200350160c0850162002e9a565b82526200351160e0850162002e9a565b60208301526101008401356040808401919091526101209094013560608301529283015250919050565b5f61014062003599838773ffffffffffffffffffffffffffffffffffffffff80825116835280602083015116602084015262ffffff6040830151166040840152606082015160020b6060840152806080830151166080840152505050565b8451600290810b60a08501526020860151900b60c0840152604085015160e08401526060850151610100840152806101208401526200236c8184018562002e3b565b5f8060408385031215620035ed575f80fd5b505080516020909101519092909150565b7f4e487b71000000000000000000000000000000000000000000000000000000005f52601160045260245ffd5b600282810b9082900b037fffffffffffffffffffffffffffffffffffffffffffffffffffffffffff8000008112627fffff8213171562000b955762000b95620035fe565b600281810b9083900b01627fffff81137fffffffffffffffffffffffffffffffffffffffffffffffffffffffffff8000008212171562000b955762000b95620035fe565b5f8160020b7fffffffffffffffffffffffffffffffffffffffffffffffffffffffffff8000008103620036ea57620036ea620035fe565b5f0392915050565b5f7f80000000000000000000000000000000000000000000000000000000000000008203620037255762003725620035fe565b505f0390565b808202811582820484141762000b955762000b95620035fe565b8181035f831280158383131683831282161715620037675762003767620035fe565b5092915050565b5f610120620037cc838773ffffffffffffffffffffffffffffffffffffffff80825116835280602083015116602084015262ffffff6040830151166040840152606082015160020b6060840152806080830151166080840152505050565b8451151560a0840152602085015160c084015273ffffffffffffffffffffffffffffffffffffffff60408601511660e0840152806101008401526200236c8184018562002e3b565b5f6020828403121562003825575f80fd5b5051919050565b600f81810b9083900b016f7fffffffffffffffffffffffffffffff81137fffffffffffffffffffffffffffffffff800000000000000000000000000000008212171562000b955762000b95620035fe565b5f610100620038db838873ffffffffffffffffffffffffffffffffffffffff80825116835280602083015116602084015262ffffff6040830151166040840152606082015160020b6060840152806080830151166080840152505050565b6fffffffffffffffffffffffffffffffff86811660a0850152851660c084015260e08301819052620039108184018562002e3b565b979650505050505050565b8082018082111562000b955762000b95620035fe565b5f81600f0b7fffffffffffffffffffffffffffffffff800000000000000000000000000000008103620036ea57620036ea620035fe565b815173ffffffffffffffffffffffffffffffffffffffff168152602080830151610140830191620039ea9084018273ffffffffffffffffffffffffffffffffffffffff80825116835280602083015116602084015262ffffff6040830151166040840152606082015160020b6060840152806080830151166080840152505050565b506040838101518051600290810b60c08601526020820151900b60e085015290810151610100840152606081015161012084015262003767565b5f6020828403121562003a35575f80fd5b8151801515811462001e39575f80fd5b73ffffffffffffffffffffffffffffffffffffffff828116828216039080821115620037675762003767620035fe56fe60e060405234801562000010575f80fd5b50604051620014923803806200149283398101604081905262000033916200021e565b33828260125f6200004584826200030e565b5060016200005483826200030e565b5060ff81166080524660a0526200006a620000c3565b60c0525050600680546001600160a01b0319166001600160a01b0384169081179091556040519091505f907f8be0079c531659141344cd1fd0a4f28419497f9722a3daafe3b4186f6b6457e0908290a350505062000454565b5f7f8b73c3c69bb8fe3d512ecc4cf759cc79239f7b179b0ffacaa9a75d522b39400f5f604051620000f59190620003da565b6040805191829003822060208301939093528101919091527fc89efdaa54c0f20c7adf612882df0950f5a951637e0307cdcb4c672f298b8bc660608201524660808201523060a082015260c00160405160208183030381529060405280519060200120905090565b634e487b7160e01b5f52604160045260245ffd5b5f82601f83011262000181575f80fd5b81516001600160401b03808211156200019e576200019e6200015d565b604051601f8301601f19908116603f01168101908282118183101715620001c957620001c96200015d565b8160405283815260209250866020858801011115620001e6575f80fd5b5f91505b83821015620002095785820183015181830184015290820190620001ea565b5f602085830101528094505050505092915050565b5f806040838503121562000230575f80fd5b82516001600160401b038082111562000247575f80fd5b620002558683870162000171565b935060208501519150808211156200026b575f80fd5b506200027a8582860162000171565b9150509250929050565b600181811c908216806200029957607f821691505b602082108103620002b857634e487b7160e01b5f52602260045260245ffd5b50919050565b601f8211156200030957805f5260205f20601f840160051c81016020851015620002e55750805b601f840160051c820191505b8181101562000306575f8155600101620002f1565b50505b505050565b81516001600160401b038111156200032a576200032a6200015d565b62000342816200033b845462000284565b84620002be565b602080601f83116001811462000378575f8415620003605750858301515b5f19600386901b1c1916600185901b178555620003d2565b5f85815260208120601f198616915b82811015620003a85788860151825594840194600190910190840162000387565b5085821015620003c657878501515f19600388901b60f8161c191681555b505060018460011b0185555b505050505050565b5f808354620003e98162000284565b600182811680156200040457600181146200041a5762000448565b60ff198416875282151583028701945062000448565b875f526020805f205f5b858110156200043f5781548a82015290840190820162000424565b50505082870194505b50929695505050505050565b60805160a05160c0516110136200047f5f395f61053d01525f61050801525f61016f01526110135ff3fe608060405234801561000f575f80fd5b50600436106100fb575f3560e01c80637ecebe0011610093578063a9059cbb11610063578063a9059cbb1461025e578063d505accf14610271578063dd62ed3e14610284578063f2fde38b146102ae575f80fd5b80637ecebe00146101df5780638da5cb5b146101fe57806395d89b41146102435780639dc29fac1461024b575f80fd5b8063313ce567116100ce578063313ce5671461016a5780633644e515146101a357806340c10f19146101ab57806370a08231146101c0575f80fd5b806306fdde03146100ff578063095ea7b31461011d57806318160ddd1461014057806323b872dd14610157575b5f80fd5b6101076102c1565b6040516101149190610cb3565b60405180910390f35b61013061012b366004610d45565b61034c565b6040519015158152602001610114565b61014960025481565b604051908152602001610114565b610130610165366004610d6d565b6103c5565b6101917f000000000000000000000000000000000000000000000000000000000000000081565b60405160ff9091168152602001610114565b610149610505565b6101be6101b9366004610d45565b61055f565b005b6101496101ce366004610da6565b60036020525f908152604090205481565b6101496101ed366004610da6565b60056020525f908152604090205481565b60065461021e9073ffffffffffffffffffffffffffffffffffffffff1681565b60405173ffffffffffffffffffffffffffffffffffffffff9091168152602001610114565b6101076105f3565b6101be610259366004610d45565b610600565b61013061026c366004610d45565b61068b565b6101be61027f366004610dc6565b61070e565b610149610292366004610e33565b600460209081525f928352604080842090915290825290205481565b6101be6102bc366004610da6565b610a27565b5f80546102cd90610e64565b80601f01602080910402602001604051908101604052809291908181526020018280546102f990610e64565b80156103445780601f1061031b57610100808354040283529160200191610344565b820191905f5260205f20905b81548152906001019060200180831161032757829003601f168201915b505050505081565b335f81815260046020908152604080832073ffffffffffffffffffffffffffffffffffffffff8716808552925280832085905551919290917f8c5be1e5ebec7d5bd14f71427d1e84f3dd0314c0f7b2291e5b200ac8c7c3b925906103b39086815260200190565b60405180910390a35060015b92915050565b73ffffffffffffffffffffffffffffffffffffffff83165f9081526004602090815260408083203384529091528120547fffffffffffffffffffffffffffffffffffffffffffffffffffffffffffffffff8114610457576104268382610ee2565b73ffffffffffffffffffffffffffffffffffffffff86165f9081526004602090815260408083203384529091529020555b73ffffffffffffffffffffffffffffffffffffffff85165f908152600360205260408120805485929061048b908490610ee2565b909155505073ffffffffffffffffffffffffffffffffffffffff8085165f81815260036020526040908190208054870190555190918716907fddf252ad1be2c89b69c2b068fc378daa952ba7f163c4a11628f55a4df523b3ef906104f29087815260200190565b60405180910390a3506001949350505050565b5f7f0000000000000000000000000000000000000000000000000000000000000000461461053a57610535610b18565b905090565b507f000000000000000000000000000000000000000000000000000000000000000090565b60065473ffffffffffffffffffffffffffffffffffffffff1633146105e5576040517f08c379a000000000000000000000000000000000000000000000000000000000815260206004820152600c60248201527f554e415554484f52495a4544000000000000000000000000000000000000000060448201526064015b60405180910390fd5b6105ef8282610bb0565b5050565b600180546102cd90610e64565b60065473ffffffffffffffffffffffffffffffffffffffff163314610681576040517f08c379a000000000000000000000000000000000000000000000000000000000815260206004820152600c60248201527f554e415554484f52495a4544000000000000000000000000000000000000000060448201526064016105dc565b6105ef8282610c27565b335f908152600360205260408120805483919083906106ab908490610ee2565b909155505073ffffffffffffffffffffffffffffffffffffffff83165f81815260036020526040908190208054850190555133907fddf252ad1be2c89b69c2b068fc378daa952ba7f163c4a11628f55a4df523b3ef906103b39086815260200190565b42841015610778576040517f08c379a000000000000000000000000000000000000000000000000000000000815260206004820152601760248201527f5045524d49545f444541444c494e455f4558504952454400000000000000000060448201526064016105dc565b5f6001610783610505565b73ffffffffffffffffffffffffffffffffffffffff8a81165f8181526005602090815260409182902080546001810190915582517f6e71edae12b1b97f4d1f60370fef10105fa2faae0126114a169c64845d6126c98184015280840194909452938d166060840152608083018c905260a083019390935260c08083018b90528151808403909101815260e0830190915280519201919091207f190100000000000000000000000000000000000000000000000000000000000061010083015261010282019290925261012281019190915261014201604080517fffffffffffffffffffffffffffffffffffffffffffffffffffffffffffffffe081840301815282825280516020918201205f84529083018083525260ff871690820152606081018590526080810184905260a0016020604051602081039080840390855afa1580156108d1573d5f803e3d5ffd5b50506040517fffffffffffffffffffffffffffffffffffffffffffffffffffffffffffffffe0015191505073ffffffffffffffffffffffffffffffffffffffff81161580159061094c57508773ffffffffffffffffffffffffffffffffffffffff168173ffffffffffffffffffffffffffffffffffffffff16145b6109b2576040517f08c379a000000000000000000000000000000000000000000000000000000000815260206004820152600e60248201527f494e56414c49445f5349474e455200000000000000000000000000000000000060448201526064016105dc565b73ffffffffffffffffffffffffffffffffffffffff9081165f9081526004602090815260408083208a8516808552908352928190208990555188815291928a16917f8c5be1e5ebec7d5bd14f71427d1e84f3dd0314c0f7b2291e5b200ac8c7c3b925910160405180910390a350505050505050565b60065473ffffffffffffffffffffffffffffffffffffffff163314610aa8576040517f08c379a000000000000000000000000000000000000000000000000000000000815260206004820152600c60248201527f554e415554484f52495a4544000000000000000000000000000000000000000060448201526064016105dc565b600680547fffffffffffffffffffffffff00000000000000000000000000000000000000001673ffffffffffffffffffffffffffffffffffffffff831690811790915560405133907f8be0079c531659141344cd1fd0a4f28419497f9722a3daafe3b4186f6b6457e0905f90a350565b5f7f8b73c3c69bb8fe3d512ecc4cf759cc79239f7b179b0ffacaa9a75d522b39400f5f604051610b489190610ef5565b6040805191829003822060208301939093528101919091527fc89efdaa54c0f20c7adf612882df0950f5a951637e0307cdcb4c672f298b8bc660608201524660808201523060a082015260c00160405160208183030381529060405280519060200120905090565b8060025f828254610bc19190610fca565b909155505073ffffffffffffffffffffffffffffffffffffffff82165f818152600360209081526040808320805486019055518481527fddf252ad1be2c89b69c2b068fc378daa952ba7f163c4a11628f55a4df523b3ef91015b60405180910390a35050565b73ffffffffffffffffffffffffffffffffffffffff82165f9081526003602052604081208054839290610c5b908490610ee2565b90915550506002805482900390556040518181525f9073ffffffffffffffffffffffffffffffffffffffff8416907fddf252ad1be2c89b69c2b068fc378daa952ba7f163c4a11628f55a4df523b3ef90602001610c1b565b5f602080835283518060208501525f5b81811015610cdf57858101830151858201604001528201610cc3565b505f6040828601015260407fffffffffffffffffffffffffffffffffffffffffffffffffffffffffffffffe0601f8301168501019250505092915050565b803573ffffffffffffffffffffffffffffffffffffffff81168114610d40575f80fd5b919050565b5f8060408385031215610d56575f80fd5b610d5f83610d1d565b946020939093013593505050565b5f805f60608486031215610d7f575f80fd5b610d8884610d1d565b9250610d9660208501610d1d565b9150604084013590509250925092565b5f60208284031215610db6575f80fd5b610dbf82610d1d565b9392505050565b5f805f805f805f60e0888a031215610ddc575f80fd5b610de588610d1d565b9650610df360208901610d1d565b95506040880135945060608801359350608088013560ff81168114610e16575f80fd5b9699959850939692959460a0840135945060c09093013592915050565b5f8060408385031215610e44575f80fd5b610e4d83610d1d565b9150610e5b60208401610d1d565b90509250929050565b600181811c90821680610e7857607f821691505b602082108103610eaf577f4e487b71000000000000000000000000000000000000000000000000000000005f52602260045260245ffd5b50919050565b7f4e487b71000000000000000000000000000000000000000000000000000000005f52601160045260245ffd5b818103818111156103bf576103bf610eb5565b5f8083545f60018260011c91506001831680610f1257607f831692505b60208084108203610f4a577f4e487b71000000000000000000000000000000000000000000000000000000005f52602260045260245ffd5b818015610f5e5760018114610f9157610fbc565b7fffffffffffffffffffffffffffffffffffffffffffffffffffffffffffffff0086168952841515850289019650610fbc565b5f8a8152602090205f5b86811015610fb45781548b820152908501908301610f9b565b505084890196505b509498975050505050505050565b808201808211156103bf576103bf610eb556fea2646970667358221220aaacc47a95418ab25ef30965b8c3a0a0c47be7c89c212835cafb98787dddd48364736f6c63430008180033a2646970667358221220fc9fafa574a7081c3cecbdd10bf49915e2d09822843cc285a82d4a0fbcf27bcb64736f6c63430008180033","linkReferences":{}},"methodIdentifiers":{"_rebalance((address,address,uint24,int24,address))":"c0e02678","addLiquidity((address,address,uint24,int24,address),(address,address,uint24,uint256,address))":"c48ccddd","afterAddLiquidity(address,(address,address,uint24,int24,address),(int24,int24,int256,bytes32),int256,bytes)":"5a2a8100","afterDonate(address,(address,address,uint24,int24,address),uint256,uint256,bytes)":"e1b4af69","afterInitialize(address,(address,address,uint24,int24,address),uint160,int24,bytes)":"a910f80f","afterRemoveLiquidity(address,(address,address,uint24,int24,address),(int24,int24,int256,bytes32),int256,bytes)":"8db2b652","afterSwap(address,(address,address,uint24,int24,address),(bool,int256,uint160),int256,bytes)":"b47b2fb1","beforeAddLiquidity(address,(address,address,uint24,int24,address),(int24,int24,int256,bytes32),bytes)":"259982e5","beforeDonate(address,(address,address,uint24,int24,address),uint256,uint256,bytes)":"b6a8b0fa","beforeInitialize(address,(address,address,uint24,int24,address),uint160,bytes)":"3440d820","beforeRemoveLiquidity(address,(address,address,uint24,int24,address),(int24,int24,int256,bytes32),bytes)":"21d0ee70","beforeSwap(address,(address,address,uint24,int24,address),(bool,int256,uint160),bytes)":"575e24b4","getHookPermissions()":"c4e833ce","liquidityState(bytes32)":"b7a606a7","poolInfo(bytes32)":"8cebd942","poolManager()":"dc4c90d3","unlockCallback(bytes)":"91dd7346"},"id":109}