{"abi":[{"type":"constructor","inputs":[{"name":"_manager","type":"address","internalType":"contract IPoolManager"}],"stateMutability":"nonpayable"},{"type":"function","name":"manager","inputs":[],"outputs":[{"name":"","type":"address","internalType":"contract IPoolManager"}],"stateMutability":"view"},{"type":"function","name":"take","inputs":[{"name":"key","type":"tuple","internalType":"struct PoolKey","components":[{"name":"currency0","type":"address","internalType":"Currency"},{"name":"currency1","type":"address","internalType":"Currency"},{"name":"fee","type":"uint24","internalType":"uint24"},{"name":"tickSpacing","type":"int24","internalType":"int24"},{"name":"hooks","type":"address","internalType":"contract IHooks"}]},{"name":"amount0","type":"uint256","internalType":"uint256"},{"name":"amount1","type":"uint256","internalType":"uint256"}],"outputs":[],"stateMutability":"payable"},{"type":"function","name":"unlockCallback","inputs":[{"name":"rawData","type":"bytes","internalType":"bytes"}],"outputs":[{"name":"","type":"bytes","internalType":"bytes"}],"stateMutability":"nonpayable"}],"bytecode":{"object":"0x60a060405234801561000f575f80fd5b506040516112b53803806112b583398101604081905261002e9161003f565b6001600160a01b031660805261006c565b5f6020828403121561004f575f80fd5b81516001600160a01b0381168114610065575f80fd5b9392505050565b6080516112086100ad5f395f8181605d015281816101630152818161023b0152818161037c015281816105f20152818161066501526106a501526112085ff3fe608060405260043610610033575f3560e01c8063055419b614610037578063481c6a751461004c57806391dd7346146100a9575b5f80fd5b61004a610045366004610ed3565b6100d5565b005b348015610057575f80fd5b5061007f7f000000000000000000000000000000000000000000000000000000000000000081565b60405173ffffffffffffffffffffffffffffffffffffffff90911681526020015b60405180910390f35b3480156100b4575f80fd5b506100c86100c3366004610f04565b610221565b6040516100a09190610f92565b604080516080808201835233808352602080840188815284860188815260609586018881528751808501959095529151805173ffffffffffffffffffffffffffffffffffffffff908116868a0152938101518416858801529687015162ffffff16848601529486015160020b60a08401529490920151821660c0820152915160e083015291516101008201527f0000000000000000000000000000000000000000000000000000000000000000909116906348c8949190610120016040516020818303038152906040526040518263ffffffff1660e01b81526004016101bb9190610f92565b5f604051808303815f875af11580156101d6573d5f803e3d5ffd5b505050506040513d5f823e601f3d9081017fffffffffffffffffffffffffffffffffffffffffffffffffffffffffffffffe016820160405261021b9190810190610fe2565b50505050565b60603373ffffffffffffffffffffffffffffffffffffffff7f00000000000000000000000000000000000000000000000000000000000000001614610264575f80fd5b5f610271838501856110a8565b60408101519091501561029657602081015151815160408301516102969291906102de565b6060810151156102ba576102ba816020015160200151825f015183606001516102de565b604080515f6020820152016040516020818303038152906040529150505b92915050565b5f805f6102ec868630610624565b925092509250805f14610360576040517f08c379a000000000000000000000000000000000000000000000000000000000815260206004820152601d60248201527f64656c74614265666f7265206973206e6f7420657175616c20746f203000000060448201526064015b60405180910390fd5b6103a373ffffffffffffffffffffffffffffffffffffffff87167f000000000000000000000000000000000000000000000000000000000000000087875f6106d7565b5f805f6103b1898930610624565b9250925092506103c087610845565b6103c990611146565b600f0b811461045a576040517f08c379a000000000000000000000000000000000000000000000000000000000815260206004820152602d60248201527f64656c74614166746572206973206e6f7420657175616c20746f202d616d6f7560448201527f6e742e746f496e743132382829000000000000000000000000000000000000006064820152608401610357565b866104658785611182565b14610518576040517f08c379a000000000000000000000000000000000000000000000000000000000815260206004820152604c60248201527f74686520646966666572656e6365206265747765656e207573657242616c416660448201527f74657220616e64207573657242616c4265666f7265206973206e6f742065717560648201527f616c20746f20616d6f756e740000000000000000000000000000000000000000608482015260a401610357565b866105238387611182565b146105d6576040517f08c379a000000000000000000000000000000000000000000000000000000000815260206004820152604860248201527f74686520646966666572656e6365206265747765656e20706d42616c4265666f60448201527f726520616e6420706d42616c4166746572206973206e6f7420657175616c207460648201527f6f20616d6f756e74000000000000000000000000000000000000000000000000608482015260a401610357565b61061973ffffffffffffffffffffffffffffffffffffffff8a167f00000000000000000000000000000000000000000000000000000000000000008a8a5f610869565b505050505050505050565b5f808061064773ffffffffffffffffffffffffffffffffffffffff871686610c4f565b925061068973ffffffffffffffffffffffffffffffffffffffff87167f0000000000000000000000000000000000000000000000000000000000000000610c4f565b91506106cc73ffffffffffffffffffffffffffffffffffffffff7f0000000000000000000000000000000000000000000000000000000000000000168588610d1e565b905093509350939050565b8061076d576040517f0b0d9c0900000000000000000000000000000000000000000000000000000000815273ffffffffffffffffffffffffffffffffffffffff8681166004830152848116602483015260448201849052851690630b0d9c09906064015b5f604051808303815f87803b158015610752575f80fd5b505af1158015610764573d5f803e3d5ffd5b5050505061083e565b8373ffffffffffffffffffffffffffffffffffffffff1663156e29f6846107bd8873ffffffffffffffffffffffffffffffffffffffff1673ffffffffffffffffffffffffffffffffffffffff1690565b6040517fffffffff0000000000000000000000000000000000000000000000000000000060e085901b16815273ffffffffffffffffffffffffffffffffffffffff90921660048301526024820152604481018590526064015f604051808303815f87803b15801561082c575f80fd5b505af1158015610619573d5f803e3d5ffd5b5050505050565b5f6f80000000000000000000000000000000821061086557610865610dc1565b5090565b801561091c578373ffffffffffffffffffffffffffffffffffffffff1663f5298aca846108bf8873ffffffffffffffffffffffffffffffffffffffff1673ffffffffffffffffffffffffffffffffffffffff1690565b6040517fffffffff0000000000000000000000000000000000000000000000000000000060e085901b16815273ffffffffffffffffffffffffffffffffffffffff909216600483015260248201526044810185905260640161073b565b73ffffffffffffffffffffffffffffffffffffffff85166109cf576040517f6a256b2900000000000000000000000000000000000000000000000000000000815273ffffffffffffffffffffffffffffffffffffffff8681166004830152851690636a256b2990849060240160206040518083038185885af11580156109a4573d5f803e3d5ffd5b50505050506040513d601f19601f820116820180604052508101906109c99190611195565b5061083e565b6040517fa584119400000000000000000000000000000000000000000000000000000000815273ffffffffffffffffffffffffffffffffffffffff868116600483015285169063a5841194906024016020604051808303815f875af1158015610a3a573d5f803e3d5ffd5b505050506040513d601f19601f82011682018060405250810190610a5e9190611195565b5073ffffffffffffffffffffffffffffffffffffffff83163014610b20576040517f23b872dd00000000000000000000000000000000000000000000000000000000815273ffffffffffffffffffffffffffffffffffffffff84811660048301528581166024830152604482018490528616906323b872dd906064016020604051808303815f875af1158015610af6573d5f803e3d5ffd5b505050506040513d601f19601f82011682018060405250810190610b1a91906111ac565b50610bb8565b6040517fa9059cbb00000000000000000000000000000000000000000000000000000000815273ffffffffffffffffffffffffffffffffffffffff85811660048301526024820184905286169063a9059cbb906044016020604051808303815f875af1158015610b92573d5f803e3d5ffd5b505050506040513d601f19601f82011682018060405250810190610bb691906111ac565b505b6040517f6a256b2900000000000000000000000000000000000000000000000000000000815273ffffffffffffffffffffffffffffffffffffffff8681166004830152851690636a256b29906024016020604051808303815f875af1158015610c23573d5f803e3d5ffd5b505050506040513d601f19601f82011682018060405250810190610c479190611195565b505050505050565b5f73ffffffffffffffffffffffffffffffffffffffff8316610c89575073ffffffffffffffffffffffffffffffffffffffff8116316102d8565b6040517f70a0823100000000000000000000000000000000000000000000000000000000815273ffffffffffffffffffffffffffffffffffffffff83811660048301528416906370a0823190602401602060405180830381865afa158015610cf3573d5f803e3d5ffd5b505050506040513d601f19601f82011682018060405250810190610d179190611195565b90506102d8565b5f8281526020829052604080822090517ff135baaa0000000000000000000000000000000000000000000000000000000081526004810182905273ffffffffffffffffffffffffffffffffffffffff86169063f135baaa90602401602060405180830381865afa158015610d94573d5f803e3d5ffd5b505050506040513d601f19601f82011682018060405250810190610db89190611195565b95945050505050565b6393dafdf15f526004601cfd5b7f4e487b71000000000000000000000000000000000000000000000000000000005f52604160045260245ffd5b73ffffffffffffffffffffffffffffffffffffffff81168114610e1c575f80fd5b50565b8035610e2a81610dfb565b919050565b5f60a08284031215610e3f575f80fd5b60405160a0810181811067ffffffffffffffff82111715610e6257610e62610dce565b6040529050808235610e7381610dfb565b81526020830135610e8381610dfb565b6020820152604083013562ffffff81168114610e9d575f80fd5b60408201526060830135600281900b8114610eb6575f80fd5b6060820152610ec760808401610e1f565b60808201525092915050565b5f805f60e08486031215610ee5575f80fd5b610eef8585610e2f565b9560a0850135955060c0909401359392505050565b5f8060208385031215610f15575f80fd5b823567ffffffffffffffff80821115610f2c575f80fd5b818501915085601f830112610f3f575f80fd5b813581811115610f4d575f80fd5b866020828501011115610f5e575f80fd5b60209290920196919550909350505050565b5f5b83811015610f8a578181015183820152602001610f72565b50505f910152565b602081525f8251806020840152610fb0816040850160208701610f70565b601f017fffffffffffffffffffffffffffffffffffffffffffffffffffffffffffffffe0169190910160400192915050565b5f60208284031215610ff2575f80fd5b815167ffffffffffffffff80821115611009575f80fd5b818401915084601f83011261101c575f80fd5b81518181111561102e5761102e610dce565b604051601f82017fffffffffffffffffffffffffffffffffffffffffffffffffffffffffffffffe0908116603f0116810190838211818310171561107457611074610dce565b8160405282815287602084870101111561108c575f80fd5b61109d836020830160208801610f70565b979650505050505050565b5f61010082840312156110b9575f80fd5b6040516080810181811067ffffffffffffffff821117156110dc576110dc610dce565b60405282356110ea81610dfb565b81526110f98460208501610e2f565b602082015260c0830135604082015260e090920135606083015250919050565b7f4e487b71000000000000000000000000000000000000000000000000000000005f52601160045260245ffd5b5f81600f0b7fffffffffffffffffffffffffffffffff80000000000000000000000000000000810361117a5761117a611119565b5f0392915050565b818103818111156102d8576102d8611119565b5f602082840312156111a5575f80fd5b5051919050565b5f602082840312156111bc575f80fd5b815180151581146111cb575f80fd5b939250505056fea264697066735822122081f065e3c2334092a79c6adeffaad2adad207d242561dcf2da947aab2ecdb66764736f6c63430008180033","linkReferences":{}},"methodIdentifiers":{"manager()":"481c6a75","take((address,address,uint24,int24,address),uint256,uint256)":"055419b6","unlockCallback(bytes)":"91dd7346"},"id":87}