{"abi":[{"type":"constructor","inputs":[{"name":"controllerGasLimit","type":"uint256","internalType":"uint256"}],"stateMutability":"nonpayable"},{"type":"function","name":"MAX_TICK_SPACING","inputs":[],"outputs":[{"name":"","type":"int24","internalType":"int24"}],"stateMutability":"view"},{"type":"function","name":"MIN_TICK_SPACING","inputs":[],"outputs":[{"name":"","type":"int24","internalType":"int24"}],"stateMutability":"view"},{"type":"function","name":"allowance","inputs":[{"name":"","type":"address","internalType":"address"},{"name":"","type":"address","internalType":"address"},{"name":"","type":"uint256","internalType":"uint256"}],"outputs":[{"name":"","type":"uint256","internalType":"uint256"}],"stateMutability":"view"},{"type":"function","name":"approve","inputs":[{"name":"spender","type":"address","internalType":"address"},{"name":"id","type":"uint256","internalType":"uint256"},{"name":"amount","type":"uint256","internalType":"uint256"}],"outputs":[{"name":"","type":"bool","internalType":"bool"}],"stateMutability":"nonpayable"},{"type":"function","name":"balanceOf","inputs":[{"name":"","type":"address","internalType":"address"},{"name":"","type":"uint256","internalType":"uint256"}],"outputs":[{"name":"","type":"uint256","internalType":"uint256"}],"stateMutability":"view"},{"type":"function","name":"burn","inputs":[{"name":"from","type":"address","internalType":"address"},{"name":"id","type":"uint256","internalType":"uint256"},{"name":"amount","type":"uint256","internalType":"uint256"}],"outputs":[],"stateMutability":"nonpayable"},{"type":"function","name":"collectProtocolFees","inputs":[{"name":"recipient","type":"address","internalType":"address"},{"name":"currency","type":"address","internalType":"Currency"},{"name":"amount","type":"uint256","internalType":"uint256"}],"outputs":[{"name":"amountCollected","type":"uint256","internalType":"uint256"}],"stateMutability":"nonpayable"},{"type":"function","name":"donate","inputs":[{"name":"key","type":"tuple","internalType":"struct PoolKey","components":[{"name":"currency0","type":"address","internalType":"Currency"},{"name":"currency1","type":"address","internalType":"Currency"},{"name":"fee","type":"uint24","internalType":"uint24"},{"name":"tickSpacing","type":"int24","internalType":"int24"},{"name":"hooks","type":"address","internalType":"contract IHooks"}]},{"name":"amount0","type":"uint256","internalType":"uint256"},{"name":"amount1","type":"uint256","internalType":"uint256"},{"name":"hookData","type":"bytes","internalType":"bytes"}],"outputs":[{"name":"delta","type":"int256","internalType":"BalanceDelta"}],"stateMutability":"nonpayable"},{"type":"function","name":"extsload","inputs":[{"name":"slot","type":"bytes32","internalType":"bytes32"}],"outputs":[{"name":"","type":"bytes32","internalType":"bytes32"}],"stateMutability":"view"},{"type":"function","name":"extsload","inputs":[{"name":"startSlot","type":"bytes32","internalType":"bytes32"},{"name":"nSlots","type":"uint256","internalType":"uint256"}],"outputs":[{"name":"","type":"bytes","internalType":"bytes"}],"stateMutability":"view"},{"type":"function","name":"extsload","inputs":[{"name":"slots","type":"bytes32[]","internalType":"bytes32[]"}],"outputs":[{"name":"","type":"bytes32[]","internalType":"bytes32[]"}],"stateMutability":"view"},{"type":"function","name":"exttload","inputs":[{"name":"slots","type":"bytes32[]","internalType":"bytes32[]"}],"outputs":[{"name":"","type":"bytes32[]","internalType":"bytes32[]"}],"stateMutability":"view"},{"type":"function","name":"exttload","inputs":[{"name":"slot","type":"bytes32","internalType":"bytes32"}],"outputs":[{"name":"","type":"bytes32","internalType":"bytes32"}],"stateMutability":"view"},{"type":"function","name":"initialize","inputs":[{"name":"key","type":"tuple","internalType":"struct PoolKey","components":[{"name":"currency0","type":"address","internalType":"Currency"},{"name":"currency1","type":"address","internalType":"Currency"},{"name":"fee","type":"uint24","internalType":"uint24"},{"name":"tickSpacing","type":"int24","internalType":"int24"},{"name":"hooks","type":"address","internalType":"contract IHooks"}]},{"name":"sqrtPriceX96","type":"uint160","internalType":"uint160"},{"name":"hookData","type":"bytes","internalType":"bytes"}],"outputs":[{"name":"tick","type":"int24","internalType":"int24"}],"stateMutability":"nonpayable"},{"type":"function","name":"isOperator","inputs":[{"name":"","type":"address","internalType":"address"},{"name":"","type":"address","internalType":"address"}],"outputs":[{"name":"","type":"bool","internalType":"bool"}],"stateMutability":"view"},{"type":"function","name":"mint","inputs":[{"name":"to","type":"address","internalType":"address"},{"name":"id","type":"uint256","internalType":"uint256"},{"name":"amount","type":"uint256","internalType":"uint256"}],"outputs":[],"stateMutability":"nonpayable"},{"type":"function","name":"modifyLiquidity","inputs":[{"name":"key","type":"tuple","internalType":"struct PoolKey","components":[{"name":"currency0","type":"address","internalType":"Currency"},{"name":"currency1","type":"address","internalType":"Currency"},{"name":"fee","type":"uint24","internalType":"uint24"},{"name":"tickSpacing","type":"int24","internalType":"int24"},{"name":"hooks","type":"address","internalType":"contract IHooks"}]},{"name":"params","type":"tuple","internalType":"struct IPoolManager.ModifyLiquidityParams","components":[{"name":"tickLower","type":"int24","internalType":"int24"},{"name":"tickUpper","type":"int24","internalType":"int24"},{"name":"liquidityDelta","type":"int256","internalType":"int256"},{"name":"salt","type":"bytes32","internalType":"bytes32"}]},{"name":"hookData","type":"bytes","internalType":"bytes"}],"outputs":[{"name":"callerDelta","type":"int256","internalType":"BalanceDelta"},{"name":"feesAccrued","type":"int256","internalType":"BalanceDelta"}],"stateMutability":"nonpayable"},{"type":"function","name":"owner","inputs":[],"outputs":[{"name":"","type":"address","internalType":"address"}],"stateMutability":"view"},{"type":"function","name":"protocolFeeController","inputs":[],"outputs":[{"name":"","type":"address","internalType":"contract IProtocolFeeController"}],"stateMutability":"view"},{"type":"function","name":"protocolFeesAccrued","inputs":[{"name":"currency","type":"address","internalType":"Currency"}],"outputs":[{"name":"","type":"uint256","internalType":"uint256"}],"stateMutability":"view"},{"type":"function","name":"setOperator","inputs":[{"name":"operator","type":"address","internalType":"address"},{"name":"approved","type":"bool","internalType":"bool"}],"outputs":[{"name":"","type":"bool","internalType":"bool"}],"stateMutability":"nonpayable"},{"type":"function","name":"setProtocolFee","inputs":[{"name":"key","type":"tuple","internalType":"struct PoolKey","components":[{"name":"currency0","type":"address","internalType":"Currency"},{"name":"currency1","type":"address","internalType":"Currency"},{"name":"fee","type":"uint24","internalType":"uint24"},{"name":"tickSpacing","type":"int24","internalType":"int24"},{"name":"hooks","type":"address","internalType":"contract IHooks"}]},{"name":"newProtocolFee","type":"uint24","internalType":"uint24"}],"outputs":[],"stateMutability":"nonpayable"},{"type":"function","name":"setProtocolFeeController","inputs":[{"name":"controller","type":"address","internalType":"contract IProtocolFeeController"}],"outputs":[],"stateMutability":"nonpayable"},{"type":"function","name":"settle","inputs":[{"name":"currency","type":"address","internalType":"Currency"}],"outputs":[{"name":"paid","type":"uint256","internalType":"uint256"}],"stateMutability":"payable"},{"type":"function","name":"supportsInterface","inputs":[{"name":"interfaceId","type":"bytes4","internalType":"bytes4"}],"outputs":[{"name":"","type":"bool","internalType":"bool"}],"stateMutability":"view"},{"type":"function","name":"swap","inputs":[{"name":"key","type":"tuple","internalType":"struct PoolKey","components":[{"name":"currency0","type":"address","internalType":"Currency"},{"name":"currency1","type":"address","internalType":"Currency"},{"name":"fee","type":"uint24","internalType":"uint24"},{"name":"tickSpacing","type":"int24","internalType":"int24"},{"name":"hooks","type":"address","internalType":"contract IHooks"}]},{"name":"params","type":"tuple","internalType":"struct IPoolManager.SwapParams","components":[{"name":"zeroForOne","type":"bool","internalType":"bool"},{"name":"amountSpecified","type":"int256","internalType":"int256"},{"name":"sqrtPriceLimitX96","type":"uint160","internalType":"uint160"}]},{"name":"hookData","type":"bytes","internalType":"bytes"}],"outputs":[{"name":"swapDelta","type":"int256","internalType":"BalanceDelta"}],"stateMutability":"nonpayable"},{"type":"function","name":"sync","inputs":[{"name":"currency","type":"address","internalType":"Currency"}],"outputs":[{"name":"balance","type":"uint256","internalType":"uint256"}],"stateMutability":"nonpayable"},{"type":"function","name":"take","inputs":[{"name":"currency","type":"address","internalType":"Currency"},{"name":"to","type":"address","internalType":"address"},{"name":"amount","type":"uint256","internalType":"uint256"}],"outputs":[],"stateMutability":"nonpayable"},{"type":"function","name":"transfer","inputs":[{"name":"receiver","type":"address","internalType":"address"},{"name":"id","type":"uint256","internalType":"uint256"},{"name":"amount","type":"uint256","internalType":"uint256"}],"outputs":[{"name":"","type":"bool","internalType":"bool"}],"stateMutability":"nonpayable"},{"type":"function","name":"transferFrom","inputs":[{"name":"sender","type":"address","internalType":"address"},{"name":"receiver","type":"address","internalType":"address"},{"name":"id","type":"uint256","internalType":"uint256"},{"name":"amount","type":"uint256","internalType":"uint256"}],"outputs":[{"name":"","type":"bool","internalType":"bool"}],"stateMutability":"nonpayable"},{"type":"function","name":"transferOwnership","inputs":[{"name":"newOwner","type":"address","internalType":"address"}],"outputs":[],"stateMutability":"nonpayable"},{"type":"function","name":"unlock","inputs":[{"name":"data","type":"bytes","internalType":"bytes"}],"outputs":[{"name":"result","type":"bytes","internalType":"bytes"}],"stateMutability":"nonpayable"},{"type":"function","name":"updateDynamicLPFee","inputs":[{"name":"key","type":"tuple","internalType":"struct PoolKey","components":[{"name":"currency0","type":"address","internalType":"Currency"},{"name":"currency1","type":"address","internalType":"Currency"},{"name":"fee","type":"uint24","internalType":"uint24"},{"name":"tickSpacing","type":"int24","internalType":"int24"},{"name":"hooks","type":"address","internalType":"contract IHooks"}]},{"name":"newDynamicLPFee","type":"uint24","internalType":"uint24"}],"outputs":[],"stateMutability":"nonpayable"},{"type":"event","name":"Approval","inputs":[{"name":"owner","type":"address","indexed":true,"internalType":"address"},{"name":"spender","type":"address","indexed":true,"internalType":"address"},{"name":"id","type":"uint256","indexed":true,"internalType":"uint256"},{"name":"amount","type":"uint256","indexed":false,"internalType":"uint256"}],"anonymous":false},{"type":"event","name":"Initialize","inputs":[{"name":"id","type":"bytes32","indexed":false,"internalType":"PoolId"},{"name":"currency0","type":"address","indexed":true,"internalType":"Currency"},{"name":"currency1","type":"address","indexed":true,"internalType":"Currency"},{"name":"fee","type":"uint24","indexed":false,"internalType":"uint24"},{"name":"tickSpacing","type":"int24","indexed":false,"internalType":"int24"},{"name":"hooks","type":"address","indexed":false,"internalType":"contract IHooks"}],"anonymous":false},{"type":"event","name":"ModifyLiquidity","inputs":[{"name":"id","type":"bytes32","indexed":true,"internalType":"PoolId"},{"name":"sender","type":"address","indexed":true,"internalType":"address"},{"name":"tickLower","type":"int24","indexed":false,"internalType":"int24"},{"name":"tickUpper","type":"int24","indexed":false,"internalType":"int24"},{"name":"liquidityDelta","type":"int256","indexed":false,"internalType":"int256"}],"anonymous":false},{"type":"event","name":"OperatorSet","inputs":[{"name":"owner","type":"address","indexed":true,"internalType":"address"},{"name":"operator","type":"address","indexed":true,"internalType":"address"},{"name":"approved","type":"bool","indexed":false,"internalType":"bool"}],"anonymous":false},{"type":"event","name":"OwnershipTransferred","inputs":[{"name":"user","type":"address","indexed":true,"internalType":"address"},{"name":"newOwner","type":"address","indexed":true,"internalType":"address"}],"anonymous":false},{"type":"event","name":"ProtocolFeeControllerUpdated","inputs":[{"name":"protocolFeeController","type":"address","indexed":false,"internalType":"address"}],"anonymous":false},{"type":"event","name":"ProtocolFeeUpdated","inputs":[{"name":"id","type":"bytes32","indexed":true,"internalType":"PoolId"},{"name":"protocolFee","type":"uint24","indexed":false,"internalType":"uint24"}],"anonymous":false},{"type":"event","name":"Swap","inputs":[{"name":"id","type":"bytes32","indexed":true,"internalType":"PoolId"},{"name":"sender","type":"address","indexed":false,"internalType":"address"},{"name":"amount0","type":"int128","indexed":false,"internalType":"int128"},{"name":"amount1","type":"int128","indexed":false,"internalType":"int128"},{"name":"sqrtPriceX96","type":"uint160","indexed":false,"internalType":"uint160"},{"name":"liquidity","type":"uint128","indexed":false,"internalType":"uint128"},{"name":"tick","type":"int24","indexed":false,"internalType":"int24"},{"name":"fee","type":"uint24","indexed":false,"internalType":"uint24"}],"anonymous":false},{"type":"event","name":"Transfer","inputs":[{"name":"caller","type":"address","indexed":false,"internalType":"address"},{"name":"from","type":"address","indexed":true,"internalType":"address"},{"name":"to","type":"address","indexed":true,"internalType":"address"},{"name":"id","type":"uint256","indexed":true,"internalType":"uint256"},{"name":"amount","type":"uint256","indexed":false,"internalType":"uint256"}],"anonymous":false},{"type":"error","name":"AlreadyUnlocked","inputs":[]},{"type":"error","name":"CurrenciesOutOfOrderOrEqual","inputs":[]},{"type":"error","name":"CurrencyNotSettled","inputs":[]},{"type":"error","name":"DelegateCallNotAllowed","inputs":[]},{"type":"error","name":"InvalidCaller","inputs":[]},{"type":"error","name":"InvalidProtocolFee","inputs":[]},{"type":"error","name":"ManagerLocked","inputs":[]},{"type":"error","name":"NonZeroNativeValue","inputs":[]},{"type":"error","name":"PoolNotInitialized","inputs":[]},{"type":"error","name":"ProtocolFeeCannotBeFetched","inputs":[]},{"type":"error","name":"SwapAmountCannotBeZero","inputs":[]},{"type":"error","name":"TickSpacingTooLarge","inputs":[]},{"type":"error","name":"TickSpacingTooSmall","inputs":[]},{"type":"error","name":"UnauthorizedDynamicLPFeeUpdate","inputs":[]}],"bytecode":{"object":"0x60c060405234801562000010575f80fd5b50604051620064cd380380620064cd833981016040819052620000339162000081565b5f80546001600160a01b031916339081178255604051839282917f8be0079c531659141344cd1fd0a4f28419497f9722a3daafe3b4186f6b6457e0908290a350608052503060a05262000099565b5f6020828403121562000092575f80fd5b5051919050565b60805160a05161640b620000c25f395f611fc901525f8181612a030152612a77015261640b5ff3fe6080604052600436106101f4575f3560e01c806360460f0611610117578063a5841194116100ac578063f135baaa1161007c578063f3cd914c11610062578063f3cd914c14610678578063f5298aca14610697578063fe99049a146106b6575f80fd5b8063f135baaa1461063a578063f2fde38b14610659575f80fd5b8063a584119414610597578063b6363cf2146105b6578063dbd035ff146105ef578063f02de3b21461060e575f80fd5b80638161b874116100e75780638161b874146104d15780638da5cb5b146104f057806397e8cd4e146105405780639bf6645f1461056b575f80fd5b806360460f061461046b578063695c5bf5146104805780636a256b291461049f5780637e87ce7d146104b2575f80fd5b80632d7713891161018d578063527596511161015d57806352759651146103bd578063558a7297146103dc578063598af9e7146103fb5780635a6bcfda14610437575f80fd5b80632d7713891461033457806335fd631a14610353578063426a84931461037f57806348c894911461039e575f80fd5b80630b0d9c09116101c85780630b0d9c09146102b6578063156e29f6146102d75780631e2eaeaf146102f6578063234266d714610315575f80fd5b8062fdd58e146101f857806301ffc9a71461024157806307eff0dd14610270578063095bcdb614610297575b5f80fd5b348015610203575f80fd5b5061022e6102123660046154af565b600460209081525f928352604080842090915290825290205481565b6040519081526020015b60405180910390f35b34801561024c575f80fd5b5061026061025b3660046154d9565b6106d5565b6040519015158152602001610238565b34801561027b575f80fd5b50610284600181565b60405160029190910b8152602001610238565b3480156102a2575f80fd5b506102606102b1366004615518565b61076d565b3480156102c1575f80fd5b506102d56102d036600461554a565b610841565b005b3480156102e2575f80fd5b506102d56102f1366004615518565b6108cb565b348015610301575f80fd5b5061022e610310366004615588565b610932565b348015610320575f80fd5b5061022e61032f3660046156f3565b61093c565b34801561033f575f80fd5b506102d561034e366004615758565b610a2a565b34801561035e575f80fd5b5061037261036d366004615773565b610b28565b60405161023891906157b5565b34801561038a575f80fd5b50610260610399366004615518565b610b58565b3480156103a9575f80fd5b506103726103b8366004615805565b610bc9565b3480156103c8575f80fd5b506102d56103d7366004615844565b610d23565b3480156103e7575f80fd5b506102606103f6366004615885565b610dc5565b348015610406575f80fd5b5061022e61041536600461554a565b600560209081525f938452604080852082529284528284209052825290205481565b348015610442575f80fd5b506104566104513660046158af565b610e5f565b60408051928352602083019190915201610238565b348015610476575f80fd5b50610284617fff81565b34801561048b575f80fd5b5061028461049a366004615970565b61104a565b61022e6104ad366004615758565b6112d2565b3480156104bd575f80fd5b506102d56104cc366004615844565b6113c8565b3480156104dc575f80fd5b5061022e6104eb36600461554a565b6114b3565b3480156104fb575f80fd5b505f5461051b9073ffffffffffffffffffffffffffffffffffffffff1681565b60405173ffffffffffffffffffffffffffffffffffffffff9091168152602001610238565b34801561054b575f80fd5b5061022e61055a366004615758565b60016020525f908152604090205481565b348015610576575f80fd5b5061058a6105853660046159b8565b61158f565b6040516102389190615a27565b3480156105a2575f80fd5b5061022e6105b1366004615758565b6115bc565b3480156105c1575f80fd5b506102606105d0366004615a6a565b600360209081525f928352604080842090915290825290205460ff1681565b3480156105fa575f80fd5b5061058a6106093660046159b8565b6115fe565b348015610619575f80fd5b5060025461051b9073ffffffffffffffffffffffffffffffffffffffff1681565b348015610645575f80fd5b5061022e610654366004615588565b61162a565b348015610664575f80fd5b506102d5610673366004615758565b611634565b348015610683575f80fd5b5061022e610692366004615aa1565b611723565b3480156106a2575f80fd5b506102d56106b1366004615518565b6118cd565b3480156106c1575f80fd5b506102606106d0366004615b6d565b611934565b5f7f01ffc9a7000000000000000000000000000000000000000000000000000000007fffffffff000000000000000000000000000000000000000000000000000000008316148061076757507f0f632fb3000000000000000000000000000000000000000000000000000000007fffffffff000000000000000000000000000000000000000000000000000000008316145b92915050565b335f908152600460209081526040808320858452909152812080548391908390610798908490615bdd565b909155505073ffffffffffffffffffffffffffffffffffffffff84165f908152600460209081526040808320868452909152812080548492906107dc908490615bf0565b9091555050604080513380825260208201859052859273ffffffffffffffffffffffffffffffffffffffff8816927f1b3d7edb2e9c0b0e7c525b20aaaef0f5940d2ed71663c7d39266ecafac72885991015b60405180910390a45060015b9392505050565b7fc090fc4683624cfc3884e9d8de5eca132f2d0ec062aff75d43c0465d5ceeab235c610890576108907f54e3ca0d00000000000000000000000000000000000000000000000000000000611b20565b6108a58361089d83611b28565b5f0333611b4c565b6108c673ffffffffffffffffffffffffffffffffffffffff84168383611bda565b505050565b7fc090fc4683624cfc3884e9d8de5eca132f2d0ec062aff75d43c0465d5ceeab235c61091a5761091a7f54e3ca0d00000000000000000000000000000000000000000000000000000000611b20565b6109278261089d83611b28565b6108c6838383611c57565b5f81545f5260205ff35b5f7fc090fc4683624cfc3884e9d8de5eca132f2d0ec062aff75d43c0465d5ceeab235c61098c5761098c7f54e3ca0d00000000000000000000000000000000000000000000000000000000611b20565b5f6109ab61099b8860a0902090565b5f90815260066020526040902090565b90506109b681611cf6565b60808701516109df9073ffffffffffffffffffffffffffffffffffffffff168888888888611d40565b6109ea818787611e32565b91506109f7878333611f3c565b6080870151610a209073ffffffffffffffffffffffffffffffffffffffff168888888888611f64565b5095945050505050565b5f5473ffffffffffffffffffffffffffffffffffffffff163314610aaf576040517f08c379a000000000000000000000000000000000000000000000000000000000815260206004820152600c60248201527f554e415554484f52495a4544000000000000000000000000000000000000000060448201526064015b60405180910390fd5b600280547fffffffffffffffffffffffff00000000000000000000000000000000000000001673ffffffffffffffffffffffffffffffffffffffff83169081179091556040519081527fb4bd8ef53df690b9943d3318996006dbb82a25f54719d8c8035b516a2a5b8acc9060200160405180910390a150565b606060205f528160051b6020528160051b60400160405b84548152600190940193602001818110610b3f5750805ff35b335f81815260056020908152604080832073ffffffffffffffffffffffffffffffffffffffff881680855290835281842087855290925280832085905551919285927fb3fd5071835887567a0671151121894ddccc2842f1d10bedad13e0d17cace9a79061082e9087815260200190565b6060610bd3611fb1565b7fc090fc4683624cfc3884e9d8de5eca132f2d0ec062aff75d43c0465d5ceeab235c15610c2357610c237f5090d6c600000000000000000000000000000000000000000000000000000000611b20565b610c2b612019565b6040517f91dd734600000000000000000000000000000000000000000000000000000000815233906391dd734690610c699086908690600401615c4a565b5f604051808303815f875af1158015610c84573d5f803e3d5ffd5b505050506040513d5f823e601f3d9081017fffffffffffffffffffffffffffffffffffffffffffffffffffffffffffffffe0168201604052610cc99190810190615c5d565b90507f7d4b3164c6e45b97e7d87b7125a44c5828d005af88f9d751cfd78729c5d99a0b5c15610d1b57610d1b7f5212cba100000000000000000000000000000000000000000000000000000000611b20565b610767612041565b604082015162ffffff1662800000141580610d6e5750816080015173ffffffffffffffffffffffffffffffffffffffff163373ffffffffffffffffffffffffffffffffffffffff1614155b15610d9c57610d9c7f30d2164100000000000000000000000000000000000000000000000000000000611b20565b610daa8162ffffff16612068565b60a082205f8181526006602052604090206108c690836120a1565b335f81815260036020908152604080832073ffffffffffffffffffffffffffffffffffffffff871680855290835281842080547fffffffffffffffffffffffffffffffffffffffffffffffffffffffffffffff001687151590811790915591519182529293917fceb576d9f15e4e200fdb5096d64d5dfd667e16def20c1eefd14256d8e3faa267910160405180910390a350600192915050565b5f807fc090fc4683624cfc3884e9d8de5eca132f2d0ec062aff75d43c0465d5ceeab235c610eb057610eb07f54e3ca0d00000000000000000000000000000000000000000000000000000000611b20565b60a086205f818152600660205260409020610eca81611cf6565b6080880151610ef29073ffffffffffffffffffffffffffffffffffffffff16898989896120fa565b5f610f666040518060c001604052803373ffffffffffffffffffffffffffffffffffffffff1681526020018a5f015160020b81526020018a6020015160020b8152602001610f438b6040015161223f565b600f0b81526060808d015160020b60208301528b01516040909101528390612266565b94509050610f74818561268f565b94503373ffffffffffffffffffffffffffffffffffffffff16837f541c041c2cce48e614b3de043c9280f06b6164c0a1741649e2de3c3d375f79748a5f01518b602001518c60400151604051610fe593929190600293840b81529190920b6020820152604081019190915260600190565b60405180910390a360808901515f906110189073ffffffffffffffffffffffffffffffffffffffff168b8b898c8c6126c2565b90965090508015611032576110328a828c60800151611f3c565b61103d8a8733611f3c565b5050505094509492505050565b5f611053611fb1565b6060850151617fff60029190910b1315611090576110907fb02b5dc200000000000000000000000000000000000000000000000000000000611b20565b600160020b856060015160020b12156110cc576110cc7f16fe769600000000000000000000000000000000000000000000000000000000611b20565b8451602086015173ffffffffffffffffffffffffffffffffffffffff90811691161061111b5761111b7feaa6c6eb00000000000000000000000000000000000000000000000000000000611b20565b61114c8560400151866080015173ffffffffffffffffffffffffffffffffffffffff1661289490919063ffffffff16565b611180576080850151611180907fe65af6a00000000000000000000000000000000000000000000000000000000090612962565b5f611193866040015162ffffff1661296e565b60808701519091506111be9073ffffffffffffffffffffffffffffffffffffffff1687878787612993565b60a086205f6111cc886129df565b5f8481526006602052604090209092506111e99150888386612bd0565b60808901519094506112159073ffffffffffffffffffffffffffffffffffffffff168989878a8a612cab565b876020015173ffffffffffffffffffffffffffffffffffffffff16885f015173ffffffffffffffffffffffffffffffffffffffff167f3fd553db44f207b1f41348cfc4d251860814af9eadc470e8e7895e4d120511f4848b604001518c606001518d608001516040516112bf949392919093845262ffffff92909216602084015260020b604083015273ffffffffffffffffffffffffffffffffffffffff16606082015260800190565b60405180910390a3505050949350505050565b5f7fc090fc4683624cfc3884e9d8de5eca132f2d0ec062aff75d43c0465d5ceeab235c611322576113227f54e3ca0d00000000000000000000000000000000000000000000000000000000611b20565b73ffffffffffffffffffffffffffffffffffffffff82166113445750346113b0565b3415611373576113737f19d245cf00000000000000000000000000000000000000000000000000000000611b20565b5f6113938373ffffffffffffffffffffffffffffffffffffffff16612cf9565b90505f61139f846115bc565b90506113ab8282615bdd565b925050505b6113c3826113bd83611b28565b33611b4c565b919050565b60025473ffffffffffffffffffffffffffffffffffffffff163314611410576114107f48f5c3ed00000000000000000000000000000000000000000000000000000000611b20565b6103e9610fff821610623e900062ffffff83161016611452576114527fba97f83800000000000000000000000000000000000000000000000000000000611b20565b60a082206114748261146e835f90815260066020526040902090565b90612d8b565b60405162ffffff8316815281907fe9c42593e71f84403b84352cd168d693e2c9fcd1fdbcc3feb21d92b43e6696f99060200160405180910390a2505050565b6002545f9073ffffffffffffffffffffffffffffffffffffffff1633146114fd576114fd7f48f5c3ed00000000000000000000000000000000000000000000000000000000611b20565b8115611509578161152f565b73ffffffffffffffffffffffffffffffffffffffff83165f908152600160205260409020545b73ffffffffffffffffffffffffffffffffffffffff84165f90815260016020526040812080549293508392909190611568908490615bdd565b9091555061083a905073ffffffffffffffffffffffffffffffffffffffff84168583611bda565b6060604060045f378160051b6040018360405b81355c8152602091820191018281106115a2575b5050805ff35b5f6115dc8273ffffffffffffffffffffffffffffffffffffffff16612ddf565b90506113c373ffffffffffffffffffffffffffffffffffffffff831682612e8e565b6060604060045f378160051b6040018360405b813554815260209182019101828110156115b657611611565b5f815c5f5260205ff35b5f5473ffffffffffffffffffffffffffffffffffffffff1633146116b4576040517f08c379a000000000000000000000000000000000000000000000000000000000815260206004820152600c60248201527f554e415554484f52495a454400000000000000000000000000000000000000006044820152606401610aa6565b5f80547fffffffffffffffffffffffff00000000000000000000000000000000000000001673ffffffffffffffffffffffffffffffffffffffff83169081178255604051909133917f8be0079c531659141344cd1fd0a4f28419497f9722a3daafe3b4186f6b6457e09190a350565b5f7fc090fc4683624cfc3884e9d8de5eca132f2d0ec062aff75d43c0465d5ceeab235c611773576117737f54e3ca0d00000000000000000000000000000000000000000000000000000000611b20565b83602001515f036117a7576117a77fbe8b850700000000000000000000000000000000000000000000000000000000611b20565b60a085205f8181526006602052604090206117c181611cf6565b60808701515f90819081906117ef9073ffffffffffffffffffffffffffffffffffffffff168b8b8b8b612eee565b80935081955082945050505061186b84866040518060a001604052808e6060015160020b81526020018d5f0151151581526020018681526020018d6040015173ffffffffffffffffffffffffffffffffffffffff1681526020018562ffffff168152508c5f0151611864578d6020015161306f565b8d5161306f565b60808b01519096505f925061189c915073ffffffffffffffffffffffffffffffffffffffff168a8a888b8b8861318c565b909550905080156118b6576118b689828b60800151611f3c565b6118c1898633611f3c565b50505050949350505050565b7fc090fc4683624cfc3884e9d8de5eca132f2d0ec062aff75d43c0465d5ceeab235c61191c5761191c7f54e3ca0d00000000000000000000000000000000000000000000000000000000611b20565b611929826113bd83611b28565b6108c6838383613327565b5f3373ffffffffffffffffffffffffffffffffffffffff86161480159061198b575073ffffffffffffffffffffffffffffffffffffffff85165f90815260036020908152604080832033845290915290205460ff16155b15611a345773ffffffffffffffffffffffffffffffffffffffff85165f90815260056020908152604080832033845282528083208684529091529020547fffffffffffffffffffffffffffffffffffffffffffffffffffffffffffffffff8114611a32576119f98382615bdd565b73ffffffffffffffffffffffffffffffffffffffff87165f90815260056020908152604080832033845282528083208884529091529020555b505b73ffffffffffffffffffffffffffffffffffffffff85165f90815260046020908152604080832086845290915281208054849290611a73908490615bdd565b909155505073ffffffffffffffffffffffffffffffffffffffff84165f90815260046020908152604080832086845290915281208054849290611ab7908490615bf0565b90915550506040805133815260208101849052849173ffffffffffffffffffffffffffffffffffffffff80881692908916917f1b3d7edb2e9c0b0e7c525b20aaaef0f5940d2ed71663c7d39266ecafac728859910160405180910390a45060015b949350505050565b805f5260045ffd5b5f6f800000000000000000000000000000008210611b4857611b4861343e565b5090565b81600f0b5f03611b5b57505050565b5f81815273ffffffffffffffffffffffffffffffffffffffff8416602052604081205c90611b8d600f85900b83615d18565b9050805f03611ba357611b9e61344b565b611bb2565b815f03611bb257611bb2613497565b611bd373ffffffffffffffffffffffffffffffffffffffff861684836134c4565b5050505050565b73ffffffffffffffffffffffffffffffffffffffff8316611c0e575f805f8084865af16108c65763f4b3b1bc5f526004601cfd5b81601452806034526fa9059cbb0000000000000000000000005f5260205f604460105f875af13d1560015f51141716611c4e5763f27f64e45f526004601cfd5b5f603452505050565b73ffffffffffffffffffffffffffffffffffffffff83165f90815260046020908152604080832085845290915281208054839290611c96908490615bf0565b90915550506040805133815260208101839052839173ffffffffffffffffffffffffffffffffffffffff8616915f917f1b3d7edb2e9c0b0e7c525b20aaaef0f5940d2ed71663c7d39266ecafac72885991015b60405180910390a4505050565b805473ffffffffffffffffffffffffffffffffffffffff165f03611d3d57611d3d7f486aa30700000000000000000000000000000000000000000000000000000000611b20565b50565b853373ffffffffffffffffffffffffffffffffffffffff821614611e29576020871615611e2957611e2763b6a8b0fa60e01b338888888888604051602401611d8d96959493929190615d3f565b604080517fffffffffffffffffffffffffffffffffffffffffffffffffffffffffffffffe08184030181529190526020810180517bffffffffffffffffffffffffffffffffffffffffffffffffffffffff167fffffffff000000000000000000000000000000000000000000000000000000009093169290921790915273ffffffffffffffffffffffffffffffffffffffff8916906134da565b505b50505050505050565b60038301545f906fffffffffffffffffffffffffffffffff16808203611e7b57611e7b7fa74f97ab00000000000000000000000000000000000000000000000000000000611b20565b611eb2611e8785611b28565b5f03611e9285611b28565b5f0360809190911b6fffffffffffffffffffffffffffffffff9091161790565b91508315611ef457611ee884700100000000000000000000000000000000836fffffffffffffffffffffffffffffffff166135a4565b60018601805490910190555b8215611f3457611f2883700100000000000000000000000000000000836fffffffffffffffffffffffffffffffff166135a4565b60028601805490910190555b509392505050565b8251611f5290611f4c8460801d90565b83611b4c565b6108c68360200151611f4c84600f0b90565b853373ffffffffffffffffffffffffffffffffffffffff821614611e29576010871615611e2957611e2763e1b4af6960e01b338888888888604051602401611d8d96959493929190615d3f565b3073ffffffffffffffffffffffffffffffffffffffff7f00000000000000000000000000000000000000000000000000000000000000001614612017576120177f0d89438e00000000000000000000000000000000000000000000000000000000611b20565b565b7fc090fc4683624cfc3884e9d8de5eca132f2d0ec062aff75d43c0465d5ceeab236001815d50565b7fc090fc4683624cfc3884e9d8de5eca132f2d0ec062aff75d43c0465d5ceeab235f815d50565b620f424062ffffff82161115611d3d57611d3d7ffc5bee1200000000000000000000000000000000000000000000000000000000611b20565b6120aa82611cf6565b81547fffffff000000ffffffffffffffffffffffffffffffffffffffffffffffffffff167cffffff000000000000000000000000000000000000000000000000000060d083901b16175b90915550565b843373ffffffffffffffffffffffffffffffffffffffff821614612237575f846040015113801561212e5750610800861615155b156121f7576121f163259982e560e01b3387878787604051602401612157959493929190615dd8565b604080517fffffffffffffffffffffffffffffffffffffffffffffffffffffffffffffffe08184030181529190526020810180517bffffffffffffffffffffffffffffffffffffffffffffffffffffffff167fffffffff000000000000000000000000000000000000000000000000000000009093169290921790915273ffffffffffffffffffffffffffffffffffffffff8816906134da565b50612237565b5f84604001511315801561220e5750610200861615155b1561223757611e296321d0ee7060e01b3387878787604051602401612157959493929190615dd8565b505050505050565b5f6f80000000000000000000000000000000820160801c61225e575090565b6113c361343e565b6060810151602082015160408301515f9283929091612285828261365f565b604080516080810182525f80825260208201819052918101829052606081019190915283600f0b5f14612454576122be8884865f61372a565b6fffffffffffffffffffffffffffffffff166020830152151581526122e6888386600161372a565b6fffffffffffffffffffffffffffffffff166060830152151560408201525f600f85900b12612419575f61236188608001517ffffffffffffffffffffffffffffffffffffffffffffffffffffffffffff276188190058102620d89e8829005820203056001016fffffffffffffffffffffffffffffffff0490565b9050806fffffffffffffffffffffffffffffffff1682602001516fffffffffffffffffffffffffffffffff1611156123bd576123bd7fb8e3c3850000000000000000000000000000000000000000000000000000000085612962565b806fffffffffffffffffffffffffffffffff1682606001516fffffffffffffffffffffffffffffffff161115612417576124177fb8e3c3850000000000000000000000000000000000000000000000000000000084612962565b505b8051156124355760808701516124359060058a019085906137ed565b8060400151156124545760808701516124549060058a019084906137ed565b5f806124618a868661382f565b8a5160a08c01516026908152600688815260038a90525f928352603a600c20918390529082528d0160205260408120929450909250806124a3838a87876138e3565b915091506124d86124b383611b28565b6124bc83611b28565b6fffffffffffffffffffffffffffffffff1660809190911b1790565b995050505050505f84600f0b12156125415780511561251457600283810b5f90815260048a016020526040812081815560018101829055909101555b80604001511561254157600282810b5f90815260048a016020526040812081815560018101829055909101555b5082600f0b5f146126855786545f8061255d8360a01c60020b90565b73ffffffffffffffffffffffffffffffffffffffff8416915091508460020b8260020b12156125b9576125b26125ac6125a761259888613a14565b6125a188613a14565b8a613cf1565b61223f565b60801b90565b9750612681565b8360020b8260020b121561265c576125f06125da6125a7836125a188613a14565b6124bc6125a76125e989613a14565b858b613d29565b60038b0154909850612614906fffffffffffffffffffffffffffffffff1687613d55565b60038b0180547fffffffffffffffffffffffffffffffff00000000000000000000000000000000166fffffffffffffffffffffffffffffffff92909216919091179055612681565b61267e5f6124bc6125a761266f89613a14565b61267889613a14565b8b613d29565b97505b5050505b5050509250929050565b5f608082811d9084901d01600f83810b9085900b016126b96126b08361223f565b6124bc8361223f565b95945050505050565b5f8073ffffffffffffffffffffffffffffffffffffffff881633036126eb57508390505f612889565b8491505f866040015113156127d1576104008816156127cc576127bd33888888888860405160240161272296959493929190615e9f565b604080517fffffffffffffffffffffffffffffffffffffffffffffffffffffffffffffffe08184030181529190526020810180517bffffffffffffffffffffffffffffffffffffffffffffffffffffffff167f5a2a81000000000000000000000000000000000000000000000000000000000017905260028a1615155b73ffffffffffffffffffffffffffffffffffffffff8b169190613d6f565b90506127c98282613d97565b91505b612889565b6101008816156128895761287a3388888888886040516024016127f996959493929190615e9f565b604080517fffffffffffffffffffffffffffffffffffffffffffffffffffffffffffffffe08184030181529190526020810180517bffffffffffffffffffffffffffffffffffffffffffffffffffffffff167f8db2b6520000000000000000000000000000000000000000000000000000000017905260018a16151561279f565b90506128868282613d97565b91505b965096945050505050565b5f608083161580156128a857506008831615155b156128b457505f610767565b604083161580156128c757506004831615155b156128d357505f610767565b61040083161580156128e757506002831615155b156128f357505f610767565b610100831615801561290757506001831615155b1561291357505f610767565b73ffffffffffffffffffffffffffffffffffffffff83161561295157613fff831615158061294c57506280000062ffffff83161461083a565b61083a565b5062ffffff16628000001415919050565b815f528060045260245ffd5b5f6280000062ffffff83160361298557505f919050565b611b488262ffffff16612068565b843373ffffffffffffffffffffffffffffffffffffffff8216146122375761200086161561223757611e29633440d82060e01b3387878787604051602401612157959493929190615f61565b6002545f90819073ffffffffffffffffffffffffffffffffffffffff1615612bcb577f00000000000000000000000000000000000000000000000000000000000000005a1015612a5257612a527f1ee4970200000000000000000000000000000000000000000000000000000000611b20565b6002546040515f91829173ffffffffffffffffffffffffffffffffffffffff909116907f000000000000000000000000000000000000000000000000000000000000000090612aa5908890602401615ff6565b604080517fffffffffffffffffffffffffffffffffffffffffffffffffffffffffffffffe08184030181529181526020820180517bffffffffffffffffffffffffffffffffffffffffffffffffffffffff167f553bfc370000000000000000000000000000000000000000000000000000000017905251612b269190616053565b5f604051808303815f8787f1925050503d805f8114612b60576040519150601f19603f3d011682016040523d82523d5f602084013e612b65565b606091505b5091509150811580612b78575060208151115b15612b8957505f9485945092505050565b602081015162ffffff811681148015612bb357506103e9610fff821610623e900062ffffff831610165b612bbe575f80612bc2565b6001815b90955093505050505b915091565b83545f9073ffffffffffffffffffffffffffffffffffffffff1615612c1857612c187f7983c05100000000000000000000000000000000000000000000000000000000611b20565b612c2184613db8565b90507cffffff000000000000000000000000000000000000000000000000000060d083901b1676ffffff000000000000000000000000000000000000000060a083901b1673ffffffffffffffffffffffffffffffffffffffff86161760b885901b79ffffff0000000000000000000000000000000000000000000000161717909455509192915050565b853373ffffffffffffffffffffffffffffffffffffffff821614611e2957611000871615611e2957611e2763a910f80f60e01b338888888888604051602401611d8d9695949392919061606e565b7f1e0745a7db1623981f0b2a5d4232364c00787266eb75ad546f190e6cebe9bd955f908152602082905260408120805c91829003612d5a57612d5a7f8774be4800000000000000000000000000000000000000000000000000000000611b20565b7fffffffffffffffffffffffffffffffffffffffffffffffffffffffffffffffff8203612d85575f91505b50919050565b612d9482611cf6565b81547fffffffffffff000000ffffffffffffffffffffffffffffffffffffffffffffff1679ffffff000000000000000000000000000000000000000000000060b883901b16176120f4565b5f73ffffffffffffffffffffffffffffffffffffffff8216612e02575047919050565b6040517f70a0823100000000000000000000000000000000000000000000000000000000815230600482015273ffffffffffffffffffffffffffffffffffffffff8316906370a0823190602401602060405180830381865afa158015612e6a573d5f803e3d5ffd5b505050506040513d601f19601f82011682018060405250810190610767919061610e565b805f03612eb857507fffffffffffffffffffffffffffffffffffffffffffffffffffffffffffffffff5b7f1e0745a7db1623981f0b2a5d4232364c00787266eb75ad546f190e6cebe9bd955f90815260208390526040902081815d505050565b60208301515f8073ffffffffffffffffffffffffffffffffffffffff88163303612f1a575f9150613064565b6080881615613064575f612fbc89338a8a8a8a604051602401612f41959493929190616125565b604080517fffffffffffffffffffffffffffffffffffffffffffffffffffffffffffffffe08184030181529190526020810180517bffffffffffffffffffffffffffffffffffffffffffffffffffffffff167f575e24b4000000000000000000000000000000000000000000000000000000001790526134da565b9050612fd8886040015162ffffff1662ffffff16628000001490565b15612fe557606081015191505b600889161561306257604081015192505f6130008460801d90565b905080600f0b5f14613060575f851261301d600f83900b87615d18565b95508061302c575f8612613030565b5f86135b1561305e5761305e7ffa0b71d600000000000000000000000000000000000000000000000000000000611b20565b505b505b505b955095509592505050565b5f8080808061307e8988614138565b93509350935093505f8311156130b95773ffffffffffffffffffffffffffffffffffffffff86165f9081526001602052604090208054840190555b877f40e9cecb9f5f1f1c5b9c97dec2917b7ee92e57ba5563708daca94dd84ad7112f336130e68760801d90565b6130f088600f0b90565b60408087015160a08801516060890151925161317796959493908b9073ffffffffffffffffffffffffffffffffffffffff9788168152600f96870b60208201529490950b60408501529190941660608301526fffffffffffffffffffffffffffffffff93909316608082015260029290920b60a083015262ffffff1660c082015260e00190565b60405180910390a25091979650505050505050565b5f8073ffffffffffffffffffffffffffffffffffffffff891633036131b557508490505f61331b565b5f6131c08460801d90565b90505f6131cd85600f0b90565b905060408b16156132a0576132936125a7338c8c8c8c8c6040516024016131f9969594939291906161e6565b604080517fffffffffffffffffffffffffffffffffffffffffffffffffffffffffffffffe08184030181529190526020810180517bffffffffffffffffffffffffffffffffffffffffffffffffffffffff167fb47b2fb10000000000000000000000000000000000000000000000000000000017905260048e16151573ffffffffffffffffffffffffffffffffffffffff8f169190613d6f565b61329d90826162ae565b90505b5f81600f0b5f1415806132b6575082600f0b5f14155b1561331357895160208b01515f13901515146132ea576fffffffffffffffffffffffffffffffff8316608083901b17613304565b6fffffffffffffffffffffffffffffffff8216608084901b175b90506133108982613d97565b98505b889450925050505b97509795505050505050565b3373ffffffffffffffffffffffffffffffffffffffff84168114801590613380575073ffffffffffffffffffffffffffffffffffffffff8085165f9081526003602090815260408083209385168352929052205460ff16155b1561342d5773ffffffffffffffffffffffffffffffffffffffff8085165f9081526005602090815260408083209385168352928152828220868352905220547fffffffffffffffffffffffffffffffffffffffffffffffffffffffffffffffff811461342b576133f08382615bdd565b73ffffffffffffffffffffffffffffffffffffffff8087165f9081526005602090815260408083209387168352928152828220888352905220555b505b6134388484846149ef565b50505050565b6393dafdf15f526004601cfd5b7f7d4b3164c6e45b97e7d87b7125a44c5828d005af88f9d751cfd78729c5d99a0b7fffffffffffffffffffffffffffffffffffffffffffffffffffffffffffffffff815c0180825d5050565b7f7d4b3164c6e45b97e7d87b7125a44c5828d005af88f9d751cfd78729c5d99a0b6001815c0180825d5050565b5f82815260208490526040902081815d50505050565b60605f808351602085015f875af1613506573d6134fe576336bc48c55f526004601cfd5b3d5f803e3d5ffd5b6040519050601f19603f3d011681016040523d81523d5f602083013e60208201517fffffffff0000000000000000000000000000000000000000000000000000000016613554826020015190565b7fffffffff000000000000000000000000000000000000000000000000000000001614610767576107677f1e048e1d00000000000000000000000000000000000000000000000000000000611b20565b5f838302817fffffffffffffffffffffffffffffffffffffffffffffffffffffffffffffffff858709828110838203039150508084116135e2575f80fd5b805f036135f45750829004905061083a565b5f848688095f868103871696879004966002600389028118808a02820302808a02820302808a02820302808a02820302808a02820302808a02909103029181900381900460010186841190950394909402919094039290920491909117919091029150509392505050565b8060020b8260020b12613697576136977fc4433ed5000000000000000000000000000000000000000000000000000000008383614a85565b7ffffffffffffffffffffffffffffffffffffffffffffffffffffffffffff27618600283900b12156136ed576136ed7fd5e2f7ab0000000000000000000000000000000000000000000000000000000083612962565b620d89e8600282900b1315613726576137267f1ad777f80000000000000000000000000000000000000000000000000000000082612962565b5050565b600283900b5f908152600485016020526040812080548291906fffffffffffffffffffffffffffffffff81169060801d6137648288613d55565b6fffffffffffffffffffffffffffffffff808216159084168015919091141596509094505f036137b757885460a01c60020b60020b8860020b136137b7576001808a0154908401556002808a0154908401555b5f866137cc576137c788836162ae565b6137d6565b6137d688836162fc565b90508060801b851784555050505094509492505050565b8082071561380a5763d4d8f3e65f5281602052806040526044601cfd5b80820591508160081d5f528260205260405f20600160ff84161b815418815550505050565b600282810b5f81815260048601602052604080822085850b83529082208754929485949293919260a09290921c900b908112156138855781600101548360010154039450816002015483600201540393506138d8565b8560020b8160020b126138b15782600101548260010154039450826002015482600201540393506138d8565b81600101548360010154896001015403039450816002015483600201548960020154030393505b505050935093915050565b83545f9081906fffffffffffffffffffffffffffffffff16600f86900b820361394d57806fffffffffffffffffffffffffffffffff165f03613948576139487faefeb92400000000000000000000000000000000000000000000000000000000611b20565b613994565b6139578187613d55565b87547fffffffffffffffffffffffffffffffff00000000000000000000000000000000166fffffffffffffffffffffffffffffffff919091161787555b6139c887600101548603826fffffffffffffffffffffffffffffffff167001000000000000000000000000000000006135a4565b92506139fe87600201548503826fffffffffffffffffffffffffffffffff167001000000000000000000000000000000006135a4565b6001880195909555505060029094015591929050565b5f60ff82901d80830118620d89e8811115613a365763ce8ef7fc5f526004601cfd5b7001fffcb933bd6fad37aa2d162d1a5940016001821602700100000000000000000000000000000000186002821615613a7f576ffff97272373d413259a46990580e213a0260801c5b6004821615613a9e576ffff2e50f5f656932ef12357cf3c7fdcc0260801c5b6008821615613abd576fffe5caca7e10e4e61c3624eaa0941cd00260801c5b6010821615613adc576fffcb9843d60f6159c9db58835c9266440260801c5b6020821615613afb576fff973b41fa98c081472e6896dfb254c00260801c5b6040821615613b1a576fff2ea16466c96a3843ec78b326b528610260801c5b6080821615613b39576ffe5dee046a99a2a811c461f1969c30530260801c5b610100821615613b59576ffcbe86c7900a88aedcffc83b479aa3a40260801c5b610200821615613b79576ff987a7253ac413176f2b074cf7815e540260801c5b610400821615613b99576ff3392b0822b70005940c7a398e4b70f30260801c5b610800821615613bb9576fe7159475a2c29b7443b29c7fa6e889d90260801c5b611000821615613bd9576fd097f3bdfd2022b8845ad8f792aa58250260801c5b612000821615613bf9576fa9f746462d870fdf8a65dc1f90e061e50260801c5b614000821615613c19576f70d869a156d2a1b890bb3df62baf32f70260801c5b618000821615613c39576f31be135f97d08fd981231505542fcfa60260801c5b62010000821615613c5a576f09aa508b5b7a84e1c677de54f3e99bc90260801c5b62020000821615613c7a576e5d6af8dedb81196699c329225ee6040260801c5b62040000821615613c99576d2216e584f5fa1ea926041bedfe980260801c5b62080000821615613cb6576b048a170391f7dc42444e8fa20260801c5b5f841315613ce1577fffffffffffffffffffffffffffffffffffffffffffffffffffffffffffffffff045b63ffffffff0160201c9392505050565b5f8082600f0b12613d1857613d11613d0c8585856001614a95565b614bbc565b5f03611b18565b611b18613d0c8585855f035f614a95565b5f8082600f0b12613d4457613d11613d0c8585856001614bc8565b611b18613d0c8585855f035f614bc8565b818101608081901c15610767576393dafdf15f526004601cfd5b5f80613d7b85856134da565b905082613d8b575f91505061083a565b60400151949350505050565b5f608082811d9084901d03600f83810b9085900b036126b96126b08361223f565b5f73fffd8963efd1fc6a506488495d951d51639616826401000276a383031115613de9576331efafe85f526004601cfd5b77ffffffffffffffffffffffffffffffffffffffff00000000602083901b166fffffffffffffffffffffffffffffffff811160071b81811c67ffffffffffffffff811160061b90811c63ffffffff811160051b90811c61ffff811160041b90811c60ff8111600390811b91821c600f811160021b90811c918211600190811b92831c97908811961790941790921717909117171760808110613e9357607f810383901c9150613e9d565b80607f0383901b91505b908002607f81811c60ff83811c9190911c800280831c81831c1c800280841c81841c1c800280851c81851c1c800280861c81861c1c800280871c81871c1c800280881c81881c1c800280891c81891c1c8002808a1c818a1c1c8002808b1c818b1c1c8002808c1c818c1c1c8002808d1c818d1c1c8002808e1c9c81901c9c909c1c80029c8d901c9e9d7fffffffffffffffffffffffffffffffffffffffffffffffffffffffffffffff808f0160401b60c09190911c678000000000000000161760c19b909b1c674000000000000000169a909a1760c29990991c672000000000000000169890981760c39790971c671000000000000000169690961760c49590951c670800000000000000169490941760c59390931c670400000000000000169290921760c69190911c670200000000000000161760c79190911c670100000000000000161760c89190911c6680000000000000161760c99190911c6640000000000000161760ca9190911c6620000000000000161760cb9190911c6610000000000000161760cc9190911c6608000000000000161760cd9190911c66040000000000001617693627a301d71055774c8581027ffffffffffffffffffffffffffffffffffd709b7e5480fba5a50fed5e62ffc5568101608090811d906fdb2df09e81959a81455e260799a0632f8301901d600281810b9083900b146140e4578873ffffffffffffffffffffffffffffffffffffffff166140bc82613a14565b73ffffffffffffffffffffffffffffffffffffffff1611156140de57816140e6565b806140e6565b815b9998505050505050505050565b60a01b76ffffff0000000000000000000000000000000000000000167fffffffffffffffffff000000ffffffffffffffffffffffffffffffffffffffff919091161790565b6040805160c0810182525f80825260208201819052918101829052606081018290526080810182905260a08101829052819081908554602086015160038801546fffffffffffffffffffffffffffffffff165f8261419e57610fff60c485901c166141a8565b610fff60b885901c165b60408a81015187525f602088015273ffffffffffffffffffffffffffffffffffffffff86169087015260a085901c60020b606087015261ffff169050826141f35789600201546141f9565b89600101545b6080868101919091526fffffffffffffffffffffffffffffffff831660a08701528901515f9062400000166142375760d085901c62ffffff16614249565b6142498a6080015162ffffff16614c08565b905081156142765761427162ffffff831682620f424082820281810491900615150191010390565b614278565b805b60408b01519097505f139050801581614298575062ffffff8716620f4240145b156142c6576142c67f9620624600000000000000000000000000000000000000000000000000000000611b20565b89604001515f036142e1575f809850985050505050506149e6565b83156143c45760608a015173ffffffffffffffffffffffffffffffffffffffff8681169116106143535761435373ffffffffffffffffffffffffffffffffffffffff86165b60608c01517f7c9c6e8f000000000000000000000000000000000000000000000000000000009190614a85565b6401000276a373ffffffffffffffffffffffffffffffffffffffff168a6060015173ffffffffffffffffffffffffffffffffffffffff16116143bf5760608a01516143bf907f9e4d7cc70000000000000000000000000000000000000000000000000000000090612962565b614482565b60608a015173ffffffffffffffffffffffffffffffffffffffff8681169116116144075761440773ffffffffffffffffffffffffffffffffffffffff8616614326565b73fffd8963efd1fc6a506488495d951d5263988d2673ffffffffffffffffffffffffffffffffffffffff168a6060015173ffffffffffffffffffffffffffffffffffffffff16106144825760608a0151614482907f9e4d7cc70000000000000000000000000000000000000000000000000000000090612962565b6040805160e0810182525f80825260208201819052918101829052606081018290526080810182905260a0810182905260c08101919091525b865115806144fc57508a6060015173ffffffffffffffffffffffffffffffffffffffff16876040015173ffffffffffffffffffffffffffffffffffffffff16145b6148a057604087015173ffffffffffffffffffffffffffffffffffffffff16815260608701518b516145339160058f019188614c17565b1515604083015260020b602082018190527ffffffffffffffffffffffffffffffffffffffffffffffffffffffffffff2761812614591577ffffffffffffffffffffffffffffffffffffffffffffffffffffffffffff2761860208201525b620d89e860020b816020015160020b126145af57620d89e860208201525b6145bc8160200151613a14565b73ffffffffffffffffffffffffffffffffffffffff1660608281018290526040890151908d01516145fe928082118918908218021860a08a01518a518c614d2d565b60c085015260a0840152608083015273ffffffffffffffffffffffffffffffffffffffff1660408801528161466f5761463a8160a00151614bbc565b875103875260c0810151608082015161465691613d0c91615bf0565b8760200151614665919061634a565b60208801526146aa565b6146828160c00151826080015101614bbc565b875101875260a081015161469590614bbc565b87602001516146a49190615d18565b60208801525b82156146e6575f620f4240848360c0015184608001510102816146cf576146cf616370565b60c084018051929091049182900390529990990198505b60a08701516fffffffffffffffffffffffffffffffff1615614744576147388160c001517001000000000000000000000000000000008960a001516fffffffffffffffffffffffffffffffff166135a4565b60808801805190910190525b806060015173ffffffffffffffffffffffffffffffffffffffff16876040015173ffffffffffffffffffffffffffffffffffffffff160361484b57806040015115614836575f808661479f578d6001015489608001516147aa565b88608001518e600201545b915091505f6148028f85602001518585600292830b5f908152600490940160205260409093206001810180549092039091559081018054909203909155547001000000000000000000000000000000009004600f0b90565b9050871561480d575f035b61481b8a60a0015182613d55565b6fffffffffffffffffffffffffffffffff1660a08b01525050505b602081015185900360020b60608801526144bb565b805f015173ffffffffffffffffffffffffffffffffffffffff16876040015173ffffffffffffffffffffffffffffffffffffffff161461489b576148928760400151613db8565b60020b60608801525b6144bb565b6148fd87604001516148bf8960600151896140f390919063ffffffff16565b7fffffffffffffffffffffffff00000000000000000000000000000000000000001673ffffffffffffffffffffffffffffffffffffffff9091161790565b8c5560a08701516fffffffffffffffffffffffffffffffff8581169116146149675760a087015160038d0180547fffffffffffffffffffffffffffffffff00000000000000000000000000000000166fffffffffffffffffffffffffffffffff9092169190911790555b8461497b57608087015160028d0155614986565b608087015160018d01555b811515851515146149ba576149b36149a1886020015161223f565b6124bc895f01518e604001510361223f565b99506149df565b6149dc6149cf885f01518d604001510361223f565b6124bc896020015161223f565b99505b5050505050505b92959194509250565b73ffffffffffffffffffffffffffffffffffffffff83165f90815260046020908152604080832085845290915281208054839290614a2e908490615bdd565b9091555050604080513381526020810183905283915f9173ffffffffffffffffffffffffffffffffffffffff8716917f1b3d7edb2e9c0b0e7c525b20aaaef0f5940d2ed71663c7d39266ecafac7288599101611ce9565b825f52816004528060245260445ffd5b5f8373ffffffffffffffffffffffffffffffffffffffff168573ffffffffffffffffffffffffffffffffffffffff161115614ace579293925b84614adf5762bfc9215f526004601cfd5b7bffffffffffffffffffffffffffffffff000000000000000000000000606084901b1673ffffffffffffffffffffffffffffffffffffffff8686031683614b6b578673ffffffffffffffffffffffffffffffffffffffff16614b5883838973ffffffffffffffffffffffffffffffffffffffff166135a4565b81614b6557614b65616370565b04614bb1565b614bb1614b8f83838973ffffffffffffffffffffffffffffffffffffffff16614ec0565b8873ffffffffffffffffffffffffffffffffffffffff16808204910615150190565b979650505050505050565b5f80821261225e575090565b5f83850360ff81901d908101186c0100000000000000000000000084614bef8184846135a4565b9350845f83858409111684019350505050949350505050565b62bfffff81166113c381612068565b5f808385078113848605038315614ca357600881901d600181810b5f90815260208a905260409020547fffffffffffffffffffffffffffffffffffffffffffffffffffffffffffffffff60ff851692831b800101908116801515955085614c8557888360ff16860302614c98565b88614c8f82614ef0565b840360ff168603025b965050505050614d23565b6001908101600881901d80830b5f90815260208a905260409020547fffffffffffffffffffffffffffffffffffffffffffffffffffffffffffffffff60ff841694851b011990811680151595509293919285614d0957888360ff0360ff16860102614d1c565b8883614d1483614f9b565b0360ff168601025b9650505050505b5094509492505050565b5f80808062ffffff851673ffffffffffffffffffffffffffffffffffffffff808a16908b1610158288128015614e33575f614d738a5f0385620f424003620f42406135a4565b905082614d8c57614d878d8d8d6001614bc8565b614d99565b614d998c8e8d6001614a95565b9650868110614dcd578b9750620f42408414614dc457614dbf878586620f424003614ec0565b614dc6565b865b9450614e09565b614dd98d8c838661517c565b975082614df257614ded8d898d6001614bc8565b614dff565b614dff888e8d6001614a95565b9650868a5f030394505b82614e1f57614e1a8d898d5f614a95565b614e2b565b614e2b888e8d5f614bc8565b955050614eb1565b81614e4957614e448c8c8c5f614a95565b614e55565b614e558b8d8c5f614bc8565b9450848910614e66578a9650614e78565b889450614e758c8b87856151b8565b96505b81614e8f57614e8a8c888c6001614bc8565b614e9c565b614e9c878d8c6001614a95565b9550614eae868485620f424003614ec0565b93505b50505095509550955095915050565b5f614ecc8484846135a4565b90508180614edc57614edc616370565b8385091561083a576001018061083a575f80fd5b5f808211614efc575f80fd5b7001000000000000000000000000000000008210614f1c57608091821c91015b680100000000000000008210614f3457604091821c91015b6401000000008210614f4857602091821c91015b620100008210614f5a57601091821c91015b6101008210614f6b57600891821c91015b60108210614f7b57600491821c91015b60048210614f8b57600291821c91015b600282106113c357600101919050565b5f808211614fa7575f80fd5b5060ff6fffffffffffffffffffffffffffffffff821615614fe9577fffffffffffffffffffffffffffffffffffffffffffffffffffffffffffffff8001614ff1565b608082901c91505b67ffffffffffffffff821615615028577fffffffffffffffffffffffffffffffffffffffffffffffffffffffffffffffc001615030565b604082901c91505b63ffffffff821615615063577fffffffffffffffffffffffffffffffffffffffffffffffffffffffffffffffe00161506b565b602082901c91505b61ffff82161561509c577ffffffffffffffffffffffffffffffffffffffffffffffffffffffffffffffff0016150a4565b601082901c91505b60ff8216156150d4577ffffffffffffffffffffffffffffffffffffffffffffffffffffffffffffffff8016150dc565b600882901c91505b600f82161561510c577ffffffffffffffffffffffffffffffffffffffffffffffffffffffffffffffffc01615114565b600482901c91505b6003821615615144577ffffffffffffffffffffffffffffffffffffffffffffffffffffffffffffffffe0161514c565b600282901c91505b60018216156113c3577fffffffffffffffffffffffffffffffffffffffffffffffffffffffffffffffff01919050565b5f83158515171561519457634f2461b85f526004601cfd5b816151ab576151a685858560016151e9565b6126b9565b6126b98585856001615335565b5f8315851517156151d057634f2461b85f526004601cfd5b816151e1576151a68585855f615335565b6126b98585855f5b5f811561528e575f73ffffffffffffffffffffffffffffffffffffffff84111561523c57615237846c01000000000000000000000000876fffffffffffffffffffffffffffffffff166135a4565b61525c565b61525c6fffffffffffffffffffffffffffffffff8616606086901b61639d565b90506152866152818273ffffffffffffffffffffffffffffffffffffffff8916615bf0565b615469565b915050611b18565b5f73ffffffffffffffffffffffffffffffffffffffff8411156152da576152d5846c01000000000000000000000000876fffffffffffffffffffffffffffffffff16614ec0565b615300565b615300606085901b6fffffffffffffffffffffffffffffffff8716808204910615150190565b905080861161531657634323a5555f526004601cfd5b73ffffffffffffffffffffffffffffffffffffffff8616039050611b18565b5f825f03615344575083611b18565b7bffffffffffffffffffffffffffffffff000000000000000000000000606085901b16821561540f5773ffffffffffffffffffffffffffffffffffffffff86168481029085828161539757615397616370565b04036153d4578181018281106153d2576153c8838973ffffffffffffffffffffffffffffffffffffffff1683614ec0565b9350505050611b18565b505b5061528681856153fa73ffffffffffffffffffffffffffffffffffffffff8a168361639d565b6154049190615bf0565b808204910615150190565b73ffffffffffffffffffffffffffffffffffffffff861684028481048714818311166154425763f5c787f15f526004601cfd5b8082036153c86152818473ffffffffffffffffffffffffffffffffffffffff8b1684614ec0565b5f740100000000000000000000000000000000000000008210611b4857611b4861343e565b73ffffffffffffffffffffffffffffffffffffffff81168114611d3d575f80fd5b5f80604083850312156154c0575f80fd5b82356154cb8161548e565b946020939093013593505050565b5f602082840312156154e9575f80fd5b81357fffffffff000000000000000000000000000000000000000000000000000000008116811461083a575f80fd5b5f805f6060848603121561552a575f80fd5b83356155358161548e565b95602085013595506040909401359392505050565b5f805f6060848603121561555c575f80fd5b83356155678161548e565b925060208401356155778161548e565b929592945050506040919091013590565b5f60208284031215615598575f80fd5b5035919050565b7f4e487b71000000000000000000000000000000000000000000000000000000005f52604160045260245ffd5b6040516080810167ffffffffffffffff811182821017156155ef576155ef61559f565b60405290565b803562ffffff811681146113c3575f80fd5b8035600281900b81146113c3575f80fd5b5f60a08284031215615628575f80fd5b60405160a0810181811067ffffffffffffffff8211171561564b5761564b61559f565b604052905080823561565c8161548e565b8152602083013561566c8161548e565b602082015261567d604084016155f5565b604082015261568e60608401615607565b606082015260808301356156a18161548e565b6080919091015292915050565b5f8083601f8401126156be575f80fd5b50813567ffffffffffffffff8111156156d5575f80fd5b6020830191508360208285010111156156ec575f80fd5b9250929050565b5f805f805f6101008688031215615708575f80fd5b6157128787615618565b945060a0860135935060c0860135925060e086013567ffffffffffffffff81111561573b575f80fd5b615747888289016156ae565b969995985093965092949392505050565b5f60208284031215615768575f80fd5b813561083a8161548e565b5f8060408385031215615784575f80fd5b50508035926020909101359150565b5f5b838110156157ad578181015183820152602001615795565b50505f910152565b602081525f82518060208401526157d3816040850160208701615793565b601f017fffffffffffffffffffffffffffffffffffffffffffffffffffffffffffffffe0169190910160400192915050565b5f8060208385031215615816575f80fd5b823567ffffffffffffffff81111561582c575f80fd5b615838858286016156ae565b90969095509350505050565b5f8060c08385031215615855575f80fd5b61585f8484615618565b915061586d60a084016155f5565b90509250929050565b803580151581146113c3575f80fd5b5f8060408385031215615896575f80fd5b82356158a18161548e565b915061586d60208401615876565b5f805f808486036101408112156158c4575f80fd5b6158ce8787615618565b945060807fffffffffffffffffffffffffffffffffffffffffffffffffffffffffffffff60820112156158ff575f80fd5b506159086155cc565b61591460a08701615607565b815261592260c08701615607565b602082015260e086013560408201526101008601356060820152925061012085013567ffffffffffffffff811115615958575f80fd5b615964878288016156ae565b95989497509550505050565b5f805f8060e08587031215615983575f80fd5b61598d8686615618565b935060a085013561599d8161548e565b925060c085013567ffffffffffffffff811115615958575f80fd5b5f80602083850312156159c9575f80fd5b823567ffffffffffffffff808211156159e0575f80fd5b818501915085601f8301126159f3575f80fd5b813581811115615a01575f80fd5b8660208260051b8501011115615a15575f80fd5b60209290920196919550909350505050565b602080825282518282018190525f9190848201906040850190845b81811015615a5e57835183529284019291840191600101615a42565b50909695505050505050565b5f8060408385031215615a7b575f80fd5b8235615a868161548e565b91506020830135615a968161548e565b809150509250929050565b5f805f80848603610120811215615ab6575f80fd5b615ac08787615618565b945060607fffffffffffffffffffffffffffffffffffffffffffffffffffffffffffffff6082011215615af1575f80fd5b506040516060810167ffffffffffffffff8282108183111715615b1657615b1661559f565b81604052615b2660a08901615876565b835260c0880135602084015260e08801359150615b428261548e565b816040840152829550610100880135925080831115615b5f575f80fd5b5050615964878288016156ae565b5f805f8060808587031215615b80575f80fd5b8435615b8b8161548e565b93506020850135615b9b8161548e565b93969395505050506040820135916060013590565b7f4e487b71000000000000000000000000000000000000000000000000000000005f52601160045260245ffd5b8181038181111561076757610767615bb0565b8082018082111561076757610767615bb0565b81835281816020850137505f602082840101525f60207fffffffffffffffffffffffffffffffffffffffffffffffffffffffffffffffe0601f840116840101905092915050565b602081525f611b18602083018486615c03565b5f60208284031215615c6d575f80fd5b815167ffffffffffffffff80821115615c84575f80fd5b818401915084601f830112615c97575f80fd5b815181811115615ca957615ca961559f565b604051601f82017fffffffffffffffffffffffffffffffffffffffffffffffffffffffffffffffe0908116603f01168101908382118183101715615cef57615cef61559f565b81604052828152876020848701011115615d07575f80fd5b614bb1836020830160208801615793565b8082018281125f831280158216821582161715615d3757615d37615bb0565b505092915050565b5f61012073ffffffffffffffffffffffffffffffffffffffff89168352615db8602084018973ffffffffffffffffffffffffffffffffffffffff80825116835280602083015116602084015262ffffff6040830151166040840152606082015160020b6060840152806080830151166080840152505050565b8660c08401528560e0840152806101008401526140e68184018587615c03565b5f61016073ffffffffffffffffffffffffffffffffffffffff88168352615e51602084018873ffffffffffffffffffffffffffffffffffffffff80825116835280602083015116602084015262ffffff6040830151166040840152606082015160020b6060840152806080830151166080840152505050565b8551600290810b60c08501526020870151900b60e08401526040860151610100840152606086015161012084015280610140840152615e938184018587615c03565b98975050505050505050565b5f61018073ffffffffffffffffffffffffffffffffffffffff89168352615f18602084018973ffffffffffffffffffffffffffffffffffffffff80825116835280602083015116602084015262ffffff6040830151166040840152606082015160020b6060840152806080830151166080840152505050565b8651600290810b60c08501526020880151900b60e08401526040870151610100840152606087015161012084015285610140840152806101608401526140e68184018587615c03565b5f61010073ffffffffffffffffffffffffffffffffffffffff8089168452615fdb602085018973ffffffffffffffffffffffffffffffffffffffff80825116835280602083015116602084015262ffffff6040830151166040840152606082015160020b6060840152806080830151166080840152505050565b861660c084015260e08301819052615e938184018587615c03565b60a08101610767828473ffffffffffffffffffffffffffffffffffffffff80825116835280602083015116602084015262ffffff6040830151166040840152606082015160020b6060840152806080830151166080840152505050565b5f8251616064818460208701615793565b9190910192915050565b5f61012073ffffffffffffffffffffffffffffffffffffffff808a1684526160e8602085018a73ffffffffffffffffffffffffffffffffffffffff80825116835280602083015116602084015262ffffff6040830151166040840152606082015160020b6060840152806080830151166080840152505050565b80881660c0850152508560020b60e0840152806101008401526140e68184018587615c03565b5f6020828403121561611e575f80fd5b5051919050565b5f61014073ffffffffffffffffffffffffffffffffffffffff8816835261619e602084018873ffffffffffffffffffffffffffffffffffffffff80825116835280602083015116602084015262ffffff6040830151166040840152606082015160020b6060840152806080830151166080840152505050565b8551151560c0840152602086015160e0840152604086015173ffffffffffffffffffffffffffffffffffffffff1661010084015280610120840152615e938184018587615c03565b5f61016073ffffffffffffffffffffffffffffffffffffffff8916835261625f602084018973ffffffffffffffffffffffffffffffffffffffff80825116835280602083015116602084015262ffffff6040830151166040840152606082015160020b6060840152806080830151166080840152505050565b8651151560c0840152602087015160e0840152604087015173ffffffffffffffffffffffffffffffffffffffff1661010084015285610120840152806101408401526140e68184018587615c03565b600f81810b9083900b016f7fffffffffffffffffffffffffffffff81137fffffffffffffffffffffffffffffffff800000000000000000000000000000008212171561076757610767615bb0565b600f82810b9082900b037fffffffffffffffffffffffffffffffff8000000000000000000000000000000081126f7fffffffffffffffffffffffffffffff8213171561076757610767615bb0565b8181035f83128015838313168383128216171561636957616369615bb0565b5092915050565b7f4e487b71000000000000000000000000000000000000000000000000000000005f52601260045260245ffd5b5f826163d0577f4e487b71000000000000000000000000000000000000000000000000000000005f52601260045260245ffd5b50049056fea2646970667358221220ab33578d87b3cbf84da107edc3497aa942e796500d7981e5fd7b9267bb797e6164736f6c63430008180033","linkReferences":{}},"methodIdentifiers":{"MAX_TICK_SPACING()":"60460f06","MIN_TICK_SPACING()":"07eff0dd","allowance(address,address,uint256)":"598af9e7","approve(address,uint256,uint256)":"426a8493","balanceOf(address,uint256)":"00fdd58e","burn(address,uint256,uint256)":"f5298aca","collectProtocolFees(address,address,uint256)":"8161b874","donate((address,address,uint24,int24,address),uint256,uint256,bytes)":"234266d7","extsload(bytes32)":"1e2eaeaf","extsload(bytes32,uint256)":"35fd631a","extsload(bytes32[])":"dbd035ff","exttload(bytes32)":"f135baaa","exttload(bytes32[])":"9bf6645f","initialize((address,address,uint24,int24,address),uint160,bytes)":"695c5bf5","isOperator(address,address)":"b6363cf2","mint(address,uint256,uint256)":"156e29f6","modifyLiquidity((address,address,uint24,int24,address),(int24,int24,int256,bytes32),bytes)":"5a6bcfda","owner()":"8da5cb5b","protocolFeeController()":"f02de3b2","protocolFeesAccrued(address)":"97e8cd4e","setOperator(address,bool)":"558a7297","setProtocolFee((address,address,uint24,int24,address),uint24)":"7e87ce7d","setProtocolFeeController(address)":"2d771389","settle(address)":"6a256b29","supportsInterface(bytes4)":"01ffc9a7","swap((address,address,uint24,int24,address),(bool,int256,uint160),bytes)":"f3cd914c","sync(address)":"a5841194","take(address,address,uint256)":"0b0d9c09","transfer(address,uint256,uint256)":"095bcdb6","transferFrom(address,address,uint256,uint256)":"fe99049a","transferOwnership(address)":"f2fde38b","unlock(bytes)":"48c89491","updateDynamicLPFee((address,address,uint24,int24,address),uint24)":"52759651"},"id":45}