{"abi":[{"type":"constructor","inputs":[{"name":"_manager","type":"address","internalType":"contract IPoolManager"}],"stateMutability":"nonpayable"},{"type":"function","name":"manager","inputs":[],"outputs":[{"name":"","type":"address","internalType":"contract IPoolManager"}],"stateMutability":"view"},{"type":"function","name":"swap","inputs":[{"name":"key","type":"tuple","internalType":"struct PoolKey","components":[{"name":"currency0","type":"address","internalType":"Currency"},{"name":"currency1","type":"address","internalType":"Currency"},{"name":"fee","type":"uint24","internalType":"uint24"},{"name":"tickSpacing","type":"int24","internalType":"int24"},{"name":"hooks","type":"address","internalType":"contract IHooks"}]},{"name":"params","type":"tuple","internalType":"struct IPoolManager.SwapParams","components":[{"name":"zeroForOne","type":"bool","internalType":"bool"},{"name":"amountSpecified","type":"int256","internalType":"int256"},{"name":"sqrtPriceLimitX96","type":"uint160","internalType":"uint160"}]},{"name":"testSettings","type":"tuple","internalType":"struct PoolSwapTest.TestSettings","components":[{"name":"takeClaims","type":"bool","internalType":"bool"},{"name":"settleUsingBurn","type":"bool","internalType":"bool"}]},{"name":"hookData","type":"bytes","internalType":"bytes"}],"outputs":[{"name":"delta","type":"int256","internalType":"BalanceDelta"}],"stateMutability":"payable"},{"type":"function","name":"unlockCallback","inputs":[{"name":"rawData","type":"bytes","internalType":"bytes"}],"outputs":[{"name":"","type":"bytes","internalType":"bytes"}],"stateMutability":"nonpayable"},{"type":"error","name":"NoSwapOccurred","inputs":[]}],"bytecode":{"object":"0x60a060405234801561000f575f80fd5b50604051611e65380380611e6583398101604081905261002e9161003f565b6001600160a01b031660805261006c565b5f6020828403121561004f575f80fd5b81516001600160a01b0381168114610065575f80fd5b9392505050565b608051611da46100c15f395f8181606e0152818160e4015281816102400152818161038601528181610c4c01528181610cb201528181610d4901528181610daa01528181610ebf0152610eff0152611da45ff3fe608060405260043610610033575f3560e01c80632229d0b414610037578063481c6a751461005d57806391dd7346146100b5575b5f80fd5b61004a6100453660046118bb565b6100e1565b6040519081526020015b60405180910390f35b348015610068575f80fd5b506100907f000000000000000000000000000000000000000000000000000000000000000081565b60405173ffffffffffffffffffffffffffffffffffffffff9091168152602001610054565b3480156100c0575f80fd5b506100d46100cf36600461192c565b610226565b6040516100549190611a03565b5f7f000000000000000000000000000000000000000000000000000000000000000073ffffffffffffffffffffffffffffffffffffffff166348c894916040518060a001604052803373ffffffffffffffffffffffffffffffffffffffff1681526020018681526020018881526020018781526020018581525060405160200161016b9190611a1c565b6040516020818303038152906040526040518263ffffffff1660e01b81526004016101969190611a03565b5f604051808303815f875af11580156101b1573d5f803e3d5ffd5b505050506040513d5f823e601f3d9081017fffffffffffffffffffffffffffffffffffffffffffffffffffffffffffffffe01682016040526101f69190810190611b17565b8060200190518101906102099190611b80565b905047801561021d5761021d5f3383610dfc565b50949350505050565b60603373ffffffffffffffffffffffffffffffffffffffff7f00000000000000000000000000000000000000000000000000000000000000001614610269575f80fd5b5f61027683850185611b97565b90505f61028e82604001515f0151835f015130610e7e565b925050505f6102a9836040015160200151845f015130610e7e565b92505050815f1461031b576040517f08c379a000000000000000000000000000000000000000000000000000000000815260206004820152601e60248201527f64656c74614265666f726530206973206e6f7420657175616c20746f2030000060448201526064015b60405180910390fd5b8015610383576040517f08c379a000000000000000000000000000000000000000000000000000000000815260206004820152601e60248201527f64656c74614265666f726531206973206e6f7420657175616c20746f203000006044820152606401610312565b5f7f000000000000000000000000000000000000000000000000000000000000000073ffffffffffffffffffffffffffffffffffffffff1663f3cd914c8560400151866060015187608001516040518463ffffffff1660e01b81526004016103ed93929190611c4b565b6020604051808303815f875af1158015610409573d5f803e3d5ffd5b505050506040513d601f19601f8201168201806040525081019061042d9190611b80565b90505f61044585604001515f0151865f015130610e7e565b925050505f610460866040015160200151875f015130610e7e565b9250505085606001515f015115610859575f866060015160200151121561066f5785606001516020015182121561053f576040517f08c379a000000000000000000000000000000000000000000000000000000000815260206004820152604760248201527f64656c7461416674657230206973206e6f742067726561746572207468616e2060448201527f6f7220657175616c20746f20646174612e706172616d732e616d6f756e74537060648201527f6563696669656400000000000000000000000000000000000000000000000000608482015260a401610312565b8161054a8460801d90565b600f0b146105da576040517f08c379a000000000000000000000000000000000000000000000000000000000815260206004820152602b60248201527f64656c74612e616d6f756e74302829206973206e6f7420657175616c20746f2060448201527f64656c74614166746572300000000000000000000000000000000000000000006064820152608401610312565b5f81121561066a576040517f08c379a000000000000000000000000000000000000000000000000000000000815260206004820152602d60248201527f64656c7461416674657231206973206e6f742067726561746572207468616e2060448201527f6f7220657175616c20746f2030000000000000000000000000000000000000006064820152608401610312565b610c3c565b5f8213156106ff576040517f08c379a000000000000000000000000000000000000000000000000000000000815260206004820152602d60248201527f64656c7461416674657230206973206e6f74206c657373207468616e206f722060448201527f657175616c20746f207a65726f000000000000000000000000000000000000006064820152608401610312565b8061070a84600f0b90565b600f0b1461079a576040517f08c379a000000000000000000000000000000000000000000000000000000000815260206004820152602b60248201527f64656c74612e616d6f756e74312829206973206e6f7420657175616c20746f2060448201527f64656c74614166746572310000000000000000000000000000000000000000006064820152608401610312565b85606001516020015181131561066a576040517f08c379a0000000000000000000000000000000000000000000000000000000008152602060048201526044602482018190527f64656c7461416674657231206973206e6f74206c657373207468616e206f7220908201527f657175616c20746f20646174612e706172616d732e616d6f756e74537065636960648201527f6669656400000000000000000000000000000000000000000000000000000000608482015260a401610312565b5f8660600151602001511215610a5257856060015160200151811215610927576040517f08c379a000000000000000000000000000000000000000000000000000000000815260206004820152604760248201527f64656c7461416674657231206973206e6f742067726561746572207468616e2060448201527f6f7220657175616c20746f20646174612e706172616d732e616d6f756e74537060648201527f6563696669656400000000000000000000000000000000000000000000000000608482015260a401610312565b8061093284600f0b90565b600f0b146109c2576040517f08c379a000000000000000000000000000000000000000000000000000000000815260206004820152602b60248201527f64656c74612e616d6f756e74312829206973206e6f7420657175616c20746f2060448201527f64656c74614166746572310000000000000000000000000000000000000000006064820152608401610312565b5f82121561066a576040517f08c379a000000000000000000000000000000000000000000000000000000000815260206004820152602d60248201527f64656c7461416674657230206973206e6f742067726561746572207468616e2060448201527f6f7220657175616c20746f2030000000000000000000000000000000000000006064820152608401610312565b5f811315610ae2576040517f08c379a000000000000000000000000000000000000000000000000000000000815260206004820152602a60248201527f64656c7461416674657231206973206e6f74206c657373207468616e206f722060448201527f657175616c20746f2030000000000000000000000000000000000000000000006064820152608401610312565b81610aed8460801d90565b600f0b14610b7d576040517f08c379a000000000000000000000000000000000000000000000000000000000815260206004820152602b60248201527f64656c74612e616d6f756e74302829206973206e6f7420657175616c20746f2060448201527f64656c74614166746572300000000000000000000000000000000000000000006064820152608401610312565b856060015160200151821315610c3c576040517f08c379a0000000000000000000000000000000000000000000000000000000008152602060048201526044602482018190527f64656c7461416674657230206973206e6f74206c657373207468616e206f7220908201527f657175616c20746f20646174612e706172616d732e616d6f756e74537065636960648201527f6669656400000000000000000000000000000000000000000000000000000000608482015260a401610312565b5f821215610ca2578551610ca2907f000000000000000000000000000000000000000000000000000000000000000090610c7585611cf8565b6020808b0151015160408b01515173ffffffffffffffffffffffffffffffffffffffff1693929190610f31565b5f811215610d14578551610d14907f000000000000000000000000000000000000000000000000000000000000000090610cdb84611cf8565b8960200151602001518a604001516020015173ffffffffffffffffffffffffffffffffffffffff16610f3190949392919063ffffffff16565b5f821315610d71578551602087015151604088015151610d719273ffffffffffffffffffffffffffffffffffffffff909116917f000000000000000000000000000000000000000000000000000000000000000091908690611346565b5f811315610dd257855160208088015151604089015190910151610dd29273ffffffffffffffffffffffffffffffffffffffff909116917f000000000000000000000000000000000000000000000000000000000000000091908590611346565b60408051602081018590520160405160208183030381529060405296505050505050505b92915050565b73ffffffffffffffffffffffffffffffffffffffff8316610e35575f805f8084865af1610e305763f4b3b1bc5f526004601cfd5b505050565b81601452806034526fa9059cbb0000000000000000000000005f5260205f604460105f875af13d1560015f51141716610e755763f27f64e45f526004601cfd5b5f603452505050565b5f8080610ea173ffffffffffffffffffffffffffffffffffffffff87168661148a565b9250610ee373ffffffffffffffffffffffffffffffffffffffff87167f000000000000000000000000000000000000000000000000000000000000000061148a565b9150610f2673ffffffffffffffffffffffffffffffffffffffff7f0000000000000000000000000000000000000000000000000000000000000000168588611559565b905093509350939050565b8015611012578373ffffffffffffffffffffffffffffffffffffffff1663f5298aca84610f878873ffffffffffffffffffffffffffffffffffffffff1673ffffffffffffffffffffffffffffffffffffffff1690565b6040517fffffffff0000000000000000000000000000000000000000000000000000000060e085901b16815273ffffffffffffffffffffffffffffffffffffffff90921660048301526024820152604481018590526064015b5f604051808303815f87803b158015610ff7575f80fd5b505af1158015611009573d5f803e3d5ffd5b5050505061133f565b73ffffffffffffffffffffffffffffffffffffffff85166110c5576040517f6a256b2900000000000000000000000000000000000000000000000000000000815273ffffffffffffffffffffffffffffffffffffffff8681166004830152851690636a256b2990849060240160206040518083038185885af115801561109a573d5f803e3d5ffd5b50505050506040513d601f19601f820116820180604052508101906110bf9190611b80565b5061133f565b6040517fa584119400000000000000000000000000000000000000000000000000000000815273ffffffffffffffffffffffffffffffffffffffff868116600483015285169063a5841194906024016020604051808303815f875af1158015611130573d5f803e3d5ffd5b505050506040513d601f19601f820116820180604052508101906111549190611b80565b5073ffffffffffffffffffffffffffffffffffffffff83163014611216576040517f23b872dd00000000000000000000000000000000000000000000000000000000815273ffffffffffffffffffffffffffffffffffffffff84811660048301528581166024830152604482018490528616906323b872dd906064016020604051808303815f875af11580156111ec573d5f803e3d5ffd5b505050506040513d601f19601f820116820180604052508101906112109190611d53565b506112ae565b6040517fa9059cbb00000000000000000000000000000000000000000000000000000000815273ffffffffffffffffffffffffffffffffffffffff85811660048301526024820184905286169063a9059cbb906044016020604051808303815f875af1158015611288573d5f803e3d5ffd5b505050506040513d601f19601f820116820180604052508101906112ac9190611d53565b505b6040517f6a256b2900000000000000000000000000000000000000000000000000000000815273ffffffffffffffffffffffffffffffffffffffff8681166004830152851690636a256b29906024016020604051808303815f875af1158015611319573d5f803e3d5ffd5b505050506040513d601f19601f8201168201806040525081019061133d9190611b80565b505b5050505050565b806113ae576040517f0b0d9c0900000000000000000000000000000000000000000000000000000000815273ffffffffffffffffffffffffffffffffffffffff8681166004830152848116602483015260448201849052851690630b0d9c0990606401610fe0565b8373ffffffffffffffffffffffffffffffffffffffff1663156e29f6846113fe8873ffffffffffffffffffffffffffffffffffffffff1673ffffffffffffffffffffffffffffffffffffffff1690565b6040517fffffffff0000000000000000000000000000000000000000000000000000000060e085901b16815273ffffffffffffffffffffffffffffffffffffffff90921660048301526024820152604481018590526064015f604051808303815f87803b15801561146d575f80fd5b505af115801561147f573d5f803e3d5ffd5b505050505050505050565b5f73ffffffffffffffffffffffffffffffffffffffff83166114c4575073ffffffffffffffffffffffffffffffffffffffff811631610df6565b6040517f70a0823100000000000000000000000000000000000000000000000000000000815273ffffffffffffffffffffffffffffffffffffffff83811660048301528416906370a0823190602401602060405180830381865afa15801561152e573d5f803e3d5ffd5b505050506040513d601f19601f820116820180604052508101906115529190611b80565b9050610df6565b5f8281526020829052604080822090517ff135baaa0000000000000000000000000000000000000000000000000000000081526004810182905273ffffffffffffffffffffffffffffffffffffffff86169063f135baaa90602401602060405180830381865afa1580156115cf573d5f803e3d5ffd5b505050506040513d601f19601f820116820180604052508101906115f39190611b80565b95945050505050565b7f4e487b71000000000000000000000000000000000000000000000000000000005f52604160045260245ffd5b60405160a0810167ffffffffffffffff8111828210171561164c5761164c6115fc565b60405290565b604051601f82017fffffffffffffffffffffffffffffffffffffffffffffffffffffffffffffffe016810167ffffffffffffffff81118282101715611699576116996115fc565b604052919050565b73ffffffffffffffffffffffffffffffffffffffff811681146116c2575f80fd5b50565b5f60a082840312156116d5575f80fd5b6116dd611629565b905081356116ea816116a1565b815260208201356116fa816116a1565b6020820152604082013562ffffff81168114611714575f80fd5b60408201526060820135600281900b811461172d575f80fd5b60608201526080820135611740816116a1565b608082015292915050565b80151581146116c2575f80fd5b5f60608284031215611768575f80fd5b6040516060810181811067ffffffffffffffff8211171561178b5761178b6115fc565b604052905080823561179c8161174b565b81526020838101359082015260408301356117b6816116a1565b6040919091015292915050565b5f604082840312156117d3575f80fd5b6040516040810181811067ffffffffffffffff821117156117f6576117f66115fc565b60405290508082356118078161174b565b815260208301356118178161174b565b6020919091015292915050565b5f67ffffffffffffffff82111561183d5761183d6115fc565b50601f017fffffffffffffffffffffffffffffffffffffffffffffffffffffffffffffffe01660200190565b5f82601f830112611878575f80fd5b813561188b61188682611824565b611652565b81815284602083860101111561189f575f80fd5b816020850160208301375f918101602001919091529392505050565b5f805f8061016085870312156118cf575f80fd5b6118d986866116c5565b93506118e88660a08701611758565b92506118f88661010087016117c3565b915061014085013567ffffffffffffffff811115611914575f80fd5b61192087828801611869565b91505092959194509250565b5f806020838503121561193d575f80fd5b823567ffffffffffffffff80821115611954575f80fd5b818501915085601f830112611967575f80fd5b813581811115611975575f80fd5b866020828501011115611986575f80fd5b60209290920196919550909350505050565b5f5b838110156119b257818101518382015260200161199a565b50505f910152565b5f81518084526119d1816020860160208601611998565b601f017fffffffffffffffffffffffffffffffffffffffffffffffffffffffffffffffe0169290920160200192915050565b602081525f611a1560208301846119ba565b9392505050565b6020815273ffffffffffffffffffffffffffffffffffffffff82511660208201525f6020830151805115156040840152602081015115156060840152506040830151611aba608084018273ffffffffffffffffffffffffffffffffffffffff80825116835280602083015116602084015262ffffff6040830151166040840152606082015160020b6060840152806080830151166080840152505050565b5060608301518051151561012084015260208101516101408401526040015173ffffffffffffffffffffffffffffffffffffffff16610160830152608083015161018080840152611b0f6101a08401826119ba565b949350505050565b5f60208284031215611b27575f80fd5b815167ffffffffffffffff811115611b3d575f80fd5b8201601f81018413611b4d575f80fd5b8051611b5b61188682611824565b818152856020838501011115611b6f575f80fd5b6115f3826020830160208601611998565b5f60208284031215611b90575f80fd5b5051919050565b5f60208284031215611ba7575f80fd5b813567ffffffffffffffff80821115611bbe575f80fd5b908301906101808286031215611bd2575f80fd5b611bda611629565b8235611be5816116a1565b8152611bf486602085016117c3565b6020820152611c0686606085016116c5565b6040820152611c19866101008501611758565b606082015261016083013582811115611c30575f80fd5b611c3c87828601611869565b60808301525095945050505050565b5f610120611ca8838773ffffffffffffffffffffffffffffffffffffffff80825116835280602083015116602084015262ffffff6040830151166040840152606082015160020b6060840152806080830151166080840152505050565b8451151560a0840152602085015160c0840152604085015173ffffffffffffffffffffffffffffffffffffffff1660e084015280610100840152611cee818401856119ba565b9695505050505050565b5f7f80000000000000000000000000000000000000000000000000000000000000008203611d4d577f4e487b71000000000000000000000000000000000000000000000000000000005f52601160045260245ffd5b505f0390565b5f60208284031215611d63575f80fd5b8151611a158161174b56fea2646970667358221220555ffd4cc65b4a4e9fac13829b5edd77ae48673e4cfbd087a668798b591cc7c464736f6c63430008180033","linkReferences":{}},"methodIdentifiers":{"manager()":"481c6a75","swap((address,address,uint24,int24,address),(bool,int256,uint160),(bool,bool),bytes)":"2229d0b4","unlockCallback(bytes)":"91dd7346"},"id":86}