{"abi":[{"type":"constructor","inputs":[{"name":"_manager","type":"address","internalType":"contract IPoolManager"}],"stateMutability":"nonpayable"},{"type":"function","name":"manager","inputs":[],"outputs":[{"name":"","type":"address","internalType":"contract IPoolManager"}],"stateMutability":"view"},{"type":"function","name":"swap","inputs":[{"name":"key","type":"tuple","internalType":"struct PoolKey","components":[{"name":"currency0","type":"address","internalType":"Currency"},{"name":"currency1","type":"address","internalType":"Currency"},{"name":"fee","type":"uint24","internalType":"uint24"},{"name":"tickSpacing","type":"int24","internalType":"int24"},{"name":"hooks","type":"address","internalType":"contract IHooks"}]},{"name":"params","type":"tuple","internalType":"struct IPoolManager.SwapParams","components":[{"name":"zeroForOne","type":"bool","internalType":"bool"},{"name":"amountSpecified","type":"int256","internalType":"int256"},{"name":"sqrtPriceLimitX96","type":"uint160","internalType":"uint160"}]}],"outputs":[],"stateMutability":"payable"},{"type":"function","name":"unlockCallback","inputs":[{"name":"rawData","type":"bytes","internalType":"bytes"}],"outputs":[{"name":"","type":"bytes","internalType":"bytes"}],"stateMutability":"nonpayable"},{"type":"error","name":"NoSwapOccurred","inputs":[]}],"bytecode":{"object":"0x60a060405234801561000f575f80fd5b506040516110c63803806110c683398101604081905261002e9161003f565b6001600160a01b031660805261006c565b5f6020828403121561004f575f80fd5b81516001600160a01b0381168114610065575f80fd5b9392505050565b6080516110136100b35f395f8181605d0152818160d7015281816101fc015281816102370152818161033001528181610393015281816103f4015261045901526110135ff3fe608060405260043610610033575f3560e01c80631e2817de14610037578063481c6a751461004c57806391dd7346146100a9575b5f80fd5b61004a610045366004610ba3565b6100d5565b005b348015610057575f80fd5b5061007f7f000000000000000000000000000000000000000000000000000000000000000081565b60405173ffffffffffffffffffffffffffffffffffffffff90911681526020015b60405180910390f35b3480156100b4575f80fd5b506100c86100c3366004610bd7565b6101e2565b6040516100a09190610cae565b7f000000000000000000000000000000000000000000000000000000000000000073ffffffffffffffffffffffffffffffffffffffff166348c8949160405180606001604052803373ffffffffffffffffffffffffffffffffffffffff168152602001858152602001848152506040516020016101529190610cc7565b6040516020818303038152906040526040518263ffffffff1660e01b815260040161017d9190610cae565b5f604051808303815f875af1158015610198573d5f803e3d5ffd5b505050506040513d5f823e601f3d9081017fffffffffffffffffffffffffffffffffffffffffffffffffffffffffffffffe01682016040526101dd9190810190610d86565b505050565b60603373ffffffffffffffffffffffffffffffffffffffff7f00000000000000000000000000000000000000000000000000000000000000001614610225575f80fd5b5f61023283850185610e4c565b90505f7f000000000000000000000000000000000000000000000000000000000000000073ffffffffffffffffffffffffffffffffffffffff1663f3cd914c836020015184604001515f67ffffffffffffffff81111561029457610294610a1e565b6040519080825280601f01601f1916602001820160405280156102be576020820181803683370190505b506040518463ffffffff1660e01b81526004016102dd93929190610e9d565b6020604051808303815f875af11580156102f9573d5f803e3d5ffd5b505050506040513d601f19601f8201168201806040525081019061031d9190610f4a565b604083015151909150156103ef5761038e7f0000000000000000000000000000000000000000000000000000000000000000835f015161035d8460801d90565b61036690610f61565b60208601515173ffffffffffffffffffffffffffffffffffffffff16929190600f0b5f6104c5565b6103ea7f0000000000000000000000000000000000000000000000000000000000000000835f01516103c084600f0b90565b602080870151015173ffffffffffffffffffffffffffffffffffffffff16929190600f0b5f6108da565b6104ae565b6104547f0000000000000000000000000000000000000000000000000000000000000000835f015161042184600f0b90565b61042a90610f61565b602080870151015173ffffffffffffffffffffffffffffffffffffffff16929190600f0b5f6104c5565b6104ae7f0000000000000000000000000000000000000000000000000000000000000000835f01516104868460801d90565b60208601515173ffffffffffffffffffffffffffffffffffffffff16929190600f0b5f6108da565b505060408051602081019091525f81529392505050565b80156105a6578373ffffffffffffffffffffffffffffffffffffffff1663f5298aca8461051b8873ffffffffffffffffffffffffffffffffffffffff1673ffffffffffffffffffffffffffffffffffffffff1690565b6040517fffffffff0000000000000000000000000000000000000000000000000000000060e085901b16815273ffffffffffffffffffffffffffffffffffffffff90921660048301526024820152604481018590526064015b5f604051808303815f87803b15801561058b575f80fd5b505af115801561059d573d5f803e3d5ffd5b505050506108d3565b73ffffffffffffffffffffffffffffffffffffffff8516610659576040517f6a256b2900000000000000000000000000000000000000000000000000000000815273ffffffffffffffffffffffffffffffffffffffff8681166004830152851690636a256b2990849060240160206040518083038185885af115801561062e573d5f803e3d5ffd5b50505050506040513d601f19601f820116820180604052508101906106539190610f4a565b506108d3565b6040517fa584119400000000000000000000000000000000000000000000000000000000815273ffffffffffffffffffffffffffffffffffffffff868116600483015285169063a5841194906024016020604051808303815f875af11580156106c4573d5f803e3d5ffd5b505050506040513d601f19601f820116820180604052508101906106e89190610f4a565b5073ffffffffffffffffffffffffffffffffffffffff831630146107aa576040517f23b872dd00000000000000000000000000000000000000000000000000000000815273ffffffffffffffffffffffffffffffffffffffff84811660048301528581166024830152604482018490528616906323b872dd906064016020604051808303815f875af1158015610780573d5f803e3d5ffd5b505050506040513d601f19601f820116820180604052508101906107a49190610fc2565b50610842565b6040517fa9059cbb00000000000000000000000000000000000000000000000000000000815273ffffffffffffffffffffffffffffffffffffffff85811660048301526024820184905286169063a9059cbb906044016020604051808303815f875af115801561081c573d5f803e3d5ffd5b505050506040513d601f19601f820116820180604052508101906108409190610fc2565b505b6040517f6a256b2900000000000000000000000000000000000000000000000000000000815273ffffffffffffffffffffffffffffffffffffffff8681166004830152851690636a256b29906024016020604051808303815f875af11580156108ad573d5f803e3d5ffd5b505050506040513d601f19601f820116820180604052508101906108d19190610f4a565b505b5050505050565b80610942576040517f0b0d9c0900000000000000000000000000000000000000000000000000000000815273ffffffffffffffffffffffffffffffffffffffff8681166004830152848116602483015260448201849052851690630b0d9c0990606401610574565b8373ffffffffffffffffffffffffffffffffffffffff1663156e29f6846109928873ffffffffffffffffffffffffffffffffffffffff1673ffffffffffffffffffffffffffffffffffffffff1690565b6040517fffffffff0000000000000000000000000000000000000000000000000000000060e085901b16815273ffffffffffffffffffffffffffffffffffffffff90921660048301526024820152604481018590526064015f604051808303815f87803b158015610a01575f80fd5b505af1158015610a13573d5f803e3d5ffd5b505050505050505050565b7f4e487b71000000000000000000000000000000000000000000000000000000005f52604160045260245ffd5b6040516060810167ffffffffffffffff81118282101715610a6e57610a6e610a1e565b60405290565b73ffffffffffffffffffffffffffffffffffffffff81168114610a95575f80fd5b50565b8035610aa381610a74565b919050565b5f60a08284031215610ab8575f80fd5b60405160a0810181811067ffffffffffffffff82111715610adb57610adb610a1e565b6040529050808235610aec81610a74565b81526020830135610afc81610a74565b6020820152604083013562ffffff81168114610b16575f80fd5b60408201526060830135600281900b8114610b2f575f80fd5b6060820152610b4060808401610a98565b60808201525092915050565b8015158114610a95575f80fd5b5f60608284031215610b69575f80fd5b610b71610a4b565b90508135610b7e81610b4c565b8152602082810135908201526040820135610b9881610a74565b604082015292915050565b5f806101008385031215610bb5575f80fd5b610bbf8484610aa8565b9150610bce8460a08501610b59565b90509250929050565b5f8060208385031215610be8575f80fd5b823567ffffffffffffffff80821115610bff575f80fd5b818501915085601f830112610c12575f80fd5b813581811115610c20575f80fd5b866020828501011115610c31575f80fd5b60209290920196919550909350505050565b5f5b83811015610c5d578181015183820152602001610c45565b50505f910152565b5f8151808452610c7c816020860160208601610c43565b601f017fffffffffffffffffffffffffffffffffffffffffffffffffffffffffffffffe0169290920160200192915050565b602081525f610cc06020830184610c65565b9392505050565b815173ffffffffffffffffffffffffffffffffffffffff168152602080830151610120830191610d489084018273ffffffffffffffffffffffffffffffffffffffff80825116835280602083015116602084015262ffffff6040830151166040840152606082015160020b6060840152806080830151166080840152505050565b506040928301518051151560c0840152602081015160e08401529092015173ffffffffffffffffffffffffffffffffffffffff166101009091015290565b5f60208284031215610d96575f80fd5b815167ffffffffffffffff80821115610dad575f80fd5b818401915084601f830112610dc0575f80fd5b815181811115610dd257610dd2610a1e565b604051601f82017fffffffffffffffffffffffffffffffffffffffffffffffffffffffffffffffe0908116603f01168101908382118183101715610e1857610e18610a1e565b81604052828152876020848701011115610e30575f80fd5b610e41836020830160208801610c43565b979650505050505050565b5f6101208284031215610e5d575f80fd5b610e65610a4b565b8235610e7081610a74565b8152610e7f8460208501610aa8565b6020820152610e918460c08501610b59565b60408201529392505050565b5f610120610efa838773ffffffffffffffffffffffffffffffffffffffff80825116835280602083015116602084015262ffffff6040830151166040840152606082015160020b6060840152806080830151166080840152505050565b8451151560a0840152602085015160c0840152604085015173ffffffffffffffffffffffffffffffffffffffff1660e084015280610100840152610f4081840185610c65565b9695505050505050565b5f60208284031215610f5a575f80fd5b5051919050565b5f81600f0b7fffffffffffffffffffffffffffffffff800000000000000000000000000000008103610fba577f4e487b71000000000000000000000000000000000000000000000000000000005f52601160045260245ffd5b5f0392915050565b5f60208284031215610fd2575f80fd5b8151610cc081610b4c56fea2646970667358221220d29c45625d3509d2c4799ad185d477dac6da98b6b267d0c6b84cffae63c7e7d264736f6c63430008180033","linkReferences":{}},"methodIdentifiers":{"manager()":"481c6a75","swap((address,address,uint24,int24,address),(bool,int256,uint160))":"1e2817de","unlockCallback(bytes)":"91dd7346"},"id":90}