{"abi":[{"type":"function","name":"ZERO_BALANCE","inputs":[],"outputs":[{"name":"","type":"uint256","internalType":"uint256"}],"stateMutability":"view"},{"type":"error","name":"ReservesMustBeSynced","inputs":[]}],"bytecode":{"object":"0x60a4610033600b8282823980515f1a607314602757634e487b7160e01b5f525f60045260245ffd5b305f52607381538281f3fe73000000000000000000000000000000000000000030146080604052600436106032575f3560e01c80633063399a146036575b5f80fd5b605c7fffffffffffffffffffffffffffffffffffffffffffffffffffffffffffffffff81565b60405190815260200160405180910390f3fea264697066735822122066994570882397166a9669c4ab7baad3cc3db205d99dc2eadb71e83bb6dad97364736f6c63430008180033","linkReferences":{}},"methodIdentifiers":{"ZERO_BALANCE()":"3063399a"},"id":71}