{"abi":[{"type":"constructor","inputs":[{"name":"_poolManager","type":"address","internalType":"contract IPoolManager"},{"name":"addressToEtch","type":"address","internalType":"contract FullRange"}],"stateMutability":"nonpayable"},{"type":"function","name":"_rebalance","inputs":[{"name":"key","type":"tuple","internalType":"struct PoolKey","components":[{"name":"currency0","type":"address","internalType":"Currency"},{"name":"currency1","type":"address","internalType":"Currency"},{"name":"fee","type":"uint24","internalType":"uint24"},{"name":"tickSpacing","type":"int24","internalType":"int24"},{"name":"hooks","type":"address","internalType":"contract IHooks"}]}],"outputs":[],"stateMutability":"nonpayable"},{"type":"function","name":"addLiquidity","inputs":[{"name":"params","type":"tuple","internalType":"struct FullRange.AddLiquidityParams","components":[{"name":"currency0","type":"address","internalType":"Currency"},{"name":"currency1","type":"address","internalType":"Currency"},{"name":"fee","type":"uint24","internalType":"uint24"},{"name":"amount0Desired","type":"uint256","internalType":"uint256"},{"name":"amount1Desired","type":"uint256","internalType":"uint256"},{"name":"amount0Min","type":"uint256","internalType":"uint256"},{"name":"amount1Min","type":"uint256","internalType":"uint256"},{"name":"to","type":"address","internalType":"address"},{"name":"deadline","type":"uint256","internalType":"uint256"}]}],"outputs":[{"name":"liquidity","type":"uint128","internalType":"uint128"}],"stateMutability":"nonpayable"},{"type":"function","name":"afterAddLiquidity","inputs":[{"name":"","type":"address","internalType":"address"},{"name":"","type":"tuple","internalType":"struct PoolKey","components":[{"name":"currency0","type":"address","internalType":"Currency"},{"name":"currency1","type":"address","internalType":"Currency"},{"name":"fee","type":"uint24","internalType":"uint24"},{"name":"tickSpacing","type":"int24","internalType":"int24"},{"name":"hooks","type":"address","internalType":"contract IHooks"}]},{"name":"","type":"tuple","internalType":"struct IPoolManager.ModifyLiquidityParams","components":[{"name":"tickLower","type":"int24","internalType":"int24"},{"name":"tickUpper","type":"int24","internalType":"int24"},{"name":"liquidityDelta","type":"int256","internalType":"int256"},{"name":"salt","type":"bytes32","internalType":"bytes32"}]},{"name":"","type":"int256","internalType":"BalanceDelta"},{"name":"","type":"bytes","internalType":"bytes"}],"outputs":[{"name":"","type":"bytes4","internalType":"bytes4"},{"name":"","type":"int256","internalType":"BalanceDelta"}],"stateMutability":"nonpayable"},{"type":"function","name":"afterDonate","inputs":[{"name":"","type":"address","internalType":"address"},{"name":"","type":"tuple","internalType":"struct PoolKey","components":[{"name":"currency0","type":"address","internalType":"Currency"},{"name":"currency1","type":"address","internalType":"Currency"},{"name":"fee","type":"uint24","internalType":"uint24"},{"name":"tickSpacing","type":"int24","internalType":"int24"},{"name":"hooks","type":"address","internalType":"contract IHooks"}]},{"name":"","type":"uint256","internalType":"uint256"},{"name":"","type":"uint256","internalType":"uint256"},{"name":"","type":"bytes","internalType":"bytes"}],"outputs":[{"name":"","type":"bytes4","internalType":"bytes4"}],"stateMutability":"nonpayable"},{"type":"function","name":"afterInitialize","inputs":[{"name":"","type":"address","internalType":"address"},{"name":"","type":"tuple","internalType":"struct PoolKey","components":[{"name":"currency0","type":"address","internalType":"Currency"},{"name":"currency1","type":"address","internalType":"Currency"},{"name":"fee","type":"uint24","internalType":"uint24"},{"name":"tickSpacing","type":"int24","internalType":"int24"},{"name":"hooks","type":"address","internalType":"contract IHooks"}]},{"name":"","type":"uint160","internalType":"uint160"},{"name":"","type":"int24","internalType":"int24"},{"name":"","type":"bytes","internalType":"bytes"}],"outputs":[{"name":"","type":"bytes4","internalType":"bytes4"}],"stateMutability":"nonpayable"},{"type":"function","name":"afterRemoveLiquidity","inputs":[{"name":"","type":"address","internalType":"address"},{"name":"","type":"tuple","internalType":"struct PoolKey","components":[{"name":"currency0","type":"address","internalType":"Currency"},{"name":"currency1","type":"address","internalType":"Currency"},{"name":"fee","type":"uint24","internalType":"uint24"},{"name":"tickSpacing","type":"int24","internalType":"int24"},{"name":"hooks","type":"address","internalType":"contract IHooks"}]},{"name":"","type":"tuple","internalType":"struct IPoolManager.ModifyLiquidityParams","components":[{"name":"tickLower","type":"int24","internalType":"int24"},{"name":"tickUpper","type":"int24","internalType":"int24"},{"name":"liquidityDelta","type":"int256","internalType":"int256"},{"name":"salt","type":"bytes32","internalType":"bytes32"}]},{"name":"","type":"int256","internalType":"BalanceDelta"},{"name":"","type":"bytes","internalType":"bytes"}],"outputs":[{"name":"","type":"bytes4","internalType":"bytes4"},{"name":"","type":"int256","internalType":"BalanceDelta"}],"stateMutability":"nonpayable"},{"type":"function","name":"afterSwap","inputs":[{"name":"","type":"address","internalType":"address"},{"name":"","type":"tuple","internalType":"struct PoolKey","components":[{"name":"currency0","type":"address","internalType":"Currency"},{"name":"currency1","type":"address","internalType":"Currency"},{"name":"fee","type":"uint24","internalType":"uint24"},{"name":"tickSpacing","type":"int24","internalType":"int24"},{"name":"hooks","type":"address","internalType":"contract IHooks"}]},{"name":"","type":"tuple","internalType":"struct IPoolManager.SwapParams","components":[{"name":"zeroForOne","type":"bool","internalType":"bool"},{"name":"amountSpecified","type":"int256","internalType":"int256"},{"name":"sqrtPriceLimitX96","type":"uint160","internalType":"uint160"}]},{"name":"","type":"int256","internalType":"BalanceDelta"},{"name":"","type":"bytes","internalType":"bytes"}],"outputs":[{"name":"","type":"bytes4","internalType":"bytes4"},{"name":"","type":"int128","internalType":"int128"}],"stateMutability":"nonpayable"},{"type":"function","name":"beforeAddLiquidity","inputs":[{"name":"sender","type":"address","internalType":"address"},{"name":"","type":"tuple","internalType":"struct PoolKey","components":[{"name":"currency0","type":"address","internalType":"Currency"},{"name":"currency1","type":"address","internalType":"Currency"},{"name":"fee","type":"uint24","internalType":"uint24"},{"name":"tickSpacing","type":"int24","internalType":"int24"},{"name":"hooks","type":"address","internalType":"contract IHooks"}]},{"name":"","type":"tuple","internalType":"struct IPoolManager.ModifyLiquidityParams","components":[{"name":"tickLower","type":"int24","internalType":"int24"},{"name":"tickUpper","type":"int24","internalType":"int24"},{"name":"liquidityDelta","type":"int256","internalType":"int256"},{"name":"salt","type":"bytes32","internalType":"bytes32"}]},{"name":"","type":"bytes","internalType":"bytes"}],"outputs":[{"name":"","type":"bytes4","internalType":"bytes4"}],"stateMutability":"view"},{"type":"function","name":"beforeDonate","inputs":[{"name":"","type":"address","internalType":"address"},{"name":"","type":"tuple","internalType":"struct PoolKey","components":[{"name":"currency0","type":"address","internalType":"Currency"},{"name":"currency1","type":"address","internalType":"Currency"},{"name":"fee","type":"uint24","internalType":"uint24"},{"name":"tickSpacing","type":"int24","internalType":"int24"},{"name":"hooks","type":"address","internalType":"contract IHooks"}]},{"name":"","type":"uint256","internalType":"uint256"},{"name":"","type":"uint256","internalType":"uint256"},{"name":"","type":"bytes","internalType":"bytes"}],"outputs":[{"name":"","type":"bytes4","internalType":"bytes4"}],"stateMutability":"nonpayable"},{"type":"function","name":"beforeInitialize","inputs":[{"name":"","type":"address","internalType":"address"},{"name":"key","type":"tuple","internalType":"struct PoolKey","components":[{"name":"currency0","type":"address","internalType":"Currency"},{"name":"currency1","type":"address","internalType":"Currency"},{"name":"fee","type":"uint24","internalType":"uint24"},{"name":"tickSpacing","type":"int24","internalType":"int24"},{"name":"hooks","type":"address","internalType":"contract IHooks"}]},{"name":"","type":"uint160","internalType":"uint160"},{"name":"","type":"bytes","internalType":"bytes"}],"outputs":[{"name":"","type":"bytes4","internalType":"bytes4"}],"stateMutability":"nonpayable"},{"type":"function","name":"beforeRemoveLiquidity","inputs":[{"name":"","type":"address","internalType":"address"},{"name":"","type":"tuple","internalType":"struct PoolKey","components":[{"name":"currency0","type":"address","internalType":"Currency"},{"name":"currency1","type":"address","internalType":"Currency"},{"name":"fee","type":"uint24","internalType":"uint24"},{"name":"tickSpacing","type":"int24","internalType":"int24"},{"name":"hooks","type":"address","internalType":"contract IHooks"}]},{"name":"","type":"tuple","internalType":"struct IPoolManager.ModifyLiquidityParams","components":[{"name":"tickLower","type":"int24","internalType":"int24"},{"name":"tickUpper","type":"int24","internalType":"int24"},{"name":"liquidityDelta","type":"int256","internalType":"int256"},{"name":"salt","type":"bytes32","internalType":"bytes32"}]},{"name":"","type":"bytes","internalType":"bytes"}],"outputs":[{"name":"","type":"bytes4","internalType":"bytes4"}],"stateMutability":"nonpayable"},{"type":"function","name":"beforeSwap","inputs":[{"name":"","type":"address","internalType":"address"},{"name":"key","type":"tuple","internalType":"struct PoolKey","components":[{"name":"currency0","type":"address","internalType":"Currency"},{"name":"currency1","type":"address","internalType":"Currency"},{"name":"fee","type":"uint24","internalType":"uint24"},{"name":"tickSpacing","type":"int24","internalType":"int24"},{"name":"hooks","type":"address","internalType":"contract IHooks"}]},{"name":"","type":"tuple","internalType":"struct IPoolManager.SwapParams","components":[{"name":"zeroForOne","type":"bool","internalType":"bool"},{"name":"amountSpecified","type":"int256","internalType":"int256"},{"name":"sqrtPriceLimitX96","type":"uint160","internalType":"uint160"}]},{"name":"","type":"bytes","internalType":"bytes"}],"outputs":[{"name":"","type":"bytes4","internalType":"bytes4"},{"name":"","type":"int256","internalType":"BeforeSwapDelta"},{"name":"","type":"uint24","internalType":"uint24"}],"stateMutability":"nonpayable"},{"type":"function","name":"getHookPermissions","inputs":[],"outputs":[{"name":"","type":"tuple","internalType":"struct Hooks.Permissions","components":[{"name":"beforeInitialize","type":"bool","internalType":"bool"},{"name":"afterInitialize","type":"bool","internalType":"bool"},{"name":"beforeAddLiquidity","type":"bool","internalType":"bool"},{"name":"afterAddLiquidity","type":"bool","internalType":"bool"},{"name":"beforeRemoveLiquidity","type":"bool","internalType":"bool"},{"name":"afterRemoveLiquidity","type":"bool","internalType":"bool"},{"name":"beforeSwap","type":"bool","internalType":"bool"},{"name":"afterSwap","type":"bool","internalType":"bool"},{"name":"beforeDonate","type":"bool","internalType":"bool"},{"name":"afterDonate","type":"bool","internalType":"bool"},{"name":"beforeSwapReturnDelta","type":"bool","internalType":"bool"},{"name":"afterSwapReturnDelta","type":"bool","internalType":"bool"},{"name":"afterAddLiquidityReturnDelta","type":"bool","internalType":"bool"},{"name":"afterRemoveLiquidityReturnDelta","type":"bool","internalType":"bool"}]}],"stateMutability":"pure"},{"type":"function","name":"poolInfo","inputs":[{"name":"","type":"bytes32","internalType":"PoolId"}],"outputs":[{"name":"hasAccruedFees","type":"bool","internalType":"bool"},{"name":"liquidityToken","type":"address","internalType":"address"}],"stateMutability":"view"},{"type":"function","name":"poolManager","inputs":[],"outputs":[{"name":"","type":"address","internalType":"contract IPoolManager"}],"stateMutability":"view"},{"type":"function","name":"removeLiquidity","inputs":[{"name":"params","type":"tuple","internalType":"struct FullRange.RemoveLiquidityParams","components":[{"name":"currency0","type":"address","internalType":"Currency"},{"name":"currency1","type":"address","internalType":"Currency"},{"name":"fee","type":"uint24","internalType":"uint24"},{"name":"liquidity","type":"uint256","internalType":"uint256"},{"name":"deadline","type":"uint256","internalType":"uint256"}]}],"outputs":[{"name":"delta","type":"int256","internalType":"BalanceDelta"}],"stateMutability":"nonpayable"},{"type":"function","name":"unlockCallback","inputs":[{"name":"rawData","type":"bytes","internalType":"bytes"}],"outputs":[{"name":"","type":"bytes","internalType":"bytes"}],"stateMutability":"nonpayable"},{"type":"error","name":"ExpiredPastDeadline","inputs":[]},{"type":"error","name":"HookNotImplemented","inputs":[]},{"type":"error","name":"InvalidPool","inputs":[]},{"type":"error","name":"LiquidityDoesntMeetMinimum","inputs":[]},{"type":"error","name":"LockFailure","inputs":[]},{"type":"error","name":"NotPoolManager","inputs":[]},{"type":"error","name":"NotSelf","inputs":[]},{"type":"error","name":"PoolNotInitialized","inputs":[]},{"type":"error","name":"SenderMustBeHook","inputs":[]},{"type":"error","name":"TickSpacingNotDefault","inputs":[]},{"type":"error","name":"TooMuchSlippage","inputs":[]}],"bytecode":{"object":"0x60a060405234801562000010575f80fd5b50604051620054e7380380620054e78339810160408190526200003391620002c2565b6001600160a01b038216608052816200013690508162000130604080516101c0810182525f80825260208201819052918101829052606081018290526080810182905260a0810182905260c0810182905260e08101829052610100810182905261012081018290526101408101829052610160810182905261018081018290526101a081019190915250604080516101c08101825260018082525f60208301819052928201819052606082018390526080820183905260a0820183905260c082015260e08101829052610100810182905261012081018290526101408101829052610160810182905261018081018290526101a081019190915290565b62000141565b5050620002ff565b50565b8051151561200083161515141580620001665750602081015115156110008316151514155b806200017e5750604081015115156108008316151514155b80620001965750606081015115156104008316151514155b80620001ae5750608081015115156102008316151514155b80620001c6575060a081015115156101008316151514155b80620001dd575060c0810151151560808316151514155b80620001f4575060e0810151151560408316151514155b806200020c5750610100810151151560208316151514155b80620002245750610120810151151560108316151514155b806200023c5750610140810151151560088316151514155b80620002545750610160810151151560048316151514155b806200026c5750610180810151151560028316151514155b806200028457506101a0810151151560018316151514155b156200029d576200029d630732d7b560e51b83620002a1565b5050565b815f528060045260245ffd5b6001600160a01b03811681146200013e575f80fd5b5f8060408385031215620002d4575f80fd5b8251620002e181620002ad565b6020840151909250620002f481620002ad565b809150509250929050565b608051615151620003965f395f81816104a901528181610a8601528181610b2b01528181610daa01528181610e5701528181610f50015281816110120152818161119c015281816111ca015281816113cf015281816115ba0152818161174201528181611f72015281816121000152818161223a015281816122e9015281816123d0015281816124c1015261252201526151515ff3fe608060405234801562000010575f80fd5b50600436106200012c575f3560e01c806391dd734611620000bb578063c0e026781162000087578063dc4c90d3116200006b578063dc4c90d314620004a3578063e1b4af691462000382578063ea40265314620004f1575f80fd5b8063c0e026781462000393578063c4e833ce14620003ac575f80fd5b806391dd734614620002fe578063a910f80f1462000324578063b47b2fb11462000335578063b6a8b0fa1462000382575f80fd5b80635a2a810011620000fb5780635a2a81001462000206578063610fc66c14620002565780638cebd942146200028f5780638db2b6521462000206575f80fd5b806321d0ee701462000130578063259982e5146200017d5780633440d8201462000194578063575e24b414620001ab575b5f80fd5b620001476200014136600462002e81565b62000517565b6040517fffffffff0000000000000000000000000000000000000000000000000000000090911681526020015b60405180910390f35b620001476200018e36600462002e81565b6200054a565b62000147620001a536600462002f02565b620005c7565b620001c2620001bc36600462002f75565b620008b9565b604080517fffffffff000000000000000000000000000000000000000000000000000000009094168452602084019290925262ffffff169082015260600162000174565b6200021d6200021736600462002fd7565b62000954565b604080517fffffffff00000000000000000000000000000000000000000000000000000000909316835260208301919091520162000174565b6200026d6200026736600462003062565b62000988565b6040516fffffffffffffffffffffffffffffffff909116815260200162000174565b620002d1620002a036600462003074565b5f6020819052908152604090205460ff811690610100900473ffffffffffffffffffffffffffffffffffffffff1682565b60408051921515835273ffffffffffffffffffffffffffffffffffffffff90911660208301520162000174565b620003156200030f3660046200308c565b62000d90565b6040516200017491906200313e565b620001476200014136600462003164565b6200034662000217366004620031d8565b604080517fffffffff000000000000000000000000000000000000000000000000000000009093168352600f9190910b60208301520162000174565b620001476200014136600462003243565b620003aa620003a4366004620033d9565b62000f49565b005b62000494604080516101c0810182525f80825260208201819052918101829052606081018290526080810182905260a0810182905260c0810182905260e08101829052610100810182905261012081018290526101408101829052610160810182905261018081018290526101a081019190915250604080516101c08101825260018082525f60208301819052928201819052606082018390526080820183905260a0820183905260c082015260e08101829052610100810182905261012081018290526101408101829052610160810182905261018081018290526101a081019190915290565b604051620001749190620033f6565b620004cb7f000000000000000000000000000000000000000000000000000000000000000081565b60405173ffffffffffffffffffffffffffffffffffffffff909116815260200162000174565b6200050862000502366004620034e9565b62001645565b60405190815260200162000174565b5f6040517f0a85dc2900000000000000000000000000000000000000000000000000000000815260040160405180910390fd5b5f73ffffffffffffffffffffffffffffffffffffffff861630146200059b576040517f97d95e4000000000000000000000000000000000000000000000000000000000815260040160405180910390fd5b507f259982e5000000000000000000000000000000000000000000000000000000005b95945050505050565b5f620005da608086016060870162003506565b60020b603c1462000617576040517ff59f227600000000000000000000000000000000000000000000000000000000815260040160405180910390fd5b5f620006346200062d36889003880188620033d9565b60a0902090565b90505f62000646602088018862003522565b73ffffffffffffffffffffffffffffffffffffffff166395d89b416040518163ffffffff1660e01b81526004015f60405180830381865afa1580156200068e573d5f803e3d5ffd5b505050506040513d5f823e601f3d9081017fffffffffffffffffffffffffffffffffffffffffffffffffffffffffffffffe0168201604052620006d59190810190620035d9565b620006e76040890160208a0162003522565b73ffffffffffffffffffffffffffffffffffffffff166395d89b416040518163ffffffff1660e01b81526004015f60405180830381865afa1580156200072f573d5f803e3d5ffd5b505050506040513d5f823e601f3d9081017fffffffffffffffffffffffffffffffffffffffffffffffffffffffffffffffe0168201604052620007769190810190620035d9565b620007976200078c60608b0160408c0162003623565b62ffffff16620018f2565b604051602001620007ab939291906200363f565b60405160208183030381529060405290505f8182604051620007cd9062002dde565b620007da929190620036eb565b604051809103905ff080158015620007f4573d5f803e3d5ffd5b506040805180820182525f80825273ffffffffffffffffffffffffffffffffffffffff938416602080840191825297825296819052919091209051815495517fffffffffffffffffffffff0000000000000000000000000000000000000000009096169015157fffffffffffffffffffffff0000000000000000000000000000000000000000ff1617610100959092169490940217909255507f3440d82000000000000000000000000000000000000000000000000000000000979650505050505050565b5f808080620008d26200062d368a90038a018a620033d9565b5f8181526020819052604090205490915060ff1662000922575f81815260208190526040902080547fffffffffffffffffffffffffffffffffffffffffffffffffffffffffffffff001660011790555b507f575e24b400000000000000000000000000000000000000000000000000000000985f985088975095505050505050565b5f806040517f0a85dc2900000000000000000000000000000000000000000000000000000000815260040160405180910390fd5b5f81610100013542811015620009ca576040517f82fb116800000000000000000000000000000000000000000000000000000000815260040160405180910390fd5b6040805160a081019091525f9080620009e7602087018762003522565b73ffffffffffffffffffffffffffffffffffffffff16815260200185602001602081019062000a17919062003522565b73ffffffffffffffffffffffffffffffffffffffff16815260200162000a44606087016040880162003623565b62ffffff168152603c60208201523060409091015290505f62000a688260a0902090565b90505f62000aad73ffffffffffffffffffffffffffffffffffffffff7f00000000000000000000000000000000000000000000000000000000000000001683620019b5565b50505090508073ffffffffffffffffffffffffffffffffffffffff165f0362000b02576040517f486aa30700000000000000000000000000000000000000000000000000000000815260040160405180910390fd5b5f8281526020819052604081209062000b5273ffffffffffffffffffffffffffffffffffffffff7f0000000000000000000000000000000000000000000000000000000000000000168562001a9f565b905062000bc98362000b847ffffffffffffffffffffffffffffffffffffffffffffffffffffffffffff2764c62001b4f565b62000bb962000bb37ffffffffffffffffffffffffffffffffffffffffffffffffffffffffffff2764c62003740565b62001b4f565b8b606001358c6080013562001e41565b96506fffffffffffffffffffffffffffffffff811615801562000c0057506103e86fffffffffffffffffffffffffffffffff881611155b1562000c38576040517f38b7e8cc00000000000000000000000000000000000000000000000000000000815260040160405180910390fd5b5f62000cb78660405180608001604052807ffffffffffffffffffffffffffffffffffffffffffffffffffffffffffff2764c60020b81526020017ffffffffffffffffffffffffffffffffffffffffffffffffffffffffffff2764c62000c9e9062003740565b60020b8152600a60208201525f60409091015262001f6f565b835490915073ffffffffffffffffffffffffffffffffffffffff6101009182900416906340c10f199062000cf1908c0160e08d0162003522565b6040517fffffffff0000000000000000000000000000000000000000000000000000000060e084901b16815273ffffffffffffffffffffffffffffffffffffffff90911660048201526fffffffffffffffffffffffffffffffff8b1660248201526044015f604051808303815f87803b15801562000d6d575f80fd5b505af115801562000d80573d5f803e3d5ffd5b5050505050505050505050919050565b60603373ffffffffffffffffffffffffffffffffffffffff7f0000000000000000000000000000000000000000000000000000000000000000161462000e02576040517fae18210a00000000000000000000000000000000000000000000000000000000815260040160405180910390fd5b5f62000e11838501856200377f565b90505f80826040015160400151121562000e555762000e39826020015183604001516200209b565b905062000e4f825f0151836020015183620022e7565b62000f23565b7f000000000000000000000000000000000000000000000000000000000000000073ffffffffffffffffffffffffffffffffffffffff16635a6bcfda8360200151846040015160405180602001604052805f8152506040518463ffffffff1660e01b815260040162000eca9392919062003843565b60408051808303815f875af115801562000ee6573d5f803e3d5ffd5b505050506040513d601f19601f8201168201806040525081019062000f0c9190620038e3565b508251602084015191925062000f239183620024bb565b604080516020810183905201604051602081830303815290604052925050505b92915050565b60a081205f7f000000000000000000000000000000000000000000000000000000000000000073ffffffffffffffffffffffffffffffffffffffff16635a6bcfda8460405180608001604052807ffffffffffffffffffffffffffffffffffffffffffffffffffffffffffff2764c60020b81526020017ffffffffffffffffffffffffffffffffffffffffffffffffffffffffffff2764c62000feb9062003740565b60020b8152602001620010516200103973ffffffffffffffffffffffffffffffffffffffff7f0000000000000000000000000000000000000000000000000000000000000000168962001a9f565b6fffffffffffffffffffffffffffffffff1662002585565b6200105c9062003906565b81525f6020918201819052604080519283018152908252517fffffffff0000000000000000000000000000000000000000000000000000000060e086901b168152620010ae9392919060040162003843565b60408051808303815f875af1158015620010ca573d5f803e3d5ffd5b505050506040513d601f19601f82011682018060405250810190620010f09190620038e3565b5090505f6200117e620011106c01000000000000000000000000620025a1565b6200116c620011666200112386600f0b90565b6fffffffffffffffffffffffffffffffff166c010000000000000000000000006200114e8860801d90565b6fffffffffffffffffffffffffffffffff1662002657565b620025a1565b6200117891906200393f565b62002715565b90505f620011c373ffffffffffffffffffffffffffffffffffffffff7f00000000000000000000000000000000000000000000000000000000000000001685620019b5565b50505090507f000000000000000000000000000000000000000000000000000000000000000073ffffffffffffffffffffffffffffffffffffffff1663f3cd914c8660405180606001604052808573ffffffffffffffffffffffffffffffffffffffff168773ffffffffffffffffffffffffffffffffffffffff16101515815260200160017f7fffffffffffffffffffffffffffffffffffffffffffffffffffffffffffffff620012749062003906565b62001280919062003959565b815273ffffffffffffffffffffffffffffffffffffffff87166020918201526040805191820181525f8252517fffffffff0000000000000000000000000000000000000000000000000000000060e086901b168152620012e69392919060040162003982565b6020604051808303815f875af115801562001303573d5f803e3d5ffd5b505050506040513d601f19601f8201168201806040525081019062001329919062003a28565b505f620013ca836200135b7ffffffffffffffffffffffffffffffffffffffffffffffffffffffffffff2764c62001b4f565b6200138a62000bb37ffffffffffffffffffffffffffffffffffffffffffffffffffffffffffff2764c62003740565b620013958860801d90565b6fffffffffffffffffffffffffffffffff16620013b289600f0b90565b6fffffffffffffffffffffffffffffffff1662001e41565b90505f7f000000000000000000000000000000000000000000000000000000000000000073ffffffffffffffffffffffffffffffffffffffff16635a6bcfda8860405180608001604052807ffffffffffffffffffffffffffffffffffffffffffffffffffffffffffff2764c60020b81526020017ffffffffffffffffffffffffffffffffffffffffffffffffffffffffffff2764c6200146a9062003740565b60020b81526020016200148f876fffffffffffffffffffffffffffffffff1662002585565b81525f6020918201819052604080519283018152908252517fffffffff0000000000000000000000000000000000000000000000000000000060e086901b168152620014e19392919060040162003843565b60408051808303815f875af1158015620014fd573d5f803e3d5ffd5b505050506040513d601f19601f82011682018060405250810190620015239190620038e3565b5090505f620015328260801d90565b6200153d8760801d90565b62001549919062003a40565b90505f6200155783600f0b90565b6200156288600f0b90565b6200156e919062003a40565b604080516020810182525f815290517f234266d700000000000000000000000000000000000000000000000000000000815291925073ffffffffffffffffffffffffffffffffffffffff7f0000000000000000000000000000000000000000000000000000000000000000169163234266d791620015f6918d91879187919060040162003a91565b6020604051808303815f875af115801562001613573d5f803e3d5ffd5b505050506040513d601f19601f8201168201806040525081019062001639919062003a28565b50505050505050505050565b5f81608001354281101562001686576040517f82fb116800000000000000000000000000000000000000000000000000000000815260040160405180910390fd5b6040805160a081019091525f9080620016a3602087018762003522565b73ffffffffffffffffffffffffffffffffffffffff168152602001856020016020810190620016d3919062003522565b73ffffffffffffffffffffffffffffffffffffffff16815260200162001700606087016040880162003623565b62ffffff168152603c60208201523060409091015290505f620017248260a0902090565b90505f6200176973ffffffffffffffffffffffffffffffffffffffff7f00000000000000000000000000000000000000000000000000000000000000001683620019b5565b50505090508073ffffffffffffffffffffffffffffffffffffffff165f03620017be576040517f486aa30700000000000000000000000000000000000000000000000000000000815260040160405180910390fd5b5f8281526020818152604091829020548251608081019093527ffffffffffffffffffffffffffffffffffffffffffffffffffffffffffff2764c80845261010090910473ffffffffffffffffffffffffffffffffffffffff16926200185f928792908201906200182e9062003740565b60020b8152602001620018458b6060013562002585565b620018509062003906565b81525f60209091015262001f6f565b6040517f9dc29fac0000000000000000000000000000000000000000000000000000000081523360048201526060890135602482015290965073ffffffffffffffffffffffffffffffffffffffff821690639dc29fac906044015f604051808303815f87803b158015620018d1575f80fd5b505af1158015620018e4573d5f803e3d5ffd5b505050505050505050919050565b60605f620019008362002741565b60010190505f8167ffffffffffffffff811115620019225762001922620032a3565b6040519080825280601f01601f1916602001820160405280156200194d576020820181803683370190505b5090508181016020015b7fffffffffffffffffffffffffffffffffffffffffffffffffffffffffffffffff017f3031323334353637383961626364656600000000000000000000000000000000600a86061a8153600a85049450846200195757509392505050565b5f805f805f620019c58662002829565b6040517f1e2eaeaf000000000000000000000000000000000000000000000000000000008152600481018290529091505f9073ffffffffffffffffffffffffffffffffffffffff891690631e2eaeaf90602401602060405180830381865afa15801562001a34573d5f803e3d5ffd5b505050506040513d601f19601f8201168201806040525081019062001a5a919062003a28565b905073ffffffffffffffffffffffffffffffffffffffff811695508060a01c60020b945062ffffff8160b81c16935062ffffff8160d01c169250505092959194509250565b5f8062001aac8362002829565b90505f62001abc60038362003b2f565b6040517f1e2eaeaf0000000000000000000000000000000000000000000000000000000081526004810182905290915073ffffffffffffffffffffffffffffffffffffffff861690631e2eaeaf90602401602060405180830381865afa15801562001b29573d5f803e3d5ffd5b505050506040513d601f19601f82011682018060405250810190620005be919062003a28565b5f60ff82901d80830118620d89e881111562001b725763ce8ef7fc5f526004601cfd5b7001fffcb933bd6fad37aa2d162d1a594001600182160270010000000000000000000000000000000018600282161562001bbc576ffff97272373d413259a46990580e213a0260801c5b600482161562001bdc576ffff2e50f5f656932ef12357cf3c7fdcc0260801c5b600882161562001bfc576fffe5caca7e10e4e61c3624eaa0941cd00260801c5b601082161562001c1c576fffcb9843d60f6159c9db58835c9266440260801c5b602082161562001c3c576fff973b41fa98c081472e6896dfb254c00260801c5b604082161562001c5c576fff2ea16466c96a3843ec78b326b528610260801c5b608082161562001c7c576ffe5dee046a99a2a811c461f1969c30530260801c5b61010082161562001c9d576ffcbe86c7900a88aedcffc83b479aa3a40260801c5b61020082161562001cbe576ff987a7253ac413176f2b074cf7815e540260801c5b61040082161562001cdf576ff3392b0822b70005940c7a398e4b70f30260801c5b61080082161562001d00576fe7159475a2c29b7443b29c7fa6e889d90260801c5b61100082161562001d21576fd097f3bdfd2022b8845ad8f792aa58250260801c5b61200082161562001d42576fa9f746462d870fdf8a65dc1f90e061e50260801c5b61400082161562001d63576f70d869a156d2a1b890bb3df62baf32f70260801c5b61800082161562001d84576f31be135f97d08fd981231505542fcfa60260801c5b6201000082161562001da6576f09aa508b5b7a84e1c677de54f3e99bc90260801c5b6202000082161562001dc7576e5d6af8dedb81196699c329225ee6040260801c5b6204000082161562001de7576d2216e584f5fa1ea926041bedfe980260801c5b6208000082161562001e05576b048a170391f7dc42444e8fa20260801c5b5f84131562001e31577fffffffffffffffffffffffffffffffffffffffffffffffffffffffffffffffff045b63ffffffff0160201c9392505050565b5f8373ffffffffffffffffffffffffffffffffffffffff168573ffffffffffffffffffffffffffffffffffffffff16111562001e7b579293925b8473ffffffffffffffffffffffffffffffffffffffff168673ffffffffffffffffffffffffffffffffffffffff161162001ec45762001ebc85858562002866565b9050620005be565b8373ffffffffffffffffffffffffffffffffffffffff168673ffffffffffffffffffffffffffffffffffffffff16101562001f58575f62001f0787868662002866565b90505f62001f1787898662002921565b9050806fffffffffffffffffffffffffffffffff16826fffffffffffffffffffffffffffffffff161062001f4c578062001f4e565b815b92505050620005be565b62001f6585858462002921565b9695505050505050565b5f7f000000000000000000000000000000000000000000000000000000000000000073ffffffffffffffffffffffffffffffffffffffff166348c8949160405180606001604052803373ffffffffffffffffffffffffffffffffffffffff1681526020018681526020018581525060405160200162001fef919062003b45565b6040516020818303038152906040526040518263ffffffff1660e01b81526004016200201c91906200313e565b5f604051808303815f875af115801562002038573d5f803e3d5ffd5b505050506040513d5f823e601f3d9081017fffffffffffffffffffffffffffffffffffffffffffffffffffffffffffffffe01682016040526200207f9190810190620035d9565b80602001905181019062002094919062003a28565b9392505050565b5f80620020a98460a0902090565b5f81815260208190526040902080549192509060ff1615620020d057620020d08562000f49565b5f620021d28560400151620020e59062003906565b6200212773ffffffffffffffffffffffffffffffffffffffff7f0000000000000000000000000000000000000000000000000000000000000000168662001a9f565b6fffffffffffffffffffffffffffffffff16845f0160019054906101000a900473ffffffffffffffffffffffffffffffffffffffff1673ffffffffffffffffffffffffffffffffffffffff166318160ddd6040518163ffffffff1660e01b8152600401602060405180830381865afa158015620021a6573d5f803e3d5ffd5b505050506040513d601f19601f82011682018060405250810190620021cc919062003a28565b62002657565b9050620021df8162002585565b620021ea9062003906565b60408087019190915280516020810182525f815290517f5a6bcfda00000000000000000000000000000000000000000000000000000000815273ffffffffffffffffffffffffffffffffffffffff7f00000000000000000000000000000000000000000000000000000000000000001691635a6bcfda9162002274918a918a919060040162003843565b60408051808303815f875af115801562002290573d5f803e3d5ffd5b505050506040513d601f19601f82011682018060405250810190620022b69190620038e3565b5082547fffffffffffffffffffffffffffffffffffffffffffffffffffffffffffffff001690925550949350505050565b7f000000000000000000000000000000000000000000000000000000000000000073ffffffffffffffffffffffffffffffffffffffff16630b0d9c09835f015185620023338560801d90565b6040517fffffffff0000000000000000000000000000000000000000000000000000000060e086901b16815273ffffffffffffffffffffffffffffffffffffffff93841660048201529290911660248301526fffffffffffffffffffffffffffffffff1660448201526064015f604051808303815f87803b158015620023b7575f80fd5b505af1158015620023ca573d5f803e3d5ffd5b505050507f000000000000000000000000000000000000000000000000000000000000000073ffffffffffffffffffffffffffffffffffffffff16630b0d9c098360200151856200241b85600f0b90565b6040517fffffffff0000000000000000000000000000000000000000000000000000000060e086901b16815273ffffffffffffffffffffffffffffffffffffffff93841660048201529290911660248301526fffffffffffffffffffffffffffffffff1660448201526064015f604051808303815f87803b1580156200249f575f80fd5b505af1158015620024b2573d5f803e3d5ffd5b50505050505050565b6200251c7f000000000000000000000000000000000000000000000000000000000000000084620024ec8460801d90565b620024f79062003c01565b855173ffffffffffffffffffffffffffffffffffffffff16929190600f0b5f62002986565b620025807f0000000000000000000000000000000000000000000000000000000000000000846200254d84600f0b90565b620025589062003c01565b602086015173ffffffffffffffffffffffffffffffffffffffff16929190600f0b5f62002986565b505050565b5f80821262002592575090565b6200259c62002db2565b919050565b60b581710100000000000000000000000000000000008110620025c95760409190911b9060801c5b69010000000000000000008110620025e65760209190911b9060401c5b650100000000008110620025ff5760109190911b9060201c5b63010000008110620026165760089190911b9060101c5b62010000010260121c80820401600190811c80830401811c80830401811c80830401811c80830401811c80830401811c80830401901c908190048111900390565b5f838302817fffffffffffffffffffffffffffffffffffffffffffffffffffffffffffffffff8587098281108382030391505080841162002696575f80fd5b805f03620026aa5750829004905062002094565b5f848688095f868103871696879004966002600389028118808a02820302808a02820302808a02820302808a02820302808a02820302808a02909103029181900381900460010186841190950394909402919094039290920491909117919091029150509392505050565b5f7401000000000000000000000000000000000000000082106200273d576200273d62002db2565b5090565b5f807a184f03e93ff9f4daa797ed6e38ed64bf6a1f01000000000000000083106200278a577a184f03e93ff9f4daa797ed6e38ed64bf6a1f010000000000000000830492506040015b6d04ee2d6d415b85acef81000000008310620027b7576d04ee2d6d415b85acef8100000000830492506020015b662386f26fc100008310620027d657662386f26fc10000830492506010015b6305f5e1008310620027ef576305f5e100830492506008015b61271083106200280457612710830492506004015b6064831062002817576064830492506002015b600a831062000f435760010192915050565b6040515f9062002849908390600690602001918252602082015260400190565b604051602081830303815290604052805190602001209050919050565b5f8273ffffffffffffffffffffffffffffffffffffffff168473ffffffffffffffffffffffffffffffffffffffff161115620028a0579192915b5f620028e78573ffffffffffffffffffffffffffffffffffffffff168573ffffffffffffffffffffffffffffffffffffffff166c0100000000000000000000000062002657565b9050620005be6200291b8483620028ff898962003c38565b73ffffffffffffffffffffffffffffffffffffffff1662002657565b62002dbf565b5f8273ffffffffffffffffffffffffffffffffffffffff168473ffffffffffffffffffffffffffffffffffffffff1611156200295b579192915b6200297e6200291b836c01000000000000000000000000620028ff888862003c38565b949350505050565b801562002a6b578373ffffffffffffffffffffffffffffffffffffffff1663f5298aca84620029de8873ffffffffffffffffffffffffffffffffffffffff1673ffffffffffffffffffffffffffffffffffffffff1690565b6040517fffffffff0000000000000000000000000000000000000000000000000000000060e085901b16815273ffffffffffffffffffffffffffffffffffffffff90921660048301526024820152604481018590526064015f604051808303815f87803b15801562002a4e575f80fd5b505af115801562002a61573d5f803e3d5ffd5b5050505062002dab565b73ffffffffffffffffffffffffffffffffffffffff851662002b23576040517f6a256b2900000000000000000000000000000000000000000000000000000000815273ffffffffffffffffffffffffffffffffffffffff8681166004830152851690636a256b2990849060240160206040518083038185885af115801562002af5573d5f803e3d5ffd5b50505050506040513d601f19601f8201168201806040525081019062002b1c919062003a28565b5062002dab565b6040517fa584119400000000000000000000000000000000000000000000000000000000815273ffffffffffffffffffffffffffffffffffffffff868116600483015285169063a5841194906024016020604051808303815f875af115801562002b8f573d5f803e3d5ffd5b505050506040513d601f19601f8201168201806040525081019062002bb5919062003a28565b5073ffffffffffffffffffffffffffffffffffffffff8316301462002c7c576040517f23b872dd00000000000000000000000000000000000000000000000000000000815273ffffffffffffffffffffffffffffffffffffffff84811660048301528581166024830152604482018490528616906323b872dd906064016020604051808303815f875af115801562002c4f573d5f803e3d5ffd5b505050506040513d601f19601f8201168201806040525081019062002c75919062003c68565b5062002d17565b6040517fa9059cbb00000000000000000000000000000000000000000000000000000000815273ffffffffffffffffffffffffffffffffffffffff85811660048301526024820184905286169063a9059cbb906044016020604051808303815f875af115801562002cef573d5f803e3d5ffd5b505050506040513d601f19601f8201168201806040525081019062002d15919062003c68565b505b6040517f6a256b2900000000000000000000000000000000000000000000000000000000815273ffffffffffffffffffffffffffffffffffffffff8681166004830152851690636a256b29906024016020604051808303815f875af115801562002d83573d5f803e3d5ffd5b505050506040513d601f19601f8201168201806040525081019062002da9919062003a28565b505b5050505050565b6393dafdf15f526004601cfd5b806fffffffffffffffffffffffffffffffff811681146200259c575f80fd5b6114928062003c8a83390190565b73ffffffffffffffffffffffffffffffffffffffff8116811462002e0e575f80fd5b50565b5f60a0828403121562002e22575f80fd5b50919050565b5f6080828403121562002e22575f80fd5b5f8083601f84011262002e4a575f80fd5b50813567ffffffffffffffff81111562002e62575f80fd5b60208301915083602082850101111562002e7a575f80fd5b9250929050565b5f805f805f610160868803121562002e97575f80fd5b853562002ea48162002dec565b945062002eb5876020880162002e11565b935062002ec68760c0880162002e28565b925061014086013567ffffffffffffffff81111562002ee3575f80fd5b62002ef18882890162002e39565b969995985093965092949392505050565b5f805f805f610100868803121562002f18575f80fd5b853562002f258162002dec565b945062002f36876020880162002e11565b935060c086013562002f488162002dec565b925060e086013567ffffffffffffffff81111562002ee3575f80fd5b5f6060828403121562002e22575f80fd5b5f805f805f610140868803121562002f8b575f80fd5b853562002f988162002dec565b945062002fa9876020880162002e11565b935062002fba8760c0880162002f64565b925061012086013567ffffffffffffffff81111562002ee3575f80fd5b5f805f805f80610180878903121562002fee575f80fd5b863562002ffb8162002dec565b95506200300c886020890162002e11565b94506200301d8860c0890162002e28565b9350610140870135925061016087013567ffffffffffffffff81111562003042575f80fd5b6200305089828a0162002e39565b979a9699509497509295939492505050565b5f610120828403121562002e22575f80fd5b5f6020828403121562003085575f80fd5b5035919050565b5f80602083850312156200309e575f80fd5b823567ffffffffffffffff811115620030b5575f80fd5b620030c38582860162002e39565b90969095509350505050565b5f5b83811015620030eb578181015183820152602001620030d1565b50505f910152565b5f81518084526200310c816020860160208601620030cf565b601f017fffffffffffffffffffffffffffffffffffffffffffffffffffffffffffffffe0169290920160200192915050565b602081525f620020946020830184620030f3565b8035600281900b81146200259c575f80fd5b5f805f805f8061012087890312156200317b575f80fd5b8635620031888162002dec565b955062003199886020890162002e11565b945060c0870135620031ab8162002dec565b9350620031bb60e0880162003152565b925061010087013567ffffffffffffffff81111562003042575f80fd5b5f805f805f806101608789031215620031ef575f80fd5b8635620031fc8162002dec565b95506200320d886020890162002e11565b94506200321e8860c0890162002f64565b9350610120870135925061014087013567ffffffffffffffff81111562003042575f80fd5b5f805f805f8061012087890312156200325a575f80fd5b8635620032678162002dec565b955062003278886020890162002e11565b945060c0870135935060e0870135925061010087013567ffffffffffffffff81111562003042575f80fd5b7f4e487b71000000000000000000000000000000000000000000000000000000005f52604160045260245ffd5b6040516060810167ffffffffffffffff81118282101715620032f657620032f6620032a3565b60405290565b6040516080810167ffffffffffffffff81118282101715620032f657620032f6620032a3565b803562ffffff811681146200259c575f80fd5b5f60a0828403121562003346575f80fd5b60405160a0810181811067ffffffffffffffff821117156200336c576200336c620032a3565b60405290508082356200337f8162002dec565b81526020830135620033918162002dec565b6020820152620033a46040840162003322565b6040820152620033b76060840162003152565b60608201526080830135620033cc8162002dec565b6080919091015292915050565b5f60a08284031215620033ea575f80fd5b62002094838362003335565b8151151581526101c08101602083015162003415602084018215159052565b5060408301516200342a604084018215159052565b5060608301516200343f606084018215159052565b50608083015162003454608084018215159052565b5060a08301516200346960a084018215159052565b5060c08301516200347e60c084018215159052565b5060e08301516200349360e084018215159052565b5061010083810151151590830152610120808401511515908301526101408084015115159083015261016080840151151590830152610180808401511515908301526101a0928301511515929091019190915290565b5f60a08284031215620034fa575f80fd5b62002094838362002e11565b5f6020828403121562003517575f80fd5b620020948262003152565b5f6020828403121562003533575f80fd5b8135620020948162002dec565b5f67ffffffffffffffff808411156200355d576200355d620032a3565b604051601f85017fffffffffffffffffffffffffffffffffffffffffffffffffffffffffffffffe0908116603f01168101908282118183101715620035a657620035a6620032a3565b81604052809350858152868686011115620035bf575f80fd5b620035cf866020830187620030cf565b5050509392505050565b5f60208284031215620035ea575f80fd5b815167ffffffffffffffff81111562003601575f80fd5b8201601f8101841362003612575f80fd5b6200297e8482516020840162003540565b5f6020828403121562003634575f80fd5b620020948262003322565b7f556e69563400000000000000000000000000000000000000000000000000000081525f7f2d0000000000000000000000000000000000000000000000000000000000000080600584015285516200369f816006860160208a01620030cf565b80840190508160068201528551620036bf816007840160208a01620030cf565b016007810191909152835190620036de826008830160208801620030cf565b0160080195945050505050565b604081525f620036ff6040830185620030f3565b8281036020840152620005be8185620030f3565b7f4e487b71000000000000000000000000000000000000000000000000000000005f52601160045260245ffd5b5f8160020b7fffffffffffffffffffffffffffffffffffffffffffffffffffffffffff800000810362003777576200377762003713565b5f0392915050565b5f81830361014081121562003792575f80fd5b6200379c620032d0565b8335620037a98162002dec565b8152620037ba856020860162003335565b602082015260807fffffffffffffffffffffffffffffffffffffffffffffffffffffffffffffff4083011215620037ef575f80fd5b620037f9620032fc565b91506200380960c0850162003152565b82526200381960e0850162003152565b60208301526101008401356040808401919091526101209094013560608301529283015250919050565b5f610140620038a1838773ffffffffffffffffffffffffffffffffffffffff80825116835280602083015116602084015262ffffff6040830151166040840152606082015160020b6060840152806080830151166080840152505050565b8451600290810b60a08501526020860151900b60c0840152604085015160e084015260608501516101008401528061012084015262001f6581840185620030f3565b5f8060408385031215620038f5575f80fd5b505080516020909101519092909150565b5f7f8000000000000000000000000000000000000000000000000000000000000000820362003939576200393962003713565b505f0390565b808202811582820484141762000f435762000f4362003713565b8181035f8312801583831316838312821617156200397b576200397b62003713565b5092915050565b5f610120620039e0838773ffffffffffffffffffffffffffffffffffffffff80825116835280602083015116602084015262ffffff6040830151166040840152606082015160020b6060840152806080830151166080840152505050565b8451151560a0840152602085015160c084015273ffffffffffffffffffffffffffffffffffffffff60408601511660e08401528061010084015262001f6581840185620030f3565b5f6020828403121562003a39575f80fd5b5051919050565b600f81810b9083900b016f7fffffffffffffffffffffffffffffff81137fffffffffffffffffffffffffffffffff800000000000000000000000000000008212171562000f435762000f4362003713565b5f61010062003aef838873ffffffffffffffffffffffffffffffffffffffff80825116835280602083015116602084015262ffffff6040830151166040840152606082015160020b6060840152806080830151166080840152505050565b6fffffffffffffffffffffffffffffffff86811660a0850152851660c084015260e0830181905262003b2481840185620030f3565b979650505050505050565b8082018082111562000f435762000f4362003713565b815173ffffffffffffffffffffffffffffffffffffffff16815260208083015161014083019162003bc79084018273ffffffffffffffffffffffffffffffffffffffff80825116835280602083015116602084015262ffffff6040830151166040840152606082015160020b6060840152806080830151166080840152505050565b506040838101518051600290810b60c08601526020820151900b60e08501529081015161010084015260608101516101208401526200397b565b5f81600f0b7fffffffffffffffffffffffffffffffff80000000000000000000000000000000810362003777576200377762003713565b73ffffffffffffffffffffffffffffffffffffffff8281168282160390808211156200397b576200397b62003713565b5f6020828403121562003c79575f80fd5b8151801515811462002094575f80fdfe60e060405234801562000010575f80fd5b50604051620014923803806200149283398101604081905262000033916200021e565b33828260125f6200004584826200030e565b5060016200005483826200030e565b5060ff81166080524660a0526200006a620000c3565b60c0525050600680546001600160a01b0319166001600160a01b0384169081179091556040519091505f907f8be0079c531659141344cd1fd0a4f28419497f9722a3daafe3b4186f6b6457e0908290a350505062000454565b5f7f8b73c3c69bb8fe3d512ecc4cf759cc79239f7b179b0ffacaa9a75d522b39400f5f604051620000f59190620003da565b6040805191829003822060208301939093528101919091527fc89efdaa54c0f20c7adf612882df0950f5a951637e0307cdcb4c672f298b8bc660608201524660808201523060a082015260c00160405160208183030381529060405280519060200120905090565b634e487b7160e01b5f52604160045260245ffd5b5f82601f83011262000181575f80fd5b81516001600160401b03808211156200019e576200019e6200015d565b604051601f8301601f19908116603f01168101908282118183101715620001c957620001c96200015d565b8160405283815260209250866020858801011115620001e6575f80fd5b5f91505b83821015620002095785820183015181830184015290820190620001ea565b5f602085830101528094505050505092915050565b5f806040838503121562000230575f80fd5b82516001600160401b038082111562000247575f80fd5b620002558683870162000171565b935060208501519150808211156200026b575f80fd5b506200027a8582860162000171565b9150509250929050565b600181811c908216806200029957607f821691505b602082108103620002b857634e487b7160e01b5f52602260045260245ffd5b50919050565b601f8211156200030957805f5260205f20601f840160051c81016020851015620002e55750805b601f840160051c820191505b8181101562000306575f8155600101620002f1565b50505b505050565b81516001600160401b038111156200032a576200032a6200015d565b62000342816200033b845462000284565b84620002be565b602080601f83116001811462000378575f8415620003605750858301515b5f19600386901b1c1916600185901b178555620003d2565b5f85815260208120601f198616915b82811015620003a85788860151825594840194600190910190840162000387565b5085821015620003c657878501515f19600388901b60f8161c191681555b505060018460011b0185555b505050505050565b5f808354620003e98162000284565b600182811680156200040457600181146200041a5762000448565b60ff198416875282151583028701945062000448565b875f526020805f205f5b858110156200043f5781548a82015290840190820162000424565b50505082870194505b50929695505050505050565b60805160a05160c0516110136200047f5f395f61053d01525f61050801525f61016f01526110135ff3fe608060405234801561000f575f80fd5b50600436106100fb575f3560e01c80637ecebe0011610093578063a9059cbb11610063578063a9059cbb1461025e578063d505accf14610271578063dd62ed3e14610284578063f2fde38b146102ae575f80fd5b80637ecebe00146101df5780638da5cb5b146101fe57806395d89b41146102435780639dc29fac1461024b575f80fd5b8063313ce567116100ce578063313ce5671461016a5780633644e515146101a357806340c10f19146101ab57806370a08231146101c0575f80fd5b806306fdde03146100ff578063095ea7b31461011d57806318160ddd1461014057806323b872dd14610157575b5f80fd5b6101076102c1565b6040516101149190610cb3565b60405180910390f35b61013061012b366004610d45565b61034c565b6040519015158152602001610114565b61014960025481565b604051908152602001610114565b610130610165366004610d6d565b6103c5565b6101917f000000000000000000000000000000000000000000000000000000000000000081565b60405160ff9091168152602001610114565b610149610505565b6101be6101b9366004610d45565b61055f565b005b6101496101ce366004610da6565b60036020525f908152604090205481565b6101496101ed366004610da6565b60056020525f908152604090205481565b60065461021e9073ffffffffffffffffffffffffffffffffffffffff1681565b60405173ffffffffffffffffffffffffffffffffffffffff9091168152602001610114565b6101076105f3565b6101be610259366004610d45565b610600565b61013061026c366004610d45565b61068b565b6101be61027f366004610dc6565b61070e565b610149610292366004610e33565b600460209081525f928352604080842090915290825290205481565b6101be6102bc366004610da6565b610a27565b5f80546102cd90610e64565b80601f01602080910402602001604051908101604052809291908181526020018280546102f990610e64565b80156103445780601f1061031b57610100808354040283529160200191610344565b820191905f5260205f20905b81548152906001019060200180831161032757829003601f168201915b505050505081565b335f81815260046020908152604080832073ffffffffffffffffffffffffffffffffffffffff8716808552925280832085905551919290917f8c5be1e5ebec7d5bd14f71427d1e84f3dd0314c0f7b2291e5b200ac8c7c3b925906103b39086815260200190565b60405180910390a35060015b92915050565b73ffffffffffffffffffffffffffffffffffffffff83165f9081526004602090815260408083203384529091528120547fffffffffffffffffffffffffffffffffffffffffffffffffffffffffffffffff8114610457576104268382610ee2565b73ffffffffffffffffffffffffffffffffffffffff86165f9081526004602090815260408083203384529091529020555b73ffffffffffffffffffffffffffffffffffffffff85165f908152600360205260408120805485929061048b908490610ee2565b909155505073ffffffffffffffffffffffffffffffffffffffff8085165f81815260036020526040908190208054870190555190918716907fddf252ad1be2c89b69c2b068fc378daa952ba7f163c4a11628f55a4df523b3ef906104f29087815260200190565b60405180910390a3506001949350505050565b5f7f0000000000000000000000000000000000000000000000000000000000000000461461053a57610535610b18565b905090565b507f000000000000000000000000000000000000000000000000000000000000000090565b60065473ffffffffffffffffffffffffffffffffffffffff1633146105e5576040517f08c379a000000000000000000000000000000000000000000000000000000000815260206004820152600c60248201527f554e415554484f52495a4544000000000000000000000000000000000000000060448201526064015b60405180910390fd5b6105ef8282610bb0565b5050565b600180546102cd90610e64565b60065473ffffffffffffffffffffffffffffffffffffffff163314610681576040517f08c379a000000000000000000000000000000000000000000000000000000000815260206004820152600c60248201527f554e415554484f52495a4544000000000000000000000000000000000000000060448201526064016105dc565b6105ef8282610c27565b335f908152600360205260408120805483919083906106ab908490610ee2565b909155505073ffffffffffffffffffffffffffffffffffffffff83165f81815260036020526040908190208054850190555133907fddf252ad1be2c89b69c2b068fc378daa952ba7f163c4a11628f55a4df523b3ef906103b39086815260200190565b42841015610778576040517f08c379a000000000000000000000000000000000000000000000000000000000815260206004820152601760248201527f5045524d49545f444541444c494e455f4558504952454400000000000000000060448201526064016105dc565b5f6001610783610505565b73ffffffffffffffffffffffffffffffffffffffff8a81165f8181526005602090815260409182902080546001810190915582517f6e71edae12b1b97f4d1f60370fef10105fa2faae0126114a169c64845d6126c98184015280840194909452938d166060840152608083018c905260a083019390935260c08083018b90528151808403909101815260e0830190915280519201919091207f190100000000000000000000000000000000000000000000000000000000000061010083015261010282019290925261012281019190915261014201604080517fffffffffffffffffffffffffffffffffffffffffffffffffffffffffffffffe081840301815282825280516020918201205f84529083018083525260ff871690820152606081018590526080810184905260a0016020604051602081039080840390855afa1580156108d1573d5f803e3d5ffd5b50506040517fffffffffffffffffffffffffffffffffffffffffffffffffffffffffffffffe0015191505073ffffffffffffffffffffffffffffffffffffffff81161580159061094c57508773ffffffffffffffffffffffffffffffffffffffff168173ffffffffffffffffffffffffffffffffffffffff16145b6109b2576040517f08c379a000000000000000000000000000000000000000000000000000000000815260206004820152600e60248201527f494e56414c49445f5349474e455200000000000000000000000000000000000060448201526064016105dc565b73ffffffffffffffffffffffffffffffffffffffff9081165f9081526004602090815260408083208a8516808552908352928190208990555188815291928a16917f8c5be1e5ebec7d5bd14f71427d1e84f3dd0314c0f7b2291e5b200ac8c7c3b925910160405180910390a350505050505050565b60065473ffffffffffffffffffffffffffffffffffffffff163314610aa8576040517f08c379a000000000000000000000000000000000000000000000000000000000815260206004820152600c60248201527f554e415554484f52495a4544000000000000000000000000000000000000000060448201526064016105dc565b600680547fffffffffffffffffffffffff00000000000000000000000000000000000000001673ffffffffffffffffffffffffffffffffffffffff831690811790915560405133907f8be0079c531659141344cd1fd0a4f28419497f9722a3daafe3b4186f6b6457e0905f90a350565b5f7f8b73c3c69bb8fe3d512ecc4cf759cc79239f7b179b0ffacaa9a75d522b39400f5f604051610b489190610ef5565b6040805191829003822060208301939093528101919091527fc89efdaa54c0f20c7adf612882df0950f5a951637e0307cdcb4c672f298b8bc660608201524660808201523060a082015260c00160405160208183030381529060405280519060200120905090565b8060025f828254610bc19190610fca565b909155505073ffffffffffffffffffffffffffffffffffffffff82165f818152600360209081526040808320805486019055518481527fddf252ad1be2c89b69c2b068fc378daa952ba7f163c4a11628f55a4df523b3ef91015b60405180910390a35050565b73ffffffffffffffffffffffffffffffffffffffff82165f9081526003602052604081208054839290610c5b908490610ee2565b90915550506002805482900390556040518181525f9073ffffffffffffffffffffffffffffffffffffffff8416907fddf252ad1be2c89b69c2b068fc378daa952ba7f163c4a11628f55a4df523b3ef90602001610c1b565b5f602080835283518060208501525f5b81811015610cdf57858101830151858201604001528201610cc3565b505f6040828601015260407fffffffffffffffffffffffffffffffffffffffffffffffffffffffffffffffe0601f8301168501019250505092915050565b803573ffffffffffffffffffffffffffffffffffffffff81168114610d40575f80fd5b919050565b5f8060408385031215610d56575f80fd5b610d5f83610d1d565b946020939093013593505050565b5f805f60608486031215610d7f575f80fd5b610d8884610d1d565b9250610d9660208501610d1d565b9150604084013590509250925092565b5f60208284031215610db6575f80fd5b610dbf82610d1d565b9392505050565b5f805f805f805f60e0888a031215610ddc575f80fd5b610de588610d1d565b9650610df360208901610d1d565b95506040880135945060608801359350608088013560ff81168114610e16575f80fd5b9699959850939692959460a0840135945060c09093013592915050565b5f8060408385031215610e44575f80fd5b610e4d83610d1d565b9150610e5b60208401610d1d565b90509250929050565b600181811c90821680610e7857607f821691505b602082108103610eaf577f4e487b71000000000000000000000000000000000000000000000000000000005f52602260045260245ffd5b50919050565b7f4e487b71000000000000000000000000000000000000000000000000000000005f52601160045260245ffd5b818103818111156103bf576103bf610eb5565b5f8083545f60018260011c91506001831680610f1257607f831692505b60208084108203610f4a577f4e487b71000000000000000000000000000000000000000000000000000000005f52602260045260245ffd5b818015610f5e5760018114610f9157610fbc565b7fffffffffffffffffffffffffffffffffffffffffffffffffffffffffffffff0086168952841515850289019650610fbc565b5f8a8152602090205f5b86811015610fb45781548b820152908501908301610f9b565b505084890196505b509498975050505050505050565b808201808211156103bf576103bf610eb556fea2646970667358221220aaacc47a95418ab25ef30965b8c3a0a0c47be7c89c212835cafb98787dddd48364736f6c63430008180033a2646970667358221220f1fe44dbc9f7f0ae71a8bd62df1b6fd51e1f06d86a9fbf78e4db20480638753064736f6c63430008180033","linkReferences":{}},"methodIdentifiers":{"_rebalance((address,address,uint24,int24,address))":"c0e02678","addLiquidity((address,address,uint24,uint256,uint256,uint256,uint256,address,uint256))":"610fc66c","afterAddLiquidity(address,(address,address,uint24,int24,address),(int24,int24,int256,bytes32),int256,bytes)":"5a2a8100","afterDonate(address,(address,address,uint24,int24,address),uint256,uint256,bytes)":"e1b4af69","afterInitialize(address,(address,address,uint24,int24,address),uint160,int24,bytes)":"a910f80f","afterRemoveLiquidity(address,(address,address,uint24,int24,address),(int24,int24,int256,bytes32),int256,bytes)":"8db2b652","afterSwap(address,(address,address,uint24,int24,address),(bool,int256,uint160),int256,bytes)":"b47b2fb1","beforeAddLiquidity(address,(address,address,uint24,int24,address),(int24,int24,int256,bytes32),bytes)":"259982e5","beforeDonate(address,(address,address,uint24,int24,address),uint256,uint256,bytes)":"b6a8b0fa","beforeInitialize(address,(address,address,uint24,int24,address),uint160,bytes)":"3440d820","beforeRemoveLiquidity(address,(address,address,uint24,int24,address),(int24,int24,int256,bytes32),bytes)":"21d0ee70","beforeSwap(address,(address,address,uint24,int24,address),(bool,int256,uint160),bytes)":"575e24b4","getHookPermissions()":"c4e833ce","poolInfo(bytes32)":"8cebd942","poolManager()":"dc4c90d3","removeLiquidity((address,address,uint24,uint256,uint256))":"ea402653","unlockCallback(bytes)":"91dd7346"},"id":111}