{"abi":[{"type":"constructor","inputs":[{"name":"_manager","type":"address","internalType":"contract IPoolManager"}],"stateMutability":"nonpayable"},{"type":"function","name":"manager","inputs":[],"outputs":[{"name":"","type":"address","internalType":"contract IPoolManager"}],"stateMutability":"view"},{"type":"function","name":"settle","inputs":[{"name":"key","type":"tuple","internalType":"struct PoolKey","components":[{"name":"currency0","type":"address","internalType":"Currency"},{"name":"currency1","type":"address","internalType":"Currency"},{"name":"fee","type":"uint24","internalType":"uint24"},{"name":"tickSpacing","type":"int24","internalType":"int24"},{"name":"hooks","type":"address","internalType":"contract IHooks"}]}],"outputs":[],"stateMutability":"payable"},{"type":"function","name":"unlockCallback","inputs":[{"name":"rawData","type":"bytes","internalType":"bytes"}],"outputs":[{"name":"","type":"bytes","internalType":"bytes"}],"stateMutability":"nonpayable"}],"bytecode":{"object":"0x60a060405234801561000f575f80fd5b5060405161074038038061074083398101604081905261002e9161003f565b6001600160a01b031660805261006c565b5f6020828403121561004f575f80fd5b81516001600160a01b0381168114610065575f80fd5b9392505050565b6080516106a86100985f395f818160480152818161014d0152818161022001526102a401526106a85ff3fe608060405260043610610033575f3560e01c8063481c6a75146100375780636c68a77b1461009457806391dd7346146100a9575b5f80fd5b348015610042575f80fd5b5061006a7f000000000000000000000000000000000000000000000000000000000000000081565b60405173ffffffffffffffffffffffffffffffffffffffff90911681526020015b60405180910390f35b6100a76100a236600461043a565b6100d5565b005b3480156100b4575f80fd5b506100c86100c336600461045b565b610206565b60405161008b91906104e9565b60408051808201825233808252602091820184815283518084019290925251805173ffffffffffffffffffffffffffffffffffffffff908116838601529281015183166060808401919091529381015162ffffff166080808401919091529381015160020b60a08301529290920151811660c08301527f000000000000000000000000000000000000000000000000000000000000000016906348c894919060e0016040516020818303038152906040526040518263ffffffff1660e01b81526004016101a291906104e9565b5f604051808303815f875af11580156101bd573d5f803e3d5ffd5b505050506040513d5f823e601f3d9081017fffffffffffffffffffffffffffffffffffffffffffffffffffffffffffffffe01682016040526102029190810190610539565b5050565b60603373ffffffffffffffffffffffffffffffffffffffff7f00000000000000000000000000000000000000000000000000000000000000001614610249575f80fd5b5f610256838501856105ff565b6020810151516040517f6a256b2900000000000000000000000000000000000000000000000000000000815273ffffffffffffffffffffffffffffffffffffffff91821660048201529192507f00000000000000000000000000000000000000000000000000000000000000001690636a256b2990479060240160206040518083038185885af11580156102ec573d5f803e3d5ffd5b50505050506040513d601f19601f82011682018060405250810190610311919061065b565b50604080515f60208201520160405160208183030381529060405291505092915050565b7f4e487b71000000000000000000000000000000000000000000000000000000005f52604160045260245ffd5b73ffffffffffffffffffffffffffffffffffffffff81168114610383575f80fd5b50565b803561039181610362565b919050565b5f60a082840312156103a6575f80fd5b60405160a0810181811067ffffffffffffffff821117156103c9576103c9610335565b60405290508082356103da81610362565b815260208301356103ea81610362565b6020820152604083013562ffffff81168114610404575f80fd5b60408201526060830135600281900b811461041d575f80fd5b606082015261042e60808401610386565b60808201525092915050565b5f60a0828403121561044a575f80fd5b6104548383610396565b9392505050565b5f806020838503121561046c575f80fd5b823567ffffffffffffffff80821115610483575f80fd5b818501915085601f830112610496575f80fd5b8135818111156104a4575f80fd5b8660208285010111156104b5575f80fd5b60209290920196919550909350505050565b5f5b838110156104e15781810151838201526020016104c9565b50505f910152565b602081525f82518060208401526105078160408501602087016104c7565b601f017fffffffffffffffffffffffffffffffffffffffffffffffffffffffffffffffe0169190910160400192915050565b5f60208284031215610549575f80fd5b815167ffffffffffffffff80821115610560575f80fd5b818401915084601f830112610573575f80fd5b81518181111561058557610585610335565b604051601f82017fffffffffffffffffffffffffffffffffffffffffffffffffffffffffffffffe0908116603f011681019083821181831017156105cb576105cb610335565b816040528281528760208487010111156105e3575f80fd5b6105f48360208301602088016104c7565b979650505050505050565b5f60c0828403121561060f575f80fd5b6040516040810181811067ffffffffffffffff8211171561063257610632610335565b604052823561064081610362565b815261064f8460208501610396565b60208201529392505050565b5f6020828403121561066b575f80fd5b505191905056fea2646970667358221220b774a754597280689adadf0e9a04e31c0e8e4aacd47541d6ee1d51531995166c64736f6c63430008180033","linkReferences":{}},"methodIdentifiers":{"manager()":"481c6a75","settle((address,address,uint24,int24,address))":"6c68a77b","unlockCallback(bytes)":"91dd7346"},"id":85}