{"abi":[{"type":"constructor","inputs":[{"name":"_manager","type":"address","internalType":"contract IPoolManager"}],"stateMutability":"nonpayable"},{"type":"function","name":"donate","inputs":[{"name":"key","type":"tuple","internalType":"struct PoolKey","components":[{"name":"currency0","type":"address","internalType":"Currency"},{"name":"currency1","type":"address","internalType":"Currency"},{"name":"fee","type":"uint24","internalType":"uint24"},{"name":"tickSpacing","type":"int24","internalType":"int24"},{"name":"hooks","type":"address","internalType":"contract IHooks"}]},{"name":"amount0","type":"uint256","internalType":"uint256"},{"name":"amount1","type":"uint256","internalType":"uint256"},{"name":"hookData","type":"bytes","internalType":"bytes"}],"outputs":[{"name":"delta","type":"int256","internalType":"BalanceDelta"}],"stateMutability":"payable"},{"type":"function","name":"manager","inputs":[],"outputs":[{"name":"","type":"address","internalType":"contract IPoolManager"}],"stateMutability":"view"},{"type":"function","name":"unlockCallback","inputs":[{"name":"rawData","type":"bytes","internalType":"bytes"}],"outputs":[{"name":"","type":"bytes","internalType":"bytes"}],"stateMutability":"nonpayable"}],"bytecode":{"object":"0x60a060405234801561000f575f80fd5b5060405161164238038061164283398101604081905261002e9161003f565b6001600160a01b031660805261006c565b5f6020828403121561004f575f80fd5b81516001600160a01b0381168114610065575f80fd5b9392505050565b6080516115816100c15f395f8181606e0152818160e40152818161024001528181610386015281816105b2015281816106100152818161068f015281816106e7015281816107fb015261083b01526115815ff3fe608060405260043610610033575f3560e01c8063234266d714610037578063481c6a751461005d57806391dd7346146100b5575b5f80fd5b61004a61004536600461111e565b6100e1565b6040519081526020015b60405180910390f35b348015610068575f80fd5b506100907f000000000000000000000000000000000000000000000000000000000000000081565b60405173ffffffffffffffffffffffffffffffffffffffff9091168152602001610054565b3480156100c0575f80fd5b506100d46100cf36600461117d565b610226565b6040516100549190611254565b5f7f000000000000000000000000000000000000000000000000000000000000000073ffffffffffffffffffffffffffffffffffffffff166348c894916040518060a001604052803373ffffffffffffffffffffffffffffffffffffffff1681526020018881526020018781526020018681526020018581525060405160200161016b919061126d565b6040516020818303038152906040526040518263ffffffff1660e01b81526004016101969190611254565b5f604051808303815f875af11580156101b1573d5f803e3d5ffd5b505050506040513d5f823e601f3d9081017fffffffffffffffffffffffffffffffffffffffffffffffffffffffffffffffe01682016040526101f69190810190611328565b8060200190518101906102099190611391565b905047801561021d5761021d5f3383610738565b50949350505050565b60603373ffffffffffffffffffffffffffffffffffffffff7f00000000000000000000000000000000000000000000000000000000000000001614610269575f80fd5b5f610276838501856113a8565b90505f61028e82602001515f0151835f0151306107ba565b925050505f6102a9836020015160200151845f0151306107ba565b92505050815f1461031b576040517f08c379a000000000000000000000000000000000000000000000000000000000815260206004820152601560248201527f64656c74614265666f726530206973206e6f742030000000000000000000000060448201526064015b60405180910390fd5b8015610383576040517f08c379a000000000000000000000000000000000000000000000000000000000815260206004820152601560248201527f64656c74614265666f726531206973206e6f74203000000000000000000000006044820152606401610312565b5f7f000000000000000000000000000000000000000000000000000000000000000073ffffffffffffffffffffffffffffffffffffffff1663234266d785602001518660400151876060015188608001516040518563ffffffff1660e01b81526004016103f3949392919061144b565b6020604051808303815f875af115801561040f573d5f803e3d5ffd5b505050506040513d601f19601f820116820180604052508101906104339190611391565b90505f61044b85602001515f0151865f0151306107ba565b925050505f610466866020015160200151875f0151306107ba565b925050508560400151610478906114d1565b8214610506576040517f08c379a000000000000000000000000000000000000000000000000000000000815260206004820152603160248201527f64656c7461416674657230206973206e6f7420657175616c20746f202d696e7460448201527f32353628646174612e616d6f756e7430290000000000000000000000000000006064820152608401610312565b8560600151610514906114d1565b81146105a2576040517f08c379a000000000000000000000000000000000000000000000000000000000815260206004820152603160248201527f64656c7461416674657231206973206e6f7420657175616c20746f202d696e7460448201527f32353628646174612e616d6f756e7431290000000000000000000000000000006064820152608401610312565b5f821215610600578551610600907f0000000000000000000000000000000000000000000000000000000000000000906105db856114d1565b60208a01515173ffffffffffffffffffffffffffffffffffffffff169291905f61086d565b5f811215610660578551610660907f000000000000000000000000000000000000000000000000000000000000000090610639846114d1565b6020808b0151015173ffffffffffffffffffffffffffffffffffffffff169291905f61086d565b5f8213156106b65785516020870151516106b69173ffffffffffffffffffffffffffffffffffffffff909116907f000000000000000000000000000000000000000000000000000000000000000090855f610c82565b5f81131561070e578551602080880151015161070e9173ffffffffffffffffffffffffffffffffffffffff909116907f000000000000000000000000000000000000000000000000000000000000000090845f610c82565b60408051602081018590520160405160208183030381529060405296505050505050505b92915050565b73ffffffffffffffffffffffffffffffffffffffff8316610771575f805f8084865af161076c5763f4b3b1bc5f526004601cfd5b505050565b81601452806034526fa9059cbb0000000000000000000000005f5260205f604460105f875af13d1560015f511417166107b15763f27f64e45f526004601cfd5b5f603452505050565b5f80806107dd73ffffffffffffffffffffffffffffffffffffffff871686610dc6565b925061081f73ffffffffffffffffffffffffffffffffffffffff87167f0000000000000000000000000000000000000000000000000000000000000000610dc6565b915061086273ffffffffffffffffffffffffffffffffffffffff7f0000000000000000000000000000000000000000000000000000000000000000168588610e95565b905093509350939050565b801561094e578373ffffffffffffffffffffffffffffffffffffffff1663f5298aca846108c38873ffffffffffffffffffffffffffffffffffffffff1673ffffffffffffffffffffffffffffffffffffffff1690565b6040517fffffffff0000000000000000000000000000000000000000000000000000000060e085901b16815273ffffffffffffffffffffffffffffffffffffffff90921660048301526024820152604481018590526064015b5f604051808303815f87803b158015610933575f80fd5b505af1158015610945573d5f803e3d5ffd5b50505050610c7b565b73ffffffffffffffffffffffffffffffffffffffff8516610a01576040517f6a256b2900000000000000000000000000000000000000000000000000000000815273ffffffffffffffffffffffffffffffffffffffff8681166004830152851690636a256b2990849060240160206040518083038185885af11580156109d6573d5f803e3d5ffd5b50505050506040513d601f19601f820116820180604052508101906109fb9190611391565b50610c7b565b6040517fa584119400000000000000000000000000000000000000000000000000000000815273ffffffffffffffffffffffffffffffffffffffff868116600483015285169063a5841194906024016020604051808303815f875af1158015610a6c573d5f803e3d5ffd5b505050506040513d601f19601f82011682018060405250810190610a909190611391565b5073ffffffffffffffffffffffffffffffffffffffff83163014610b52576040517f23b872dd00000000000000000000000000000000000000000000000000000000815273ffffffffffffffffffffffffffffffffffffffff84811660048301528581166024830152604482018490528616906323b872dd906064016020604051808303815f875af1158015610b28573d5f803e3d5ffd5b505050506040513d601f19601f82011682018060405250810190610b4c919061152c565b50610bea565b6040517fa9059cbb00000000000000000000000000000000000000000000000000000000815273ffffffffffffffffffffffffffffffffffffffff85811660048301526024820184905286169063a9059cbb906044016020604051808303815f875af1158015610bc4573d5f803e3d5ffd5b505050506040513d601f19601f82011682018060405250810190610be8919061152c565b505b6040517f6a256b2900000000000000000000000000000000000000000000000000000000815273ffffffffffffffffffffffffffffffffffffffff8681166004830152851690636a256b29906024016020604051808303815f875af1158015610c55573d5f803e3d5ffd5b505050506040513d601f19601f82011682018060405250810190610c799190611391565b505b5050505050565b80610cea576040517f0b0d9c0900000000000000000000000000000000000000000000000000000000815273ffffffffffffffffffffffffffffffffffffffff8681166004830152848116602483015260448201849052851690630b0d9c099060640161091c565b8373ffffffffffffffffffffffffffffffffffffffff1663156e29f684610d3a8873ffffffffffffffffffffffffffffffffffffffff1673ffffffffffffffffffffffffffffffffffffffff1690565b6040517fffffffff0000000000000000000000000000000000000000000000000000000060e085901b16815273ffffffffffffffffffffffffffffffffffffffff90921660048301526024820152604481018590526064015f604051808303815f87803b158015610da9575f80fd5b505af1158015610dbb573d5f803e3d5ffd5b505050505050505050565b5f73ffffffffffffffffffffffffffffffffffffffff8316610e00575073ffffffffffffffffffffffffffffffffffffffff811631610732565b6040517f70a0823100000000000000000000000000000000000000000000000000000000815273ffffffffffffffffffffffffffffffffffffffff83811660048301528416906370a0823190602401602060405180830381865afa158015610e6a573d5f803e3d5ffd5b505050506040513d601f19601f82011682018060405250810190610e8e9190611391565b9050610732565b5f8281526020829052604080822090517ff135baaa0000000000000000000000000000000000000000000000000000000081526004810182905273ffffffffffffffffffffffffffffffffffffffff86169063f135baaa90602401602060405180830381865afa158015610f0b573d5f803e3d5ffd5b505050506040513d601f19601f82011682018060405250810190610f2f9190611391565b95945050505050565b7f4e487b71000000000000000000000000000000000000000000000000000000005f52604160045260245ffd5b60405160a0810167ffffffffffffffff81118282101715610f8857610f88610f38565b60405290565b604051601f82017fffffffffffffffffffffffffffffffffffffffffffffffffffffffffffffffe016810167ffffffffffffffff81118282101715610fd557610fd5610f38565b604052919050565b73ffffffffffffffffffffffffffffffffffffffff81168114610ffe575f80fd5b50565b5f60a08284031215611011575f80fd5b611019610f65565b9050813561102681610fdd565b8152602082013561103681610fdd565b6020820152604082013562ffffff81168114611050575f80fd5b60408201526060820135600281900b8114611069575f80fd5b6060820152608082013561107c81610fdd565b608082015292915050565b5f67ffffffffffffffff8211156110a0576110a0610f38565b50601f017fffffffffffffffffffffffffffffffffffffffffffffffffffffffffffffffe01660200190565b5f82601f8301126110db575f80fd5b81356110ee6110e982611087565b610f8e565b818152846020838601011115611102575f80fd5b816020850160208301375f918101602001919091529392505050565b5f805f806101008587031215611132575f80fd5b61113c8686611001565b935060a0850135925060c0850135915060e085013567ffffffffffffffff811115611165575f80fd5b611171878288016110cc565b91505092959194509250565b5f806020838503121561118e575f80fd5b823567ffffffffffffffff808211156111a5575f80fd5b818501915085601f8301126111b8575f80fd5b8135818111156111c6575f80fd5b8660208285010111156111d7575f80fd5b60209290920196919550909350505050565b5f5b838110156112035781810151838201526020016111eb565b50505f910152565b5f81518084526112228160208601602086016111e9565b601f017fffffffffffffffffffffffffffffffffffffffffffffffffffffffffffffffe0169290920160200192915050565b602081525f611266602083018461120b565b9392505050565b6020815273ffffffffffffffffffffffffffffffffffffffff82511660208201525f60208301516112f0604084018273ffffffffffffffffffffffffffffffffffffffff80825116835280602083015116602084015262ffffff6040830151166040840152606082015160020b6060840152806080830151166080840152505050565b50604083015160e0830152606083015161010083015260808301516101208084015261132061014084018261120b565b949350505050565b5f60208284031215611338575f80fd5b815167ffffffffffffffff81111561134e575f80fd5b8201601f8101841361135e575f80fd5b805161136c6110e982611087565b818152856020838501011115611380575f80fd5b610f2f8260208301602086016111e9565b5f602082840312156113a1575f80fd5b5051919050565b5f602082840312156113b8575f80fd5b813567ffffffffffffffff808211156113cf575f80fd5b9083019061012082860312156113e3575f80fd5b6113eb610f65565b82356113f681610fdd565b81526114058660208501611001565b602082015260c0830135604082015260e0830135606082015261010083013582811115611430575f80fd5b61143c878286016110cc565b60808301525095945050505050565b5f6101006114a8838873ffffffffffffffffffffffffffffffffffffffff80825116835280602083015116602084015262ffffff6040830151166040840152606082015160020b6060840152806080830151166080840152505050565b8560a08401528460c08401528060e08401526114c68184018561120b565b979650505050505050565b5f7f80000000000000000000000000000000000000000000000000000000000000008203611526577f4e487b71000000000000000000000000000000000000000000000000000000005f52601160045260245ffd5b505f0390565b5f6020828403121561153c575f80fd5b81518015158114611266575f80fdfea2646970667358221220aa4991cc2514c7bf86517a5e08c3c04fc27417abe769712a079d7b485764d77c64736f6c63430008180033","linkReferences":{}},"methodIdentifiers":{"donate((address,address,uint24,int24,address),uint256,uint256,bytes)":"234266d7","manager()":"481c6a75","unlockCallback(bytes)":"91dd7346"},"id":81}