{"abi":[{"type":"constructor","inputs":[{"name":"name","type":"string","internalType":"string"},{"name":"symbol","type":"string","internalType":"string"}],"stateMutability":"nonpayable"},{"type":"function","name":"DOMAIN_SEPARATOR","inputs":[],"outputs":[{"name":"","type":"bytes32","internalType":"bytes32"}],"stateMutability":"view"},{"type":"function","name":"allowance","inputs":[{"name":"","type":"address","internalType":"address"},{"name":"","type":"address","internalType":"address"}],"outputs":[{"name":"","type":"uint256","internalType":"uint256"}],"stateMutability":"view"},{"type":"function","name":"approve","inputs":[{"name":"spender","type":"address","internalType":"address"},{"name":"amount","type":"uint256","internalType":"uint256"}],"outputs":[{"name":"","type":"bool","internalType":"bool"}],"stateMutability":"nonpayable"},{"type":"function","name":"balanceOf","inputs":[{"name":"","type":"address","internalType":"address"}],"outputs":[{"name":"","type":"uint256","internalType":"uint256"}],"stateMutability":"view"},{"type":"function","name":"burn","inputs":[{"name":"account","type":"address","internalType":"address"},{"name":"amount","type":"uint256","internalType":"uint256"}],"outputs":[],"stateMutability":"nonpayable"},{"type":"function","name":"decimals","inputs":[],"outputs":[{"name":"","type":"uint8","internalType":"uint8"}],"stateMutability":"view"},{"type":"function","name":"mint","inputs":[{"name":"account","type":"address","internalType":"address"},{"name":"amount","type":"uint256","internalType":"uint256"}],"outputs":[],"stateMutability":"nonpayable"},{"type":"function","name":"name","inputs":[],"outputs":[{"name":"","type":"string","internalType":"string"}],"stateMutability":"view"},{"type":"function","name":"nonces","inputs":[{"name":"","type":"address","internalType":"address"}],"outputs":[{"name":"","type":"uint256","internalType":"uint256"}],"stateMutability":"view"},{"type":"function","name":"owner","inputs":[],"outputs":[{"name":"","type":"address","internalType":"address"}],"stateMutability":"view"},{"type":"function","name":"permit","inputs":[{"name":"owner","type":"address","internalType":"address"},{"name":"spender","type":"address","internalType":"address"},{"name":"value","type":"uint256","internalType":"uint256"},{"name":"deadline","type":"uint256","internalType":"uint256"},{"name":"v","type":"uint8","internalType":"uint8"},{"name":"r","type":"bytes32","internalType":"bytes32"},{"name":"s","type":"bytes32","internalType":"bytes32"}],"outputs":[],"stateMutability":"nonpayable"},{"type":"function","name":"symbol","inputs":[],"outputs":[{"name":"","type":"string","internalType":"string"}],"stateMutability":"view"},{"type":"function","name":"totalSupply","inputs":[],"outputs":[{"name":"","type":"uint256","internalType":"uint256"}],"stateMutability":"view"},{"type":"function","name":"transfer","inputs":[{"name":"to","type":"address","internalType":"address"},{"name":"amount","type":"uint256","internalType":"uint256"}],"outputs":[{"name":"","type":"bool","internalType":"bool"}],"stateMutability":"nonpayable"},{"type":"function","name":"transferFrom","inputs":[{"name":"from","type":"address","internalType":"address"},{"name":"to","type":"address","internalType":"address"},{"name":"amount","type":"uint256","internalType":"uint256"}],"outputs":[{"name":"","type":"bool","internalType":"bool"}],"stateMutability":"nonpayable"},{"type":"function","name":"transferOwnership","inputs":[{"name":"newOwner","type":"address","internalType":"address"}],"outputs":[],"stateMutability":"nonpayable"},{"type":"event","name":"Approval","inputs":[{"name":"owner","type":"address","indexed":true,"internalType":"address"},{"name":"spender","type":"address","indexed":true,"internalType":"address"},{"name":"amount","type":"uint256","indexed":false,"internalType":"uint256"}],"anonymous":false},{"type":"event","name":"OwnershipTransferred","inputs":[{"name":"user","type":"address","indexed":true,"internalType":"address"},{"name":"newOwner","type":"address","indexed":true,"internalType":"address"}],"anonymous":false},{"type":"event","name":"Transfer","inputs":[{"name":"from","type":"address","indexed":true,"internalType":"address"},{"name":"to","type":"address","indexed":true,"internalType":"address"},{"name":"amount","type":"uint256","indexed":false,"internalType":"uint256"}],"anonymous":false}],"bytecode":{"object":"0x60e060405234801562000010575f80fd5b50604051620014923803806200149283398101604081905262000033916200021e565b33828260125f6200004584826200030e565b5060016200005483826200030e565b5060ff81166080524660a0526200006a620000c3565b60c0525050600680546001600160a01b0319166001600160a01b0384169081179091556040519091505f907f8be0079c531659141344cd1fd0a4f28419497f9722a3daafe3b4186f6b6457e0908290a350505062000454565b5f7f8b73c3c69bb8fe3d512ecc4cf759cc79239f7b179b0ffacaa9a75d522b39400f5f604051620000f59190620003da565b6040805191829003822060208301939093528101919091527fc89efdaa54c0f20c7adf612882df0950f5a951637e0307cdcb4c672f298b8bc660608201524660808201523060a082015260c00160405160208183030381529060405280519060200120905090565b634e487b7160e01b5f52604160045260245ffd5b5f82601f83011262000181575f80fd5b81516001600160401b03808211156200019e576200019e6200015d565b604051601f8301601f19908116603f01168101908282118183101715620001c957620001c96200015d565b8160405283815260209250866020858801011115620001e6575f80fd5b5f91505b83821015620002095785820183015181830184015290820190620001ea565b5f602085830101528094505050505092915050565b5f806040838503121562000230575f80fd5b82516001600160401b038082111562000247575f80fd5b620002558683870162000171565b935060208501519150808211156200026b575f80fd5b506200027a8582860162000171565b9150509250929050565b600181811c908216806200029957607f821691505b602082108103620002b857634e487b7160e01b5f52602260045260245ffd5b50919050565b601f8211156200030957805f5260205f20601f840160051c81016020851015620002e55750805b601f840160051c820191505b8181101562000306575f8155600101620002f1565b50505b505050565b81516001600160401b038111156200032a576200032a6200015d565b62000342816200033b845462000284565b84620002be565b602080601f83116001811462000378575f8415620003605750858301515b5f19600386901b1c1916600185901b178555620003d2565b5f85815260208120601f198616915b82811015620003a85788860151825594840194600190910190840162000387565b5085821015620003c657878501515f19600388901b60f8161c191681555b505060018460011b0185555b505050505050565b5f808354620003e98162000284565b600182811680156200040457600181146200041a5762000448565b60ff198416875282151583028701945062000448565b875f526020805f205f5b858110156200043f5781548a82015290840190820162000424565b50505082870194505b50929695505050505050565b60805160a05160c0516110136200047f5f395f61053d01525f61050801525f61016f01526110135ff3fe608060405234801561000f575f80fd5b50600436106100fb575f3560e01c80637ecebe0011610093578063a9059cbb11610063578063a9059cbb1461025e578063d505accf14610271578063dd62ed3e14610284578063f2fde38b146102ae575f80fd5b80637ecebe00146101df5780638da5cb5b146101fe57806395d89b41146102435780639dc29fac1461024b575f80fd5b8063313ce567116100ce578063313ce5671461016a5780633644e515146101a357806340c10f19146101ab57806370a08231146101c0575f80fd5b806306fdde03146100ff578063095ea7b31461011d57806318160ddd1461014057806323b872dd14610157575b5f80fd5b6101076102c1565b6040516101149190610cb3565b60405180910390f35b61013061012b366004610d45565b61034c565b6040519015158152602001610114565b61014960025481565b604051908152602001610114565b610130610165366004610d6d565b6103c5565b6101917f000000000000000000000000000000000000000000000000000000000000000081565b60405160ff9091168152602001610114565b610149610505565b6101be6101b9366004610d45565b61055f565b005b6101496101ce366004610da6565b60036020525f908152604090205481565b6101496101ed366004610da6565b60056020525f908152604090205481565b60065461021e9073ffffffffffffffffffffffffffffffffffffffff1681565b60405173ffffffffffffffffffffffffffffffffffffffff9091168152602001610114565b6101076105f3565b6101be610259366004610d45565b610600565b61013061026c366004610d45565b61068b565b6101be61027f366004610dc6565b61070e565b610149610292366004610e33565b600460209081525f928352604080842090915290825290205481565b6101be6102bc366004610da6565b610a27565b5f80546102cd90610e64565b80601f01602080910402602001604051908101604052809291908181526020018280546102f990610e64565b80156103445780601f1061031b57610100808354040283529160200191610344565b820191905f5260205f20905b81548152906001019060200180831161032757829003601f168201915b505050505081565b335f81815260046020908152604080832073ffffffffffffffffffffffffffffffffffffffff8716808552925280832085905551919290917f8c5be1e5ebec7d5bd14f71427d1e84f3dd0314c0f7b2291e5b200ac8c7c3b925906103b39086815260200190565b60405180910390a35060015b92915050565b73ffffffffffffffffffffffffffffffffffffffff83165f9081526004602090815260408083203384529091528120547fffffffffffffffffffffffffffffffffffffffffffffffffffffffffffffffff8114610457576104268382610ee2565b73ffffffffffffffffffffffffffffffffffffffff86165f9081526004602090815260408083203384529091529020555b73ffffffffffffffffffffffffffffffffffffffff85165f908152600360205260408120805485929061048b908490610ee2565b909155505073ffffffffffffffffffffffffffffffffffffffff8085165f81815260036020526040908190208054870190555190918716907fddf252ad1be2c89b69c2b068fc378daa952ba7f163c4a11628f55a4df523b3ef906104f29087815260200190565b60405180910390a3506001949350505050565b5f7f0000000000000000000000000000000000000000000000000000000000000000461461053a57610535610b18565b905090565b507f000000000000000000000000000000000000000000000000000000000000000090565b60065473ffffffffffffffffffffffffffffffffffffffff1633146105e5576040517f08c379a000000000000000000000000000000000000000000000000000000000815260206004820152600c60248201527f554e415554484f52495a4544000000000000000000000000000000000000000060448201526064015b60405180910390fd5b6105ef8282610bb0565b5050565b600180546102cd90610e64565b60065473ffffffffffffffffffffffffffffffffffffffff163314610681576040517f08c379a000000000000000000000000000000000000000000000000000000000815260206004820152600c60248201527f554e415554484f52495a4544000000000000000000000000000000000000000060448201526064016105dc565b6105ef8282610c27565b335f908152600360205260408120805483919083906106ab908490610ee2565b909155505073ffffffffffffffffffffffffffffffffffffffff83165f81815260036020526040908190208054850190555133907fddf252ad1be2c89b69c2b068fc378daa952ba7f163c4a11628f55a4df523b3ef906103b39086815260200190565b42841015610778576040517f08c379a000000000000000000000000000000000000000000000000000000000815260206004820152601760248201527f5045524d49545f444541444c494e455f4558504952454400000000000000000060448201526064016105dc565b5f6001610783610505565b73ffffffffffffffffffffffffffffffffffffffff8a81165f8181526005602090815260409182902080546001810190915582517f6e71edae12b1b97f4d1f60370fef10105fa2faae0126114a169c64845d6126c98184015280840194909452938d166060840152608083018c905260a083019390935260c08083018b90528151808403909101815260e0830190915280519201919091207f190100000000000000000000000000000000000000000000000000000000000061010083015261010282019290925261012281019190915261014201604080517fffffffffffffffffffffffffffffffffffffffffffffffffffffffffffffffe081840301815282825280516020918201205f84529083018083525260ff871690820152606081018590526080810184905260a0016020604051602081039080840390855afa1580156108d1573d5f803e3d5ffd5b50506040517fffffffffffffffffffffffffffffffffffffffffffffffffffffffffffffffe0015191505073ffffffffffffffffffffffffffffffffffffffff81161580159061094c57508773ffffffffffffffffffffffffffffffffffffffff168173ffffffffffffffffffffffffffffffffffffffff16145b6109b2576040517f08c379a000000000000000000000000000000000000000000000000000000000815260206004820152600e60248201527f494e56414c49445f5349474e455200000000000000000000000000000000000060448201526064016105dc565b73ffffffffffffffffffffffffffffffffffffffff9081165f9081526004602090815260408083208a8516808552908352928190208990555188815291928a16917f8c5be1e5ebec7d5bd14f71427d1e84f3dd0314c0f7b2291e5b200ac8c7c3b925910160405180910390a350505050505050565b60065473ffffffffffffffffffffffffffffffffffffffff163314610aa8576040517f08c379a000000000000000000000000000000000000000000000000000000000815260206004820152600c60248201527f554e415554484f52495a4544000000000000000000000000000000000000000060448201526064016105dc565b600680547fffffffffffffffffffffffff00000000000000000000000000000000000000001673ffffffffffffffffffffffffffffffffffffffff831690811790915560405133907f8be0079c531659141344cd1fd0a4f28419497f9722a3daafe3b4186f6b6457e0905f90a350565b5f7f8b73c3c69bb8fe3d512ecc4cf759cc79239f7b179b0ffacaa9a75d522b39400f5f604051610b489190610ef5565b6040805191829003822060208301939093528101919091527fc89efdaa54c0f20c7adf612882df0950f5a951637e0307cdcb4c672f298b8bc660608201524660808201523060a082015260c00160405160208183030381529060405280519060200120905090565b8060025f828254610bc19190610fca565b909155505073ffffffffffffffffffffffffffffffffffffffff82165f818152600360209081526040808320805486019055518481527fddf252ad1be2c89b69c2b068fc378daa952ba7f163c4a11628f55a4df523b3ef91015b60405180910390a35050565b73ffffffffffffffffffffffffffffffffffffffff82165f9081526003602052604081208054839290610c5b908490610ee2565b90915550506002805482900390556040518181525f9073ffffffffffffffffffffffffffffffffffffffff8416907fddf252ad1be2c89b69c2b068fc378daa952ba7f163c4a11628f55a4df523b3ef90602001610c1b565b5f602080835283518060208501525f5b81811015610cdf57858101830151858201604001528201610cc3565b505f6040828601015260407fffffffffffffffffffffffffffffffffffffffffffffffffffffffffffffffe0601f8301168501019250505092915050565b803573ffffffffffffffffffffffffffffffffffffffff81168114610d40575f80fd5b919050565b5f8060408385031215610d56575f80fd5b610d5f83610d1d565b946020939093013593505050565b5f805f60608486031215610d7f575f80fd5b610d8884610d1d565b9250610d9660208501610d1d565b9150604084013590509250925092565b5f60208284031215610db6575f80fd5b610dbf82610d1d565b9392505050565b5f805f805f805f60e0888a031215610ddc575f80fd5b610de588610d1d565b9650610df360208901610d1d565b95506040880135945060608801359350608088013560ff81168114610e16575f80fd5b9699959850939692959460a0840135945060c09093013592915050565b5f8060408385031215610e44575f80fd5b610e4d83610d1d565b9150610e5b60208401610d1d565b90509250929050565b600181811c90821680610e7857607f821691505b602082108103610eaf577f4e487b71000000000000000000000000000000000000000000000000000000005f52602260045260245ffd5b50919050565b7f4e487b71000000000000000000000000000000000000000000000000000000005f52601160045260245ffd5b818103818111156103bf576103bf610eb5565b5f8083545f60018260011c91506001831680610f1257607f831692505b60208084108203610f4a577f4e487b71000000000000000000000000000000000000000000000000000000005f52602260045260245ffd5b818015610f5e5760018114610f9157610fbc565b7fffffffffffffffffffffffffffffffffffffffffffffffffffffffffffffff0086168952841515850289019650610fbc565b5f8a8152602090205f5b86811015610fb45781548b820152908501908301610f9b565b505084890196505b509498975050505050505050565b808201808211156103bf576103bf610eb556fea2646970667358221220aaacc47a95418ab25ef30965b8c3a0a0c47be7c89c212835cafb98787dddd48364736f6c63430008180033","linkReferences":{}},"methodIdentifiers":{"DOMAIN_SEPARATOR()":"3644e515","allowance(address,address)":"dd62ed3e","approve(address,uint256)":"095ea7b3","balanceOf(address)":"70a08231","burn(address,uint256)":"9dc29fac","decimals()":"313ce567","mint(address,uint256)":"40c10f19","name()":"06fdde03","nonces(address)":"7ecebe00","owner()":"8da5cb5b","permit(address,address,uint256,uint256,uint8,bytes32,bytes32)":"d505accf","symbol()":"95d89b41","totalSupply()":"18160ddd","transfer(address,uint256)":"a9059cbb","transferFrom(address,address,uint256)":"23b872dd","transferOwnership(address)":"f2fde38b"},"id":27}