{"abi":[{"type":"constructor","inputs":[{"name":"_manager","type":"address","internalType":"contract IPoolManager"}],"stateMutability":"nonpayable"},{"type":"function","name":"manager","inputs":[],"outputs":[{"name":"","type":"address","internalType":"contract IPoolManager"}],"stateMutability":"view"},{"type":"function","name":"modifyLiquidity","inputs":[{"name":"key","type":"tuple","internalType":"struct PoolKey","components":[{"name":"currency0","type":"address","internalType":"Currency"},{"name":"currency1","type":"address","internalType":"Currency"},{"name":"fee","type":"uint24","internalType":"uint24"},{"name":"tickSpacing","type":"int24","internalType":"int24"},{"name":"hooks","type":"address","internalType":"contract IHooks"}]},{"name":"params","type":"tuple","internalType":"struct IPoolManager.ModifyLiquidityParams","components":[{"name":"tickLower","type":"int24","internalType":"int24"},{"name":"tickUpper","type":"int24","internalType":"int24"},{"name":"liquidityDelta","type":"int256","internalType":"int256"},{"name":"salt","type":"bytes32","internalType":"bytes32"}]},{"name":"hookData","type":"bytes","internalType":"bytes"},{"name":"settleUsingBurn","type":"bool","internalType":"bool"},{"name":"takeClaims","type":"bool","internalType":"bool"}],"outputs":[{"name":"delta","type":"int256","internalType":"BalanceDelta"}],"stateMutability":"payable"},{"type":"function","name":"modifyLiquidity","inputs":[{"name":"key","type":"tuple","internalType":"struct PoolKey","components":[{"name":"currency0","type":"address","internalType":"Currency"},{"name":"currency1","type":"address","internalType":"Currency"},{"name":"fee","type":"uint24","internalType":"uint24"},{"name":"tickSpacing","type":"int24","internalType":"int24"},{"name":"hooks","type":"address","internalType":"contract IHooks"}]},{"name":"params","type":"tuple","internalType":"struct IPoolManager.ModifyLiquidityParams","components":[{"name":"tickLower","type":"int24","internalType":"int24"},{"name":"tickUpper","type":"int24","internalType":"int24"},{"name":"liquidityDelta","type":"int256","internalType":"int256"},{"name":"salt","type":"bytes32","internalType":"bytes32"}]},{"name":"hookData","type":"bytes","internalType":"bytes"}],"outputs":[{"name":"delta","type":"int256","internalType":"BalanceDelta"}],"stateMutability":"payable"},{"type":"function","name":"unlockCallback","inputs":[{"name":"rawData","type":"bytes","internalType":"bytes"}],"outputs":[{"name":"","type":"bytes","internalType":"bytes"}],"stateMutability":"nonpayable"}],"bytecode":{"object":"0x60a060405234801561000f575f80fd5b50604051611aaf380380611aaf83398101604081905261002e9161003f565b6001600160a01b031660805261006c565b5f6020828403121561004f575f80fd5b81516001600160a01b0381168114610065575f80fd5b9392505050565b6080516119df6100d05f395f81816079015281816101020152818161027f015281816102f30152818161036f01528181610422015281816105a50152818161060801528181610691015281816106ef0152818161089c01526108dc01526119df5ff3fe60806040526004361061003e575f3560e01c80630a5b11e414610042578063481c6a75146100685780635a6bcfda146100c057806391dd7346146100d3575b5f80fd5b6100556100503660046113e9565b6100ff565b6040519081526020015b60405180910390f35b348015610073575f80fd5b5061009b7f000000000000000000000000000000000000000000000000000000000000000081565b60405173ffffffffffffffffffffffffffffffffffffffff909116815260200161005f565b6100556100ce366004611470565b61024f565b3480156100de575f80fd5b506100f26100ed3660046114ce565b610265565b60405161005f91906115a5565b5f7f000000000000000000000000000000000000000000000000000000000000000073ffffffffffffffffffffffffffffffffffffffff166348c894916040518060c001604052803373ffffffffffffffffffffffffffffffffffffffff168152602001898152602001888152602001878152602001861515815260200185151581525060405160200161019391906115be565b6040516020818303038152906040526040518263ffffffff1660e01b81526004016101be91906115a5565b5f604051808303815f875af11580156101d9573d5f803e3d5ffd5b505050506040513d5f823e601f3d9081017fffffffffffffffffffffffffffffffffffffffffffffffffffffffffffffffe016820160405261021e91908101906116b6565b806020019051810190610231919061171f565b9050478015610245576102455f3383610741565b5095945050505050565b5f61025d8484845f806100ff565b949350505050565b60603373ffffffffffffffffffffffffffffffffffffffff7f000000000000000000000000000000000000000000000000000000000000000016146102a8575f80fd5b5f6102b583850185611736565b90505f61031d6102ca836020015160a0902090565b60408401518051602082015160609092015173ffffffffffffffffffffffffffffffffffffffff7f00000000000000000000000000000000000000000000000000000000000000001693923092916107c3565b516020830151604080850151606086015191517f5a6bcfda0000000000000000000000000000000000000000000000000000000081529394505f9373ffffffffffffffffffffffffffffffffffffffff7f00000000000000000000000000000000000000000000000000000000000000001693635a6bcfda936103a49391926004016117fb565b60408051808303815f875af11580156103bf573d5f803e3d5ffd5b505050506040513d601f19601f820116820180604052508101906103e391906118a2565b5090505f61044c6103f9856020015160a0902090565b60408601518051602082015160609092015173ffffffffffffffffffffffffffffffffffffffff7f00000000000000000000000000000000000000000000000000000000000000001693923092916107c3565b5160208501515185519192505f9161046591903061085b565b925050505f610480866020015160200151875f01513061085b565b9250505082600f0b86604001516040015186600f0b61049f91906118f1565b1461050a576040517f08c379a000000000000000000000000000000000000000000000000000000000815260206004820152601a60248201527f6c6971756964697479206368616e676520696e636f7272656374000000000000604482015260640160405180910390fd5b5f8660400151604001511215610552575f82138061052757505f81135b61053357610533611918565b5f82128061054057505f81125b1561054d5761054d611918565b610595565b5f8660400151604001511315610595575f82128061056f57505f81125b61057b5761057b611918565b5f82138061058857505f81135b1561059557610595611918565b5f8212156105f85785516105f8907f0000000000000000000000000000000000000000000000000000000000000000906105ce85611945565b60808a015160208b01515173ffffffffffffffffffffffffffffffffffffffff169392919061090e565b5f81121561065d57855161065d907f00000000000000000000000000000000000000000000000000000000000000009061063184611945565b60808a01516020808c0151015173ffffffffffffffffffffffffffffffffffffffff169392919061090e565b5f8213156106b957855160a08701516020880151516106b99273ffffffffffffffffffffffffffffffffffffffff909116917f000000000000000000000000000000000000000000000000000000000000000091908690610d23565b5f81131561071757855160a087015160208089015101516107179273ffffffffffffffffffffffffffffffffffffffff909116917f000000000000000000000000000000000000000000000000000000000000000091908590610d23565b60408051602081018690520160405160208183030381529060405296505050505050505b92915050565b73ffffffffffffffffffffffffffffffffffffffff831661077a575f805f8084865af16107755763f4b3b1bc5f526004601cfd5b505050565b81601452806034526fa9059cbb0000000000000000000000005f5260205f604460105f875af13d1560015f511417166107ba5763f27f64e45f526004601cfd5b5f603452505050565b6107f660405180606001604052805f6fffffffffffffffffffffffffffffffff1681526020015f81526020015f81525090565b5f826026528360065284600352855f52603a600c2090505f6026525f805f61081f8b8b86610e67565b604080516060810182526fffffffffffffffffffffffffffffffff90941684526020840192909252908201529450505050509695505050505050565b5f808061087e73ffffffffffffffffffffffffffffffffffffffff871686610f4e565b92506108c073ffffffffffffffffffffffffffffffffffffffff87167f0000000000000000000000000000000000000000000000000000000000000000610f4e565b915061090373ffffffffffffffffffffffffffffffffffffffff7f000000000000000000000000000000000000000000000000000000000000000016858861101d565b905093509350939050565b80156109ef578373ffffffffffffffffffffffffffffffffffffffff1663f5298aca846109648873ffffffffffffffffffffffffffffffffffffffff1673ffffffffffffffffffffffffffffffffffffffff1690565b6040517fffffffff0000000000000000000000000000000000000000000000000000000060e085901b16815273ffffffffffffffffffffffffffffffffffffffff90921660048301526024820152604481018590526064015b5f604051808303815f87803b1580156109d4575f80fd5b505af11580156109e6573d5f803e3d5ffd5b50505050610d1c565b73ffffffffffffffffffffffffffffffffffffffff8516610aa2576040517f6a256b2900000000000000000000000000000000000000000000000000000000815273ffffffffffffffffffffffffffffffffffffffff8681166004830152851690636a256b2990849060240160206040518083038185885af1158015610a77573d5f803e3d5ffd5b50505050506040513d601f19601f82011682018060405250810190610a9c919061171f565b50610d1c565b6040517fa584119400000000000000000000000000000000000000000000000000000000815273ffffffffffffffffffffffffffffffffffffffff868116600483015285169063a5841194906024016020604051808303815f875af1158015610b0d573d5f803e3d5ffd5b505050506040513d601f19601f82011682018060405250810190610b31919061171f565b5073ffffffffffffffffffffffffffffffffffffffff83163014610bf3576040517f23b872dd00000000000000000000000000000000000000000000000000000000815273ffffffffffffffffffffffffffffffffffffffff84811660048301528581166024830152604482018490528616906323b872dd906064016020604051808303815f875af1158015610bc9573d5f803e3d5ffd5b505050506040513d601f19601f82011682018060405250810190610bed919061197b565b50610c8b565b6040517fa9059cbb00000000000000000000000000000000000000000000000000000000815273ffffffffffffffffffffffffffffffffffffffff85811660048301526024820184905286169063a9059cbb906044016020604051808303815f875af1158015610c65573d5f803e3d5ffd5b505050506040513d601f19601f82011682018060405250810190610c89919061197b565b505b6040517f6a256b2900000000000000000000000000000000000000000000000000000000815273ffffffffffffffffffffffffffffffffffffffff8681166004830152851690636a256b29906024016020604051808303815f875af1158015610cf6573d5f803e3d5ffd5b505050506040513d601f19601f82011682018060405250810190610d1a919061171f565b505b5050505050565b80610d8b576040517f0b0d9c0900000000000000000000000000000000000000000000000000000000815273ffffffffffffffffffffffffffffffffffffffff8681166004830152848116602483015260448201849052851690630b0d9c09906064016109bd565b8373ffffffffffffffffffffffffffffffffffffffff1663156e29f684610ddb8873ffffffffffffffffffffffffffffffffffffffff1673ffffffffffffffffffffffffffffffffffffffff1690565b6040517fffffffff0000000000000000000000000000000000000000000000000000000060e085901b16815273ffffffffffffffffffffffffffffffffffffffff90921660048301526024820152604481018590526064015f604051808303815f87803b158015610e4a575f80fd5b505af1158015610e5c573d5f803e3d5ffd5b505050505050505050565b5f805f80610e7586866110c0565b6040517f35fd631a00000000000000000000000000000000000000000000000000000000815260048101829052600360248201529091505f9073ffffffffffffffffffffffffffffffffffffffff8916906335fd631a906044015f60405180830381865afa158015610ee9573d5f803e3d5ffd5b505050506040513d5f823e601f3d9081017fffffffffffffffffffffffffffffffffffffffffffffffffffffffffffffffe0168201604052610f2e91908101906116b6565b60208101516040820151606090920151909a919950975095505050505050565b5f73ffffffffffffffffffffffffffffffffffffffff8316610f88575073ffffffffffffffffffffffffffffffffffffffff81163161073b565b6040517f70a0823100000000000000000000000000000000000000000000000000000000815273ffffffffffffffffffffffffffffffffffffffff83811660048301528416906370a0823190602401602060405180830381865afa158015610ff2573d5f803e3d5ffd5b505050506040513d601f19601f82011682018060405250810190611016919061171f565b905061073b565b5f8281526020829052604080822090517ff135baaa0000000000000000000000000000000000000000000000000000000081526004810182905273ffffffffffffffffffffffffffffffffffffffff86169063f135baaa90602401602060405180830381865afa158015611093573d5f803e3d5ffd5b505050506040513d601f19601f820116820180604052508101906110b7919061171f565b95945050505050565b5f806110cb84611110565b90505f6110d9600683611996565b6040805160208101879052908101829052909150606001604051602081830303815290604052805190602001209250505092915050565b6040515f9061112f908390600690602001918252602082015260400190565b604051602081830303815290604052805190602001209050919050565b7f4e487b71000000000000000000000000000000000000000000000000000000005f52604160045260245ffd5b60405160c0810167ffffffffffffffff8111828210171561119c5761119c61114c565b60405290565b604051601f82017fffffffffffffffffffffffffffffffffffffffffffffffffffffffffffffffe016810167ffffffffffffffff811182821017156111e9576111e961114c565b604052919050565b73ffffffffffffffffffffffffffffffffffffffff81168114611212575f80fd5b50565b8035600281900b8114611226575f80fd5b919050565b5f60a0828403121561123b575f80fd5b60405160a0810181811067ffffffffffffffff8211171561125e5761125e61114c565b604052905080823561126f816111f1565b8152602083013561127f816111f1565b6020820152604083013562ffffff81168114611299575f80fd5b60408201526112aa60608401611215565b606082015260808301356112bd816111f1565b6080919091015292915050565b5f608082840312156112da575f80fd5b6040516080810181811067ffffffffffffffff821117156112fd576112fd61114c565b60405290508061130c83611215565b815261131a60208401611215565b602082015260408301356040820152606083013560608201525092915050565b5f67ffffffffffffffff8211156113535761135361114c565b50601f017fffffffffffffffffffffffffffffffffffffffffffffffffffffffffffffffe01660200190565b5f82601f83011261138e575f80fd5b81356113a161139c8261133a565b6111a2565b8181528460208386010111156113b5575f80fd5b816020850160208301375f918101602001919091529392505050565b8015158114611212575f80fd5b8035611226816113d1565b5f805f805f61018086880312156113fe575f80fd5b611408878761122b565b94506114178760a088016112ca565b935061012086013567ffffffffffffffff811115611433575f80fd5b61143f8882890161137f565b935050610140860135611451816113d1565b9150610160860135611462816113d1565b809150509295509295909350565b5f805f6101408486031215611483575f80fd5b61148d858561122b565b925061149c8560a086016112ca565b915061012084013567ffffffffffffffff8111156114b8575f80fd5b6114c48682870161137f565b9150509250925092565b5f80602083850312156114df575f80fd5b823567ffffffffffffffff808211156114f6575f80fd5b818501915085601f830112611509575f80fd5b813581811115611517575f80fd5b866020828501011115611528575f80fd5b60209290920196919550909350505050565b5f5b8381101561155457818101518382015260200161153c565b50505f910152565b5f815180845261157381602086016020860161153a565b601f017fffffffffffffffffffffffffffffffffffffffffffffffffffffffffffffffe0169290920160200192915050565b602081525f6115b7602083018461155c565b9392505050565b6020815273ffffffffffffffffffffffffffffffffffffffff82511660208201525f6020830151611641604084018273ffffffffffffffffffffffffffffffffffffffff80825116835280602083015116602084015262ffffff6040830151166040840152606082015160020b6060840152806080830151166080840152505050565b506040838101518051600290810b60e08601526020820151900b6101008501529081015161012084015260608101516101408401525060608301516101a0806101608501526116946101c085018361155c565b6080860151151561018086015260a09095015115159301929092525090919050565b5f602082840312156116c6575f80fd5b815167ffffffffffffffff8111156116dc575f80fd5b8201601f810184136116ec575f80fd5b80516116fa61139c8261133a565b81815285602083850101111561170e575f80fd5b6110b782602083016020860161153a565b5f6020828403121561172f575f80fd5b5051919050565b5f60208284031215611746575f80fd5b813567ffffffffffffffff8082111561175d575f80fd5b908301906101a08286031215611771575f80fd5b611779611179565b8235611784816111f1565b8152611793866020850161122b565b60208201526117a58660c085016112ca565b6040820152610140830135828111156117bc575f80fd5b6117c88782860161137f565b6060830152506117db61016084016113de565b60808201526117ed61018084016113de565b60a082015295945050505050565b5f610140611858838773ffffffffffffffffffffffffffffffffffffffff80825116835280602083015116602084015262ffffff6040830151166040840152606082015160020b6060840152806080830151166080840152505050565b8451600290810b60a08501526020860151900b60c0840152604085015160e08401526060850151610100840152806101208401526118988184018561155c565b9695505050505050565b5f80604083850312156118b3575f80fd5b505080516020909101519092909150565b7f4e487b71000000000000000000000000000000000000000000000000000000005f52601160045260245ffd5b8082018281125f831280158216821582161715611910576119106118c4565b505092915050565b7f4e487b71000000000000000000000000000000000000000000000000000000005f52600160045260245ffd5b5f7f80000000000000000000000000000000000000000000000000000000000000008203611975576119756118c4565b505f0390565b5f6020828403121561198b575f80fd5b81516115b7816113d1565b8082018082111561073b5761073b6118c456fea2646970667358221220ddf6b4149fec76d30fd671d6f376ca8af5d0acafe9e673f199819971a84c14ff64736f6c63430008180033","linkReferences":{}},"methodIdentifiers":{"manager()":"481c6a75","modifyLiquidity((address,address,uint24,int24,address),(int24,int24,int256,bytes32),bytes)":"5a6bcfda","modifyLiquidity((address,address,uint24,int24,address),(int24,int24,int256,bytes32),bytes,bool,bool)":"0a5b11e4","unlockCallback(bytes)":"91dd7346"},"id":82}