{"abi":[{"type":"constructor","inputs":[{"name":"_manager","type":"address","internalType":"contract IPoolManager"}],"stateMutability":"nonpayable"},{"type":"function","name":"manager","inputs":[],"outputs":[{"name":"","type":"address","internalType":"contract IPoolManager"}],"stateMutability":"view"},{"type":"function","name":"modifyLiquidity","inputs":[{"name":"key","type":"tuple","internalType":"struct PoolKey","components":[{"name":"currency0","type":"address","internalType":"Currency"},{"name":"currency1","type":"address","internalType":"Currency"},{"name":"fee","type":"uint24","internalType":"uint24"},{"name":"tickSpacing","type":"int24","internalType":"int24"},{"name":"hooks","type":"address","internalType":"contract IHooks"}]},{"name":"params","type":"tuple","internalType":"struct IPoolManager.ModifyLiquidityParams","components":[{"name":"tickLower","type":"int24","internalType":"int24"},{"name":"tickUpper","type":"int24","internalType":"int24"},{"name":"liquidityDelta","type":"int256","internalType":"int256"},{"name":"salt","type":"bytes32","internalType":"bytes32"}]},{"name":"hookData","type":"bytes","internalType":"bytes"},{"name":"settleUsingBurn","type":"bool","internalType":"bool"},{"name":"takeClaims","type":"bool","internalType":"bool"}],"outputs":[{"name":"delta","type":"int256","internalType":"BalanceDelta"}],"stateMutability":"payable"},{"type":"function","name":"modifyLiquidity","inputs":[{"name":"key","type":"tuple","internalType":"struct PoolKey","components":[{"name":"currency0","type":"address","internalType":"Currency"},{"name":"currency1","type":"address","internalType":"Currency"},{"name":"fee","type":"uint24","internalType":"uint24"},{"name":"tickSpacing","type":"int24","internalType":"int24"},{"name":"hooks","type":"address","internalType":"contract IHooks"}]},{"name":"params","type":"tuple","internalType":"struct IPoolManager.ModifyLiquidityParams","components":[{"name":"tickLower","type":"int24","internalType":"int24"},{"name":"tickUpper","type":"int24","internalType":"int24"},{"name":"liquidityDelta","type":"int256","internalType":"int256"},{"name":"salt","type":"bytes32","internalType":"bytes32"}]},{"name":"hookData","type":"bytes","internalType":"bytes"}],"outputs":[{"name":"delta","type":"int256","internalType":"BalanceDelta"}],"stateMutability":"payable"},{"type":"function","name":"unlockCallback","inputs":[{"name":"rawData","type":"bytes","internalType":"bytes"}],"outputs":[{"name":"","type":"bytes","internalType":"bytes"}],"stateMutability":"nonpayable"}],"bytecode":{"object":"0x60a060405234801561000f575f80fd5b506040516113e83803806113e883398101604081905261002e9161003f565b6001600160a01b031660805261006c565b5f6020828403121561004f575f80fd5b81516001600160a01b0381168114610065575f80fd5b9392505050565b6080516113346100b45f395f81816079015281816101020152818161027f015281816102ba01528181610393015281816103f60152818161047f01526104dd01526113345ff3fe60806040526004361061003e575f3560e01c80630a5b11e414610042578063481c6a75146100685780635a6bcfda146100c057806391dd7346146100d3575b5f80fd5b610055610050366004610da4565b6100ff565b6040519081526020015b60405180910390f35b348015610073575f80fd5b5061009b7f000000000000000000000000000000000000000000000000000000000000000081565b60405173ffffffffffffffffffffffffffffffffffffffff909116815260200161005f565b6100556100ce366004610e2b565b61024f565b3480156100de575f80fd5b506100f26100ed366004610e89565b610265565b60405161005f9190610f60565b5f7f000000000000000000000000000000000000000000000000000000000000000073ffffffffffffffffffffffffffffffffffffffff166348c894916040518060c001604052803373ffffffffffffffffffffffffffffffffffffffff16815260200189815260200188815260200187815260200186151581526020018515158152506040516020016101939190610f79565b6040516020818303038152906040526040518263ffffffff1660e01b81526004016101be9190610f60565b5f604051808303815f875af11580156101d9573d5f803e3d5ffd5b505050506040513d5f823e601f3d9081017fffffffffffffffffffffffffffffffffffffffffffffffffffffffffffffffe016820160405261021e9190810190611071565b80602001905181019061023191906110e3565b9050478015610245576102455f338361052c565b5095945050505050565b5f61025d8484845f806100ff565b949350505050565b60603373ffffffffffffffffffffffffffffffffffffffff7f000000000000000000000000000000000000000000000000000000000000000016146102a8575f80fd5b5f6102b5838501856110fa565b90505f7f000000000000000000000000000000000000000000000000000000000000000073ffffffffffffffffffffffffffffffffffffffff16635a6bcfda8360200151846040015185606001516040518463ffffffff1660e01b8152600401610321939291906111bf565b60408051808303815f875af115801561033c573d5f803e3d5ffd5b505050506040513d601f19601f820116820180604052508101906103609190611266565b5090505f61036e8260801d90565b600f0b90505f61037e83600f0b90565b600f0b90505f8212156103e65783516103e6907f0000000000000000000000000000000000000000000000000000000000000000906103bc85611288565b608088015160208901515173ffffffffffffffffffffffffffffffffffffffff16939291906105ae565b5f81121561044b57835161044b907f00000000000000000000000000000000000000000000000000000000000000009061041f84611288565b60808801516020808a0151015173ffffffffffffffffffffffffffffffffffffffff16939291906105ae565b5f8213156104a757835160a08501516020860151516104a79273ffffffffffffffffffffffffffffffffffffffff909116917f0000000000000000000000000000000000000000000000000000000000000000919086906109c3565b5f81131561050557835160a085015160208087015101516105059273ffffffffffffffffffffffffffffffffffffffff909116917f0000000000000000000000000000000000000000000000000000000000000000919085906109c3565b60408051602081018590520160405160208183030381529060405294505050505092915050565b73ffffffffffffffffffffffffffffffffffffffff8316610565575f805f8084865af16105605763f4b3b1bc5f526004601cfd5b505050565b81601452806034526fa9059cbb0000000000000000000000005f5260205f604460105f875af13d1560015f511417166105a55763f27f64e45f526004601cfd5b5f603452505050565b801561068f578373ffffffffffffffffffffffffffffffffffffffff1663f5298aca846106048873ffffffffffffffffffffffffffffffffffffffff1673ffffffffffffffffffffffffffffffffffffffff1690565b6040517fffffffff0000000000000000000000000000000000000000000000000000000060e085901b16815273ffffffffffffffffffffffffffffffffffffffff90921660048301526024820152604481018590526064015b5f604051808303815f87803b158015610674575f80fd5b505af1158015610686573d5f803e3d5ffd5b505050506109bc565b73ffffffffffffffffffffffffffffffffffffffff8516610742576040517f6a256b2900000000000000000000000000000000000000000000000000000000815273ffffffffffffffffffffffffffffffffffffffff8681166004830152851690636a256b2990849060240160206040518083038185885af1158015610717573d5f803e3d5ffd5b50505050506040513d601f19601f8201168201806040525081019061073c91906110e3565b506109bc565b6040517fa584119400000000000000000000000000000000000000000000000000000000815273ffffffffffffffffffffffffffffffffffffffff868116600483015285169063a5841194906024016020604051808303815f875af11580156107ad573d5f803e3d5ffd5b505050506040513d601f19601f820116820180604052508101906107d191906110e3565b5073ffffffffffffffffffffffffffffffffffffffff83163014610893576040517f23b872dd00000000000000000000000000000000000000000000000000000000815273ffffffffffffffffffffffffffffffffffffffff84811660048301528581166024830152604482018490528616906323b872dd906064016020604051808303815f875af1158015610869573d5f803e3d5ffd5b505050506040513d601f19601f8201168201806040525081019061088d91906112e3565b5061092b565b6040517fa9059cbb00000000000000000000000000000000000000000000000000000000815273ffffffffffffffffffffffffffffffffffffffff85811660048301526024820184905286169063a9059cbb906044016020604051808303815f875af1158015610905573d5f803e3d5ffd5b505050506040513d601f19601f8201168201806040525081019061092991906112e3565b505b6040517f6a256b2900000000000000000000000000000000000000000000000000000000815273ffffffffffffffffffffffffffffffffffffffff8681166004830152851690636a256b29906024016020604051808303815f875af1158015610996573d5f803e3d5ffd5b505050506040513d601f19601f820116820180604052508101906109ba91906110e3565b505b5050505050565b80610a2b576040517f0b0d9c0900000000000000000000000000000000000000000000000000000000815273ffffffffffffffffffffffffffffffffffffffff8681166004830152848116602483015260448201849052851690630b0d9c099060640161065d565b8373ffffffffffffffffffffffffffffffffffffffff1663156e29f684610a7b8873ffffffffffffffffffffffffffffffffffffffff1673ffffffffffffffffffffffffffffffffffffffff1690565b6040517fffffffff0000000000000000000000000000000000000000000000000000000060e085901b16815273ffffffffffffffffffffffffffffffffffffffff90921660048301526024820152604481018590526064015f604051808303815f87803b158015610aea575f80fd5b505af1158015610afc573d5f803e3d5ffd5b505050505050505050565b7f4e487b71000000000000000000000000000000000000000000000000000000005f52604160045260245ffd5b60405160c0810167ffffffffffffffff81118282101715610b5757610b57610b07565b60405290565b604051601f82017fffffffffffffffffffffffffffffffffffffffffffffffffffffffffffffffe016810167ffffffffffffffff81118282101715610ba457610ba4610b07565b604052919050565b73ffffffffffffffffffffffffffffffffffffffff81168114610bcd575f80fd5b50565b8035600281900b8114610be1575f80fd5b919050565b5f60a08284031215610bf6575f80fd5b60405160a0810181811067ffffffffffffffff82111715610c1957610c19610b07565b6040529050808235610c2a81610bac565b81526020830135610c3a81610bac565b6020820152604083013562ffffff81168114610c54575f80fd5b6040820152610c6560608401610bd0565b60608201526080830135610c7881610bac565b6080919091015292915050565b5f60808284031215610c95575f80fd5b6040516080810181811067ffffffffffffffff82111715610cb857610cb8610b07565b604052905080610cc783610bd0565b8152610cd560208401610bd0565b602082015260408301356040820152606083013560608201525092915050565b5f67ffffffffffffffff821115610d0e57610d0e610b07565b50601f017fffffffffffffffffffffffffffffffffffffffffffffffffffffffffffffffe01660200190565b5f82601f830112610d49575f80fd5b8135610d5c610d5782610cf5565b610b5d565b818152846020838601011115610d70575f80fd5b816020850160208301375f918101602001919091529392505050565b8015158114610bcd575f80fd5b8035610be181610d8c565b5f805f805f6101808688031215610db9575f80fd5b610dc38787610be6565b9450610dd28760a08801610c85565b935061012086013567ffffffffffffffff811115610dee575f80fd5b610dfa88828901610d3a565b935050610140860135610e0c81610d8c565b9150610160860135610e1d81610d8c565b809150509295509295909350565b5f805f6101408486031215610e3e575f80fd5b610e488585610be6565b9250610e578560a08601610c85565b915061012084013567ffffffffffffffff811115610e73575f80fd5b610e7f86828701610d3a565b9150509250925092565b5f8060208385031215610e9a575f80fd5b823567ffffffffffffffff80821115610eb1575f80fd5b818501915085601f830112610ec4575f80fd5b813581811115610ed2575f80fd5b866020828501011115610ee3575f80fd5b60209290920196919550909350505050565b5f5b83811015610f0f578181015183820152602001610ef7565b50505f910152565b5f8151808452610f2e816020860160208601610ef5565b601f017fffffffffffffffffffffffffffffffffffffffffffffffffffffffffffffffe0169290920160200192915050565b602081525f610f726020830184610f17565b9392505050565b6020815273ffffffffffffffffffffffffffffffffffffffff82511660208201525f6020830151610ffc604084018273ffffffffffffffffffffffffffffffffffffffff80825116835280602083015116602084015262ffffff6040830151166040840152606082015160020b6060840152806080830151166080840152505050565b506040838101518051600290810b60e08601526020820151900b6101008501529081015161012084015260608101516101408401525060608301516101a08061016085015261104f6101c0850183610f17565b6080860151151561018086015260a09095015115159301929092525090919050565b5f60208284031215611081575f80fd5b815167ffffffffffffffff811115611097575f80fd5b8201601f810184136110a7575f80fd5b80516110b5610d5782610cf5565b8181528560208385010111156110c9575f80fd5b6110da826020830160208601610ef5565b95945050505050565b5f602082840312156110f3575f80fd5b5051919050565b5f6020828403121561110a575f80fd5b813567ffffffffffffffff80821115611121575f80fd5b908301906101a08286031215611135575f80fd5b61113d610b34565b823561114881610bac565b81526111578660208501610be6565b60208201526111698660c08501610c85565b604082015261014083013582811115611180575f80fd5b61118c87828601610d3a565b60608301525061119f6101608401610d99565b60808201526111b16101808401610d99565b60a082015295945050505050565b5f61014061121c838773ffffffffffffffffffffffffffffffffffffffff80825116835280602083015116602084015262ffffff6040830151166040840152606082015160020b6060840152806080830151166080840152505050565b8451600290810b60a08501526020860151900b60c0840152604085015160e084015260608501516101008401528061012084015261125c81840185610f17565b9695505050505050565b5f8060408385031215611277575f80fd5b505080516020909101519092909150565b5f7f800000000000000000000000000000000000000000000000000000000000000082036112dd577f4e487b71000000000000000000000000000000000000000000000000000000005f52601160045260245ffd5b505f0390565b5f602082840312156112f3575f80fd5b8151610f7281610d8c56fea2646970667358221220155b12d2b103170eb3a4ff67987262681b12f8df7e491458f05aed698db70cae64736f6c63430008180033","linkReferences":{}},"methodIdentifiers":{"manager()":"481c6a75","modifyLiquidity((address,address,uint24,int24,address),(int24,int24,int256,bytes32),bytes)":"5a6bcfda","modifyLiquidity((address,address,uint24,int24,address),(int24,int24,int256,bytes32),bytes,bool,bool)":"0a5b11e4","unlockCallback(bytes)":"91dd7346"},"id":83}