{"abi":[{"type":"constructor","inputs":[{"name":"_manager","type":"address","internalType":"contract IPoolManager"}],"stateMutability":"nonpayable"},{"type":"function","name":"manager","inputs":[],"outputs":[{"name":"","type":"address","internalType":"contract IPoolManager"}],"stateMutability":"view"},{"type":"function","name":"swap","inputs":[{"name":"key","type":"tuple","internalType":"struct PoolKey","components":[{"name":"currency0","type":"address","internalType":"Currency"},{"name":"currency1","type":"address","internalType":"Currency"},{"name":"fee","type":"uint24","internalType":"uint24"},{"name":"tickSpacing","type":"int24","internalType":"int24"},{"name":"hooks","type":"address","internalType":"contract IHooks"}]},{"name":"params","type":"tuple","internalType":"struct IPoolManager.SwapParams","components":[{"name":"zeroForOne","type":"bool","internalType":"bool"},{"name":"amountSpecified","type":"int256","internalType":"int256"},{"name":"sqrtPriceLimitX96","type":"uint160","internalType":"uint160"}]},{"name":"testSettings","type":"tuple","internalType":"struct HookEnabledSwapRouter.TestSettings","components":[{"name":"takeClaims","type":"bool","internalType":"bool"},{"name":"settleUsingBurn","type":"bool","internalType":"bool"}]},{"name":"hookData","type":"bytes","internalType":"bytes"}],"outputs":[{"name":"delta","type":"int256","internalType":"BalanceDelta"}],"stateMutability":"payable"},{"type":"function","name":"unlockCallback","inputs":[{"name":"rawData","type":"bytes","internalType":"bytes"}],"outputs":[{"name":"","type":"bytes","internalType":"bytes"}],"stateMutability":"nonpayable"},{"type":"error","name":"NoSwapOccurred","inputs":[]}],"bytecode":{"object":"0x60a060405234801561000f575f80fd5b506040516113a53803806113a583398101604081905261002e9161003f565b6001600160a01b031660805261006c565b5f6020828403121561004f575f80fd5b81516001600160a01b0381168114610065575f80fd5b9392505050565b6080516112f26100b35f395f8181606e0152818160e4015281816102400152818161027b0152818161036d015281816103ec0152818161045501526104e001526112f25ff3fe608060405260043610610033575f3560e01c80632229d0b414610037578063481c6a751461005d57806391dd7346146100b5575b5f80fd5b61004a610045366004610dfa565b6100e1565b6040519081526020015b60405180910390f35b348015610068575f80fd5b506100907f000000000000000000000000000000000000000000000000000000000000000081565b60405173ffffffffffffffffffffffffffffffffffffffff9091168152602001610054565b3480156100c0575f80fd5b506100d46100cf366004610e6b565b610226565b6040516100549190610f42565b5f7f000000000000000000000000000000000000000000000000000000000000000073ffffffffffffffffffffffffffffffffffffffff166348c894916040518060a001604052803373ffffffffffffffffffffffffffffffffffffffff1681526020018681526020018881526020018781526020018581525060405160200161016b9190610f5b565b6040516020818303038152906040526040518263ffffffff1660e01b81526004016101969190610f42565b5f604051808303815f875af11580156101b1573d5f803e3d5ffd5b505050506040513d5f823e601f3d9081017fffffffffffffffffffffffffffffffffffffffffffffffffffffffffffffffe01682016040526101f69190810190611056565b80602001905181019061020991906110c8565b905047801561021d5761021d5f3383610560565b50949350505050565b60603373ffffffffffffffffffffffffffffffffffffffff7f00000000000000000000000000000000000000000000000000000000000000001614610269575f80fd5b5f610276838501856110df565b90505f7f000000000000000000000000000000000000000000000000000000000000000073ffffffffffffffffffffffffffffffffffffffff1663f3cd914c8360400151846060015185608001516040518463ffffffff1660e01b81526004016102e293929190611193565b6020604051808303815f875af11580156102fe573d5f803e3d5ffd5b505050506040513d601f19601f8201168201806040525081019061032291906110c8565b9050805f0361035d576040517f5a8b05b000000000000000000000000000000000000000000000000000000000815260040160405180910390fd5b60608201515115610450576103d37f0000000000000000000000000000000000000000000000000000000000000000835f015161039a8460801d90565b6103a390611240565b602080870151015160408701515173ffffffffffffffffffffffffffffffffffffffff16939291600f0b906105e2565b5f6103de82600f0b90565b600f0b131561044b5761044b7f0000000000000000000000000000000000000000000000000000000000000000835f015161041984600f0b90565b6020808701515160408801519091015173ffffffffffffffffffffffffffffffffffffffff16939291600f0b906109f7565b61053b565b6104c77f0000000000000000000000000000000000000000000000000000000000000000835f015161048284600f0b90565b61048b90611240565b600f0b85602001516020015186604001516020015173ffffffffffffffffffffffffffffffffffffffff166105e290949392919063ffffffff16565b5f6104d28260801d90565b600f0b131561053b5761053b7f0000000000000000000000000000000000000000000000000000000000000000835f015161050d8460801d90565b60208601515160408701515173ffffffffffffffffffffffffffffffffffffffff16939291600f0b906109f7565b6040805160208101839052016040516020818303038152906040529250505092915050565b73ffffffffffffffffffffffffffffffffffffffff8316610599575f805f8084865af16105945763f4b3b1bc5f526004601cfd5b505050565b81601452806034526fa9059cbb0000000000000000000000005f5260205f604460105f875af13d1560015f511417166105d95763f27f64e45f526004601cfd5b5f603452505050565b80156106c3578373ffffffffffffffffffffffffffffffffffffffff1663f5298aca846106388873ffffffffffffffffffffffffffffffffffffffff1673ffffffffffffffffffffffffffffffffffffffff1690565b6040517fffffffff0000000000000000000000000000000000000000000000000000000060e085901b16815273ffffffffffffffffffffffffffffffffffffffff90921660048301526024820152604481018590526064015b5f604051808303815f87803b1580156106a8575f80fd5b505af11580156106ba573d5f803e3d5ffd5b505050506109f0565b73ffffffffffffffffffffffffffffffffffffffff8516610776576040517f6a256b2900000000000000000000000000000000000000000000000000000000815273ffffffffffffffffffffffffffffffffffffffff8681166004830152851690636a256b2990849060240160206040518083038185885af115801561074b573d5f803e3d5ffd5b50505050506040513d601f19601f8201168201806040525081019061077091906110c8565b506109f0565b6040517fa584119400000000000000000000000000000000000000000000000000000000815273ffffffffffffffffffffffffffffffffffffffff868116600483015285169063a5841194906024016020604051808303815f875af11580156107e1573d5f803e3d5ffd5b505050506040513d601f19601f8201168201806040525081019061080591906110c8565b5073ffffffffffffffffffffffffffffffffffffffff831630146108c7576040517f23b872dd00000000000000000000000000000000000000000000000000000000815273ffffffffffffffffffffffffffffffffffffffff84811660048301528581166024830152604482018490528616906323b872dd906064016020604051808303815f875af115801561089d573d5f803e3d5ffd5b505050506040513d601f19601f820116820180604052508101906108c191906112a1565b5061095f565b6040517fa9059cbb00000000000000000000000000000000000000000000000000000000815273ffffffffffffffffffffffffffffffffffffffff85811660048301526024820184905286169063a9059cbb906044016020604051808303815f875af1158015610939573d5f803e3d5ffd5b505050506040513d601f19601f8201168201806040525081019061095d91906112a1565b505b6040517f6a256b2900000000000000000000000000000000000000000000000000000000815273ffffffffffffffffffffffffffffffffffffffff8681166004830152851690636a256b29906024016020604051808303815f875af11580156109ca573d5f803e3d5ffd5b505050506040513d601f19601f820116820180604052508101906109ee91906110c8565b505b5050505050565b80610a5f576040517f0b0d9c0900000000000000000000000000000000000000000000000000000000815273ffffffffffffffffffffffffffffffffffffffff8681166004830152848116602483015260448201849052851690630b0d9c0990606401610691565b8373ffffffffffffffffffffffffffffffffffffffff1663156e29f684610aaf8873ffffffffffffffffffffffffffffffffffffffff1673ffffffffffffffffffffffffffffffffffffffff1690565b6040517fffffffff0000000000000000000000000000000000000000000000000000000060e085901b16815273ffffffffffffffffffffffffffffffffffffffff90921660048301526024820152604481018590526064015f604051808303815f87803b158015610b1e575f80fd5b505af1158015610b30573d5f803e3d5ffd5b505050505050505050565b7f4e487b71000000000000000000000000000000000000000000000000000000005f52604160045260245ffd5b60405160a0810167ffffffffffffffff81118282101715610b8b57610b8b610b3b565b60405290565b604051601f82017fffffffffffffffffffffffffffffffffffffffffffffffffffffffffffffffe016810167ffffffffffffffff81118282101715610bd857610bd8610b3b565b604052919050565b73ffffffffffffffffffffffffffffffffffffffff81168114610c01575f80fd5b50565b5f60a08284031215610c14575f80fd5b610c1c610b68565b90508135610c2981610be0565b81526020820135610c3981610be0565b6020820152604082013562ffffff81168114610c53575f80fd5b60408201526060820135600281900b8114610c6c575f80fd5b60608201526080820135610c7f81610be0565b608082015292915050565b8015158114610c01575f80fd5b5f60608284031215610ca7575f80fd5b6040516060810181811067ffffffffffffffff82111715610cca57610cca610b3b565b6040529050808235610cdb81610c8a565b8152602083810135908201526040830135610cf581610be0565b6040919091015292915050565b5f60408284031215610d12575f80fd5b6040516040810181811067ffffffffffffffff82111715610d3557610d35610b3b565b6040529050808235610d4681610c8a565b81526020830135610d5681610c8a565b6020919091015292915050565b5f67ffffffffffffffff821115610d7c57610d7c610b3b565b50601f017fffffffffffffffffffffffffffffffffffffffffffffffffffffffffffffffe01660200190565b5f82601f830112610db7575f80fd5b8135610dca610dc582610d63565b610b91565b818152846020838601011115610dde575f80fd5b816020850160208301375f918101602001919091529392505050565b5f805f806101608587031215610e0e575f80fd5b610e188686610c04565b9350610e278660a08701610c97565b9250610e37866101008701610d02565b915061014085013567ffffffffffffffff811115610e53575f80fd5b610e5f87828801610da8565b91505092959194509250565b5f8060208385031215610e7c575f80fd5b823567ffffffffffffffff80821115610e93575f80fd5b818501915085601f830112610ea6575f80fd5b813581811115610eb4575f80fd5b866020828501011115610ec5575f80fd5b60209290920196919550909350505050565b5f5b83811015610ef1578181015183820152602001610ed9565b50505f910152565b5f8151808452610f10816020860160208601610ed7565b601f017fffffffffffffffffffffffffffffffffffffffffffffffffffffffffffffffe0169290920160200192915050565b602081525f610f546020830184610ef9565b9392505050565b6020815273ffffffffffffffffffffffffffffffffffffffff82511660208201525f6020830151805115156040840152602081015115156060840152506040830151610ff9608084018273ffffffffffffffffffffffffffffffffffffffff80825116835280602083015116602084015262ffffff6040830151166040840152606082015160020b6060840152806080830151166080840152505050565b5060608301518051151561012084015260208101516101408401526040015173ffffffffffffffffffffffffffffffffffffffff1661016083015260808301516101808084015261104e6101a0840182610ef9565b949350505050565b5f60208284031215611066575f80fd5b815167ffffffffffffffff81111561107c575f80fd5b8201601f8101841361108c575f80fd5b805161109a610dc582610d63565b8181528560208385010111156110ae575f80fd5b6110bf826020830160208601610ed7565b95945050505050565b5f602082840312156110d8575f80fd5b5051919050565b5f602082840312156110ef575f80fd5b813567ffffffffffffffff80821115611106575f80fd5b90830190610180828603121561111a575f80fd5b611122610b68565b823561112d81610be0565b815261113c8660208501610d02565b602082015261114e8660608501610c04565b6040820152611161866101008501610c97565b606082015261016083013582811115611178575f80fd5b61118487828601610da8565b60808301525095945050505050565b5f6101206111f0838773ffffffffffffffffffffffffffffffffffffffff80825116835280602083015116602084015262ffffff6040830151166040840152606082015160020b6060840152806080830151166080840152505050565b8451151560a0840152602085015160c0840152604085015173ffffffffffffffffffffffffffffffffffffffff1660e08401528061010084015261123681840185610ef9565b9695505050505050565b5f81600f0b7fffffffffffffffffffffffffffffffff800000000000000000000000000000008103611299577f4e487b71000000000000000000000000000000000000000000000000000000005f52601160045260245ffd5b5f0392915050565b5f602082840312156112b1575f80fd5b8151610f5481610c8a56fea26469706673582212200c71fb699acddf41a28b18f3106a564e9249653f4903cb475dfc33febe00f2ac64736f6c63430008180033","linkReferences":{}},"methodIdentifiers":{"manager()":"481c6a75","swap((address,address,uint24,int24,address),(bool,int256,uint160),(bool,bool),bytes)":"2229d0b4","unlockCallback(bytes)":"91dd7346"},"id":113}