{"abi":[{"type":"constructor","inputs":[{"name":"_manager","type":"address","internalType":"contract IPoolManager"}],"stateMutability":"nonpayable"},{"type":"function","name":"deposit","inputs":[{"name":"currency","type":"address","internalType":"Currency"},{"name":"user","type":"address","internalType":"address"},{"name":"amount","type":"uint256","internalType":"uint256"}],"outputs":[],"stateMutability":"payable"},{"type":"function","name":"manager","inputs":[],"outputs":[{"name":"","type":"address","internalType":"contract IPoolManager"}],"stateMutability":"view"},{"type":"function","name":"unlockCallback","inputs":[{"name":"rawData","type":"bytes","internalType":"bytes"}],"outputs":[{"name":"","type":"bytes","internalType":"bytes"}],"stateMutability":"nonpayable"},{"type":"function","name":"withdraw","inputs":[{"name":"currency","type":"address","internalType":"Currency"},{"name":"user","type":"address","internalType":"address"},{"name":"amount","type":"uint256","internalType":"uint256"}],"outputs":[],"stateMutability":"payable"}],"bytecode":{"object":"0x60a060405234801561000f575f80fd5b50604051610e0a380380610e0a83398101604081905261002e9161003f565b6001600160a01b031660805261006c565b5f6020828403121561004f575f80fd5b81516001600160a01b0381168114610065575f80fd5b9392505050565b608051610d566100b45f395f818160530152818161016c0152818161024201528181610289015281816102e501528181610345015281816103a101526104920152610d565ff3fe60806040526004361061003e575f3560e01c8063481c6a75146100425780638340f5491461009f57806391dd7346146100b4578063d9caed12146100e0575b5f80fd5b34801561004d575f80fd5b506100757f000000000000000000000000000000000000000000000000000000000000000081565b60405173ffffffffffffffffffffffffffffffffffffffff90911681526020015b60405180910390f35b6100b26100ad366004610a3e565b6100f3565b005b3480156100bf575f80fd5b506100d36100ce366004610a7c565b610228565b6040516100969190610b0a565b6100b26100ee366004610a3e565b61041a565b6040805160a080820183523380835273ffffffffffffffffffffffffffffffffffffffff868116602080860191825289831686880190815260608088018a815260016080998a019081528a51948501979097529351851698830198909852518316968101969096525193850193909352511515908301527f000000000000000000000000000000000000000000000000000000000000000016906348c894919060c0015b6040516020818303038152906040526040518263ffffffff1660e01b81526004016101c29190610b0a565b5f604051808303815f875af11580156101dd573d5f803e3d5ffd5b505050506040513d5f823e601f3d9081017fffffffffffffffffffffffffffffffffffffffffffffffffffffffffffffffe01682016040526102229190810190610b87565b50505050565b60603373ffffffffffffffffffffffffffffffffffffffff7f0000000000000000000000000000000000000000000000000000000000000000161461026b575f80fd5b5f61027883850185610c5a565b9050806080015115610340576102e07f0000000000000000000000000000000000000000000000000000000000000000826020015183606001516001856040015173ffffffffffffffffffffffffffffffffffffffff166104c190949392919063ffffffff16565b61033b7f0000000000000000000000000000000000000000000000000000000000000000826020015183606001515f856040015173ffffffffffffffffffffffffffffffffffffffff1661063490949392919063ffffffff16565b6103f7565b61039c7f0000000000000000000000000000000000000000000000000000000000000000826020015183606001516001856040015173ffffffffffffffffffffffffffffffffffffffff1661063490949392919063ffffffff16565b6103f77f0000000000000000000000000000000000000000000000000000000000000000826020015183606001515f856040015173ffffffffffffffffffffffffffffffffffffffff166104c190949392919063ffffffff16565b604080515f60208201520160405160208183030381529060405291505092915050565b6040805160a080820183523380835273ffffffffffffffffffffffffffffffffffffffff868116602080860191825289831686880190815260608088018a81525f6080998a019081528a51948501979097529351851698830198909852518316968101969096525193850193909352511515908301527f000000000000000000000000000000000000000000000000000000000000000016906348c894919060c001610197565b80610557576040517f0b0d9c0900000000000000000000000000000000000000000000000000000000815273ffffffffffffffffffffffffffffffffffffffff8681166004830152848116602483015260448201849052851690630b0d9c09906064015b5f604051808303815f87803b15801561053c575f80fd5b505af115801561054e573d5f803e3d5ffd5b5050505061062d565b8373ffffffffffffffffffffffffffffffffffffffff1663156e29f6846105a78873ffffffffffffffffffffffffffffffffffffffff1673ffffffffffffffffffffffffffffffffffffffff1690565b6040517fffffffff0000000000000000000000000000000000000000000000000000000060e085901b16815273ffffffffffffffffffffffffffffffffffffffff90921660048301526024820152604481018590526064015f604051808303815f87803b158015610616575f80fd5b505af1158015610628573d5f803e3d5ffd5b505050505b5050505050565b80156106e7578373ffffffffffffffffffffffffffffffffffffffff1663f5298aca8461068a8873ffffffffffffffffffffffffffffffffffffffff1673ffffffffffffffffffffffffffffffffffffffff1690565b6040517fffffffff0000000000000000000000000000000000000000000000000000000060e085901b16815273ffffffffffffffffffffffffffffffffffffffff9092166004830152602482015260448101859052606401610525565b73ffffffffffffffffffffffffffffffffffffffff851661079a576040517f6a256b2900000000000000000000000000000000000000000000000000000000815273ffffffffffffffffffffffffffffffffffffffff8681166004830152851690636a256b2990849060240160206040518083038185885af115801561076f573d5f803e3d5ffd5b50505050506040513d601f19601f820116820180604052508101906107949190610ce7565b5061062d565b6040517fa584119400000000000000000000000000000000000000000000000000000000815273ffffffffffffffffffffffffffffffffffffffff868116600483015285169063a5841194906024016020604051808303815f875af1158015610805573d5f803e3d5ffd5b505050506040513d601f19601f820116820180604052508101906108299190610ce7565b5073ffffffffffffffffffffffffffffffffffffffff831630146108eb576040517f23b872dd00000000000000000000000000000000000000000000000000000000815273ffffffffffffffffffffffffffffffffffffffff84811660048301528581166024830152604482018490528616906323b872dd906064016020604051808303815f875af11580156108c1573d5f803e3d5ffd5b505050506040513d601f19601f820116820180604052508101906108e59190610cfe565b50610983565b6040517fa9059cbb00000000000000000000000000000000000000000000000000000000815273ffffffffffffffffffffffffffffffffffffffff85811660048301526024820184905286169063a9059cbb906044016020604051808303815f875af115801561095d573d5f803e3d5ffd5b505050506040513d601f19601f820116820180604052508101906109819190610cfe565b505b6040517f6a256b2900000000000000000000000000000000000000000000000000000000815273ffffffffffffffffffffffffffffffffffffffff8681166004830152851690636a256b29906024016020604051808303815f875af11580156109ee573d5f803e3d5ffd5b505050506040513d601f19601f82011682018060405250810190610a129190610ce7565b505050505050565b73ffffffffffffffffffffffffffffffffffffffff81168114610a3b575f80fd5b50565b5f805f60608486031215610a50575f80fd5b8335610a5b81610a1a565b92506020840135610a6b81610a1a565b929592945050506040919091013590565b5f8060208385031215610a8d575f80fd5b823567ffffffffffffffff80821115610aa4575f80fd5b818501915085601f830112610ab7575f80fd5b813581811115610ac5575f80fd5b866020828501011115610ad6575f80fd5b60209290920196919550909350505050565b5f5b83811015610b02578181015183820152602001610aea565b50505f910152565b602081525f8251806020840152610b28816040850160208701610ae8565b601f017fffffffffffffffffffffffffffffffffffffffffffffffffffffffffffffffe0169190910160400192915050565b7f4e487b71000000000000000000000000000000000000000000000000000000005f52604160045260245ffd5b5f60208284031215610b97575f80fd5b815167ffffffffffffffff80821115610bae575f80fd5b818401915084601f830112610bc1575f80fd5b815181811115610bd357610bd3610b5a565b604051601f82017fffffffffffffffffffffffffffffffffffffffffffffffffffffffffffffffe0908116603f01168101908382118183101715610c1957610c19610b5a565b81604052828152876020848701011115610c31575f80fd5b610c42836020830160208801610ae8565b979650505050505050565b8015158114610a3b575f80fd5b5f60a08284031215610c6a575f80fd5b60405160a0810181811067ffffffffffffffff82111715610c8d57610c8d610b5a565b6040528235610c9b81610a1a565b81526020830135610cab81610a1a565b60208201526040830135610cbe81610a1a565b6040820152606083810135908201526080830135610cdb81610c4d565b60808201529392505050565b5f60208284031215610cf7575f80fd5b5051919050565b5f60208284031215610d0e575f80fd5b8151610d1981610c4d565b939250505056fea26469706673582212207d28cbf28338c65c50adde60de79aeb912010d30ef8c70c70a938ec9c9b0226064736f6c63430008180033","linkReferences":{}},"methodIdentifiers":{"deposit(address,address,uint256)":"8340f549","manager()":"481c6a75","unlockCallback(bytes)":"91dd7346","withdraw(address,address,uint256)":"d9caed12"},"id":80}